{
  "_format": "hh-sol-artifact-1",
  "contractName": "WaterlilyNFT",
  "sourceName": "contracts/WaterlilyNFT.sol",
  "abi": [
    {
      "inputs": [],
      "stateMutability": "nonpayable",
      "type": "constructor"
    },
    {
      "anonymous": false,
      "inputs": [
        {
          "indexed": true,
          "internalType": "address",
          "name": "owner",
          "type": "address"
        },
        {
          "indexed": true,
          "internalType": "address",
          "name": "approved",
          "type": "address"
        },
        {
          "indexed": true,
          "internalType": "uint256",
          "name": "tokenId",
          "type": "uint256"
        }
      ],
      "name": "Approval",
      "type": "event"
    },
    {
      "anonymous": false,
      "inputs": [
        {
          "indexed": true,
          "internalType": "address",
          "name": "owner",
          "type": "address"
        },
        {
          "indexed": true,
          "internalType": "address",
          "name": "operator",
          "type": "address"
        },
        {
          "indexed": false,
          "internalType": "bool",
          "name": "approved",
          "type": "bool"
        }
      ],
      "name": "ApprovalForAll",
      "type": "event"
    },
    {
      "anonymous": false,
      "inputs": [
        {
          "indexed": true,
          "internalType": "address",
          "name": "sender",
          "type": "address"
        },
        {
          "indexed": true,
          "internalType": "uint256",
          "name": "tokenId",
          "type": "uint256"
        },
        {
          "indexed": false,
          "internalType": "string",
          "name": "tokenURI",
          "type": "string"
        }
      ],
      "name": "NewWaterlilyFRC721NFTMinted",
      "type": "event"
    },
    {
      "anonymous": false,
      "inputs": [
        {
          "indexed": true,
          "internalType": "address",
          "name": "from",
          "type": "address"
        },
        {
          "indexed": true,
          "internalType": "address",
          "name": "to",
          "type": "address"
        },
        {
          "indexed": true,
          "internalType": "uint256",
          "name": "tokenId",
          "type": "uint256"
        }
      ],
      "name": "Transfer",
      "type": "event"
    },
    {
      "inputs": [
        {
          "internalType": "address",
          "name": "to",
          "type": "address"
        },
        {
          "internalType": "uint256",
          "name": "tokenId",
          "type": "uint256"
        }
      ],
      "name": "approve",
      "outputs": [],
      "stateMutability": "nonpayable",
      "type": "function"
    },
    {
      "inputs": [
        {
          "internalType": "address",
          "name": "owner",
          "type": "address"
        }
      ],
      "name": "balanceOf",
      "outputs": [
        {
          "internalType": "uint256",
          "name": "",
          "type": "uint256"
        }
      ],
      "stateMutability": "view",
      "type": "function"
    },
    {
      "inputs": [
        {
          "internalType": "uint256",
          "name": "tokenId",
          "type": "uint256"
        }
      ],
      "name": "getApproved",
      "outputs": [
        {
          "internalType": "address",
          "name": "",
          "type": "address"
        }
      ],
      "stateMutability": "view",
      "type": "function"
    },
    {
      "inputs": [],
      "name": "getNFTCollection",
      "outputs": [
        {
          "components": [
            {
              "internalType": "address",
              "name": "owner",
              "type": "address"
            },
            {
              "internalType": "string",
              "name": "tokenURI",
              "type": "string"
            },
            {
              "internalType": "uint256",
              "name": "tokenId",
              "type": "uint256"
            }
          ],
          "internalType": "struct WaterlilyNFT.waterlilyFRC721NFT[]",
          "name": "",
          "type": "tuple[]"
        }
      ],
      "stateMutability": "view",
      "type": "function"
    },
    {
      "inputs": [
        {
          "internalType": "address",
          "name": "owner",
          "type": "address"
        }
      ],
      "name": "getNFTCollectionByOwner",
      "outputs": [
        {
          "components": [
            {
              "internalType": "address",
              "name": "owner",
              "type": "address"
            },
            {
              "internalType": "string",
              "name": "tokenURI",
              "type": "string"
            },
            {
              "internalType": "uint256",
              "name": "tokenId",
              "type": "uint256"
            }
          ],
          "internalType": "struct WaterlilyNFT.waterlilyFRC721NFT[]",
          "name": "",
          "type": "tuple[]"
        }
      ],
      "stateMutability": "view",
      "type": "function"
    },
    {
      "inputs": [
        {
          "internalType": "address",
          "name": "owner",
          "type": "address"
        },
        {
          "internalType": "address",
          "name": "operator",
          "type": "address"
        }
      ],
      "name": "isApprovedForAll",
      "outputs": [
        {
          "internalType": "bool",
          "name": "",
          "type": "bool"
        }
      ],
      "stateMutability": "view",
      "type": "function"
    },
    {
      "inputs": [
        {
          "internalType": "address",
          "name": "owner",
          "type": "address"
        },
        {
          "internalType": "string[]",
          "name": "ipfsMetadata",
          "type": "string[]"
        }
      ],
      "name": "mintMultipleWaterlilyNFTs",
      "outputs": [
        {
          "internalType": "uint256[]",
          "name": "",
          "type": "uint256[]"
        }
      ],
      "stateMutability": "nonpayable",
      "type": "function"
    },
    {
      "inputs": [
        {
          "internalType": "address",
          "name": "owner",
          "type": "address"
        },
        {
          "internalType": "string",
          "name": "ipfsURI",
          "type": "string"
        }
      ],
      "name": "mintWaterlilyNFT",
      "outputs": [
        {
          "internalType": "uint256",
          "name": "",
          "type": "uint256"
        }
      ],
      "stateMutability": "nonpayable",
      "type": "function"
    },
    {
      "inputs": [],
      "name": "name",
      "outputs": [
        {
          "internalType": "string",
          "name": "",
          "type": "string"
        }
      ],
      "stateMutability": "view",
      "type": "function"
    },
    {
      "inputs": [
        {
          "internalType": "uint256",
          "name": "",
          "type": "uint256"
        }
      ],
      "name": "nftCollection",
      "outputs": [
        {
          "internalType": "address",
          "name": "owner",
          "type": "address"
        },
        {
          "internalType": "string",
          "name": "tokenURI",
          "type": "string"
        },
        {
          "internalType": "uint256",
          "name": "tokenId",
          "type": "uint256"
        }
      ],
      "stateMutability": "view",
      "type": "function"
    },
    {
      "inputs": [
        {
          "internalType": "address",
          "name": "",
          "type": "address"
        },
        {
          "internalType": "uint256",
          "name": "",
          "type": "uint256"
        }
      ],
      "name": "nftCollectionByOwner",
      "outputs": [
        {
          "internalType": "address",
          "name": "owner",
          "type": "address"
        },
        {
          "internalType": "string",
          "name": "tokenURI",
          "type": "string"
        },
        {
          "internalType": "uint256",
          "name": "tokenId",
          "type": "uint256"
        }
      ],
      "stateMutability": "view",
      "type": "function"
    },
    {
      "inputs": [
        {
          "internalType": "uint256",
          "name": "tokenId",
          "type": "uint256"
        }
      ],
      "name": "ownerOf",
      "outputs": [
        {
          "internalType": "address",
          "name": "",
          "type": "address"
        }
      ],
      "stateMutability": "view",
      "type": "function"
    },
    {
      "inputs": [
        {
          "internalType": "address",
          "name": "from",
          "type": "address"
        },
        {
          "internalType": "address",
          "name": "to",
          "type": "address"
        },
        {
          "internalType": "uint256",
          "name": "tokenId",
          "type": "uint256"
        }
      ],
      "name": "safeTransferFrom",
      "outputs": [],
      "stateMutability": "nonpayable",
      "type": "function"
    },
    {
      "inputs": [
        {
          "internalType": "address",
          "name": "from",
          "type": "address"
        },
        {
          "internalType": "address",
          "name": "to",
          "type": "address"
        },
        {
          "internalType": "uint256",
          "name": "tokenId",
          "type": "uint256"
        },
        {
          "internalType": "bytes",
          "name": "data",
          "type": "bytes"
        }
      ],
      "name": "safeTransferFrom",
      "outputs": [],
      "stateMutability": "nonpayable",
      "type": "function"
    },
    {
      "inputs": [
        {
          "internalType": "address",
          "name": "operator",
          "type": "address"
        },
        {
          "internalType": "bool",
          "name": "approved",
          "type": "bool"
        }
      ],
      "name": "setApprovalForAll",
      "outputs": [],
      "stateMutability": "nonpayable",
      "type": "function"
    },
    {
      "inputs": [
        {
          "internalType": "bytes4",
          "name": "interfaceId",
          "type": "bytes4"
        }
      ],
      "name": "supportsInterface",
      "outputs": [
        {
          "internalType": "bool",
          "name": "",
          "type": "bool"
        }
      ],
      "stateMutability": "view",
      "type": "function"
    },
    {
      "inputs": [],
      "name": "symbol",
      "outputs": [
        {
          "internalType": "string",
          "name": "",
          "type": "string"
        }
      ],
      "stateMutability": "view",
      "type": "function"
    },
    {
      "inputs": [
        {
          "internalType": "uint256",
          "name": "tokenId",
          "type": "uint256"
        }
      ],
      "name": "tokenURI",
      "outputs": [
        {
          "internalType": "string",
          "name": "",
          "type": "string"
        }
      ],
      "stateMutability": "view",
      "type": "function"
    },
    {
      "inputs": [
        {
          "internalType": "address",
          "name": "from",
          "type": "address"
        },
        {
          "internalType": "address",
          "name": "to",
          "type": "address"
        },
        {
          "internalType": "uint256",
          "name": "tokenId",
          "type": "uint256"
        }
      ],
      "name": "transferFrom",
      "outputs": [],
      "stateMutability": "nonpayable",
      "type": "function"
    }
  ],
  "bytecode": "0x60806040523480156200001157600080fd5b506040518060400160405280600e81526020017f57617465726c696c79204e4654730000000000000000000000000000000000008152506040518060400160405280600381526020017f574149000000000000000000000000000000000000000000000000000000000081525081600090816200008f91906200041f565b508060019081620000a191906200041f565b505050620000d36040518060600160405280603b815260200162003e1c603b9139620000d960201b620013331760201c565b620005b9565b6200017981604051602401620000f0919062000595565b6040516020818303038152906040527f41304fac000000000000000000000000000000000000000000000000000000007bffffffffffffffffffffffffffffffffffffffffffffffffffffffff19166020820180517bffffffffffffffffffffffffffffffffffffffffffffffffffffffff83818316178352505050506200017c60201b60201c565b50565b60008151905060006a636f6e736f6c652e6c6f679050602083016000808483855afa5050505050565b600081519050919050565b7f4e487b7100000000000000000000000000000000000000000000000000000000600052604160045260246000fd5b7f4e487b7100000000000000000000000000000000000000000000000000000000600052602260045260246000fd5b600060028204905060018216806200022757607f821691505b6020821081036200023d576200023c620001df565b5b50919050565b60008190508160005260206000209050919050565b60006020601f8301049050919050565b600082821b905092915050565b600060088302620002a77fffffffffffffffffffffffffffffffffffffffffffffffffffffffffffffffff8262000268565b620002b3868362000268565b95508019841693508086168417925050509392505050565b6000819050919050565b6000819050919050565b600062000300620002fa620002f484620002cb565b620002d5565b620002cb565b9050919050565b6000819050919050565b6200031c83620002df565b620003346200032b8262000307565b84845462000275565b825550505050565b600090565b6200034b6200033c565b6200035881848462000311565b505050565b5b8181101562000380576200037460008262000341565b6001810190506200035e565b5050565b601f821115620003cf57620003998162000243565b620003a48462000258565b81016020851015620003b4578190505b620003cc620003c38562000258565b8301826200035d565b50505b505050565b600082821c905092915050565b6000620003f460001984600802620003d4565b1980831691505092915050565b60006200040f8383620003e1565b9150826002028217905092915050565b6200042a82620001a5565b67ffffffffffffffff811115620004465762000445620001b0565b5b6200045282546200020e565b6200045f82828562000384565b600060209050601f83116001811462000497576000841562000482578287015190505b6200048e858262000401565b865550620004fe565b601f198416620004a78662000243565b60005b82811015620004d157848901518255600182019150602085019450602081019050620004aa565b86831015620004f15784890151620004ed601f891682620003e1565b8355505b6001600288020188555050505b505050505050565b600082825260208201905092915050565b60005b83811015620005375780820151818401526020810190506200051a565b60008484015250505050565b6000601f19601f8301169050919050565b60006200056182620001a5565b6200056d818562000506565b93506200057f81856020860162000517565b6200058a8162000543565b840191505092915050565b60006020820190508181036000830152620005b1818462000554565b905092915050565b61385380620005c96000396000f3fe608060405234801561001057600080fd5b50600436106101215760003560e01c806370a08231116100ad578063b88d4fde11610071578063b88d4fde14610354578063c87b56dd14610370578063d2446af5146103a0578063e985e9c5146103d2578063fedea0231461040257610121565b806370a08231146102885780637c711b27146102b857806395d89b41146102ea578063a22cb46514610308578063a63db7ed1461032457610121565b8063095ea7b3116100f4578063095ea7b3146101d457806323b872dd146101f0578063275cf2981461020c57806342842e0e1461023c5780636352211e1461025857610121565b806301ffc9a71461012657806306fdde0314610156578063075ad7ac14610174578063081812fc146101a4575b600080fd5b610140600480360381019061013b91906122af565b610420565b60405161014d91906122f7565b60405180910390f35b61015e610502565b60405161016b91906123a2565b60405180910390f35b61018e6004803603810190610189919061263d565b610594565b60405161019b9190612761565b60405180910390f35b6101be60048036038101906101b991906127af565b610694565b6040516101cb91906127eb565b60405180910390f35b6101ee60048036038101906101e99190612806565b6106da565b005b61020a60048036038101906102059190612846565b6107f1565b005b61022660048036038101906102219190612899565b610851565b6040516102339190612a31565b60405180910390f35b61025660048036038101906102519190612846565b6109e1565b005b610272600480360381019061026d91906127af565b610a01565b60405161027f91906127eb565b60405180910390f35b6102a2600480360381019061029d9190612899565b610a87565b6040516102af9190612a62565b60405180910390f35b6102d260048036038101906102cd91906127af565b610b3e565b6040516102e193929190612a7d565b60405180910390f35b6102f2610c20565b6040516102ff91906123a2565b60405180910390f35b610322600480360381019061031d9190612ae7565b610cb2565b005b61033e60048036038101906103399190612b27565b610cc8565b60405161034b9190612a62565b60405180910390f35b61036e60048036038101906103699190612c24565b610eeb565b005b61038a600480360381019061038591906127af565b610f4d565b60405161039791906123a2565b60405180910390f35b6103ba60048036038101906103b59190612806565b61105f565b6040516103c993929190612a7d565b60405180910390f35b6103ec60048036038101906103e79190612ca7565b61114e565b6040516103f991906122f7565b60405180910390f35b61040a6111e2565b6040516104179190612a31565b60405180910390f35b60007f80ac58cd000000000000000000000000000000000000000000000000000000007bffffffffffffffffffffffffffffffffffffffffffffffffffffffff1916827bffffffffffffffffffffffffffffffffffffffffffffffffffffffff191614806104eb57507f5b5e139f000000000000000000000000000000000000000000000000000000007bffffffffffffffffffffffffffffffffffffffffffffffffffffffff1916827bffffffffffffffffffffffffffffffffffffffffffffffffffffffff1916145b806104fb57506104fa826113cc565b5b9050919050565b60606000805461051190612d16565b80601f016020809104026020016040519081016040528092919081815260200182805461053d90612d16565b801561058a5780601f1061055f5761010080835404028352916020019161058a565b820191906000526020600020905b81548152906001019060200180831161056d57829003601f168201915b5050505050905090565b60606105d46040518060400160405280601681526020017f6d696e74696e672077617465726c696c79206e66747300000000000000000000815250611333565b60008251905060008167ffffffffffffffff8111156105f6576105f5612427565b5b6040519080825280602002602001820160405280156106245781602001602082028036833780820191505090505b50905060005b82811015610688576106568686838151811061064957610648612d47565b5b6020026020010151610cc8565b82828151811061066957610668612d47565b5b602002602001018181525050808061068090612da5565b91505061062a565b81935050505092915050565b600061069f82611436565b6004600083815260200190815260200160002060009054906101000a900473ffffffffffffffffffffffffffffffffffffffff169050919050565b60006106e582610a01565b90508073ffffffffffffffffffffffffffffffffffffffff168373ffffffffffffffffffffffffffffffffffffffff1603610755576040517f08c379a000000000000000000000000000000000000000000000000000000000815260040161074c90612e5f565b60405180910390fd5b8073ffffffffffffffffffffffffffffffffffffffff16610774611481565b73ffffffffffffffffffffffffffffffffffffffff1614806107a357506107a28161079d611481565b61114e565b5b6107e2576040517f08c379a00000000000000000000000000000000000000000000000000000000081526004016107d990612ef1565b60405180910390fd5b6107ec8383611489565b505050565b6108026107fc611481565b82611542565b610841576040517f08c379a000000000000000000000000000000000000000000000000000000000815260040161083890612f83565b60405180910390fd5b61084c8383836115d7565b505050565b6060600960008373ffffffffffffffffffffffffffffffffffffffff1673ffffffffffffffffffffffffffffffffffffffff168152602001908152602001600020805480602002602001604051908101604052809291908181526020016000905b828210156109d657838290600052602060002090600302016040518060600160405290816000820160009054906101000a900473ffffffffffffffffffffffffffffffffffffffff1673ffffffffffffffffffffffffffffffffffffffff1673ffffffffffffffffffffffffffffffffffffffff16815260200160018201805461093b90612d16565b80601f016020809104026020016040519081016040528092919081815260200182805461096790612d16565b80156109b45780601f10610989576101008083540402835291602001916109b4565b820191906000526020600020905b81548152906001019060200180831161099757829003601f168201915b50505050508152602001600282015481525050815260200190600101906108b2565b505050509050919050565b6109fc83838360405180602001604052806000815250610eeb565b505050565b600080610a0d836118d0565b9050600073ffffffffffffffffffffffffffffffffffffffff168173ffffffffffffffffffffffffffffffffffffffff1603610a7e576040517f08c379a0000000000000000000000000000000000000000000000000000000008152600401610a7590612fef565b60405180910390fd5b80915050919050565b60008073ffffffffffffffffffffffffffffffffffffffff168273ffffffffffffffffffffffffffffffffffffffff1603610af7576040517f08c379a0000000000000000000000000000000000000000000000000000000008152600401610aee90613081565b60405180910390fd5b600360008373ffffffffffffffffffffffffffffffffffffffff1673ffffffffffffffffffffffffffffffffffffffff168152602001908152602001600020549050919050565b60088181548110610b4e57600080fd5b90600052602060002090600302016000915090508060000160009054906101000a900473ffffffffffffffffffffffffffffffffffffffff1690806001018054610b9790612d16565b80601f0160208091040260200160405190810160405280929190818152602001828054610bc390612d16565b8015610c105780601f10610be557610100808354040283529160200191610c10565b820191906000526020600020905b815481529060010190602001808311610bf357829003601f168201915b5050505050908060020154905083565b606060018054610c2f90612d16565b80601f0160208091040260200160405190810160405280929190818152602001828054610c5b90612d16565b8015610ca85780601f10610c7d57610100808354040283529160200191610ca8565b820191906000526020600020905b815481529060010190602001808311610c8b57829003601f168201915b5050505050905090565b610cc4610cbd611481565b838361190d565b5050565b600080610cd56007611a79565b9050600060405180606001604052803373ffffffffffffffffffffffffffffffffffffffff168152602001858152602001838152509050610d168583611a87565b610d208285611ca4565b600960008673ffffffffffffffffffffffffffffffffffffffff1673ffffffffffffffffffffffffffffffffffffffff16815260200190815260200160002081908060018154018082558091505060019003906000526020600020906003020160009091909190915060008201518160000160006101000a81548173ffffffffffffffffffffffffffffffffffffffff021916908373ffffffffffffffffffffffffffffffffffffffff1602179055506020820151816001019081610de5919061324d565b50604082015181600201555050610dfc6007611d11565b600881908060018154018082558091505060019003906000526020600020906003020160009091909190915060008201518160000160006101000a81548173ffffffffffffffffffffffffffffffffffffffff021916908373ffffffffffffffffffffffffffffffffffffffff1602179055506020820151816001019081610e84919061324d565b50604082015181600201555050813373ffffffffffffffffffffffffffffffffffffffff167f07c11a3124426d133cf31d5b54642da1143f57ecf9f7d8412038b26506a9df2186604051610ed891906123a2565b60405180910390a3819250505092915050565b610efc610ef6611481565b83611542565b610f3b576040517f08c379a0000000000000000000000000000000000000000000000000000000008152600401610f3290612f83565b60405180910390fd5b610f4784848484611d27565b50505050565b6060610f5882611436565b6000600660008481526020019081526020016000208054610f7890612d16565b80601f0160208091040260200160405190810160405280929190818152602001828054610fa490612d16565b8015610ff15780601f10610fc657610100808354040283529160200191610ff1565b820191906000526020600020905b815481529060010190602001808311610fd457829003601f168201915b505050505090506000611002611d83565b9050600081510361101757819250505061105a565b60008251111561104c57808260405160200161103492919061335b565b6040516020818303038152906040529250505061105a565b61105584611d9a565b925050505b919050565b6009602052816000526040600020818154811061107b57600080fd5b9060005260206000209060030201600091509150508060000160009054906101000a900473ffffffffffffffffffffffffffffffffffffffff16908060010180546110c590612d16565b80601f01602080910402602001604051908101604052809291908181526020018280546110f190612d16565b801561113e5780601f106111135761010080835404028352916020019161113e565b820191906000526020600020905b81548152906001019060200180831161112157829003601f168201915b5050505050908060020154905083565b6000600560008473ffffffffffffffffffffffffffffffffffffffff1673ffffffffffffffffffffffffffffffffffffffff16815260200190815260200160002060008373ffffffffffffffffffffffffffffffffffffffff1673ffffffffffffffffffffffffffffffffffffffff16815260200190815260200160002060009054906101000a900460ff16905092915050565b60606008805480602002602001604051908101604052809291908181526020016000905b8282101561132a57838290600052602060002090600302016040518060600160405290816000820160009054906101000a900473ffffffffffffffffffffffffffffffffffffffff1673ffffffffffffffffffffffffffffffffffffffff1673ffffffffffffffffffffffffffffffffffffffff16815260200160018201805461128f90612d16565b80601f01602080910402602001604051908101604052809291908181526020018280546112bb90612d16565b80156113085780601f106112dd57610100808354040283529160200191611308565b820191906000526020600020905b8154815290600101906020018083116112eb57829003601f168201915b5050505050815260200160028201548152505081526020019060010190611206565b50505050905090565b6113c98160405160240161134791906123a2565b6040516020818303038152906040527f41304fac000000000000000000000000000000000000000000000000000000007bffffffffffffffffffffffffffffffffffffffffffffffffffffffff19166020820180517bffffffffffffffffffffffffffffffffffffffffffffffffffffffff8381831617835250505050611e02565b50565b60007f01ffc9a7000000000000000000000000000000000000000000000000000000007bffffffffffffffffffffffffffffffffffffffffffffffffffffffff1916827bffffffffffffffffffffffffffffffffffffffffffffffffffffffff1916149050919050565b61143f81611e2b565b61147e576040517f08c379a000000000000000000000000000000000000000000000000000000000815260040161147590612fef565b60405180910390fd5b50565b600033905090565b816004600083815260200190815260200160002060006101000a81548173ffffffffffffffffffffffffffffffffffffffff021916908373ffffffffffffffffffffffffffffffffffffffff160217905550808273ffffffffffffffffffffffffffffffffffffffff166114fc83610a01565b73ffffffffffffffffffffffffffffffffffffffff167f8c5be1e5ebec7d5bd14f71427d1e84f3dd0314c0f7b2291e5b200ac8c7c3b92560405160405180910390a45050565b60008061154e83610a01565b90508073ffffffffffffffffffffffffffffffffffffffff168473ffffffffffffffffffffffffffffffffffffffff161480611590575061158f818561114e565b5b806115ce57508373ffffffffffffffffffffffffffffffffffffffff166115b684610694565b73ffffffffffffffffffffffffffffffffffffffff16145b91505092915050565b8273ffffffffffffffffffffffffffffffffffffffff166115f782610a01565b73ffffffffffffffffffffffffffffffffffffffff161461164d576040517f08c379a0000000000000000000000000000000000000000000000000000000008152600401611644906133f1565b60405180910390fd5b600073ffffffffffffffffffffffffffffffffffffffff168273ffffffffffffffffffffffffffffffffffffffff16036116bc576040517f08c379a00000000000000000000000000000000000000000000000000000000081526004016116b390613483565b60405180910390fd5b6116c98383836001611e6c565b8273ffffffffffffffffffffffffffffffffffffffff166116e982610a01565b73ffffffffffffffffffffffffffffffffffffffff161461173f576040517f08c379a0000000000000000000000000000000000000000000000000000000008152600401611736906133f1565b60405180910390fd5b6004600082815260200190815260200160002060006101000a81549073ffffffffffffffffffffffffffffffffffffffff02191690556001600360008573ffffffffffffffffffffffffffffffffffffffff1673ffffffffffffffffffffffffffffffffffffffff168152602001908152602001600020600082825403925050819055506001600360008473ffffffffffffffffffffffffffffffffffffffff1673ffffffffffffffffffffffffffffffffffffffff16815260200190815260200160002060008282540192505081905550816002600083815260200190815260200160002060006101000a81548173ffffffffffffffffffffffffffffffffffffffff021916908373ffffffffffffffffffffffffffffffffffffffff160217905550808273ffffffffffffffffffffffffffffffffffffffff168473ffffffffffffffffffffffffffffffffffffffff167fddf252ad1be2c89b69c2b068fc378daa952ba7f163c4a11628f55a4df523b3ef60405160405180910390a46118cb8383836001611e72565b505050565b60006002600083815260200190815260200160002060009054906101000a900473ffffffffffffffffffffffffffffffffffffffff169050919050565b8173ffffffffffffffffffffffffffffffffffffffff168373ffffffffffffffffffffffffffffffffffffffff160361197b576040517f08c379a0000000000000000000000000000000000000000000000000000000008152600401611972906134ef565b60405180910390fd5b80600560008573ffffffffffffffffffffffffffffffffffffffff1673ffffffffffffffffffffffffffffffffffffffff16815260200190815260200160002060008473ffffffffffffffffffffffffffffffffffffffff1673ffffffffffffffffffffffffffffffffffffffff16815260200190815260200160002060006101000a81548160ff0219169083151502179055508173ffffffffffffffffffffffffffffffffffffffff168373ffffffffffffffffffffffffffffffffffffffff167f17307eab39ab6107e8899845ad3d59bd9653f200f220920489ca2b5937696c3183604051611a6c91906122f7565b60405180910390a3505050565b600081600001549050919050565b600073ffffffffffffffffffffffffffffffffffffffff168273ffffffffffffffffffffffffffffffffffffffff1603611af6576040517f08c379a0000000000000000000000000000000000000000000000000000000008152600401611aed9061355b565b60405180910390fd5b611aff81611e2b565b15611b3f576040517f08c379a0000000000000000000000000000000000000000000000000000000008152600401611b36906135c7565b60405180910390fd5b611b4d600083836001611e6c565b611b5681611e2b565b15611b96576040517f08c379a0000000000000000000000000000000000000000000000000000000008152600401611b8d906135c7565b60405180910390fd5b6001600360008473ffffffffffffffffffffffffffffffffffffffff1673ffffffffffffffffffffffffffffffffffffffff16815260200190815260200160002060008282540192505081905550816002600083815260200190815260200160002060006101000a81548173ffffffffffffffffffffffffffffffffffffffff021916908373ffffffffffffffffffffffffffffffffffffffff160217905550808273ffffffffffffffffffffffffffffffffffffffff16600073ffffffffffffffffffffffffffffffffffffffff167fddf252ad1be2c89b69c2b068fc378daa952ba7f163c4a11628f55a4df523b3ef60405160405180910390a4611ca0600083836001611e72565b5050565b611cad82611e2b565b611cec576040517f08c379a0000000000000000000000000000000000000000000000000000000008152600401611ce390613659565b60405180910390fd5b80600660008481526020019081526020016000209081611d0c919061324d565b505050565b6001816000016000828254019250508190555050565b611d328484846115d7565b611d3e84848484611e78565b611d7d576040517f08c379a0000000000000000000000000000000000000000000000000000000008152600401611d74906136eb565b60405180910390fd5b50505050565b606060405180602001604052806000815250905090565b6060611da582611436565b6000611daf611d83565b90506000815111611dcf5760405180602001604052806000815250611dfa565b80611dd984611fff565b604051602001611dea92919061335b565b6040516020818303038152906040525b915050919050565b60008151905060006a636f6e736f6c652e6c6f679050602083016000808483855afa5050505050565b60008073ffffffffffffffffffffffffffffffffffffffff16611e4d836118d0565b73ffffffffffffffffffffffffffffffffffffffff1614159050919050565b50505050565b50505050565b6000611e998473ffffffffffffffffffffffffffffffffffffffff166120cd565b15611ff2578373ffffffffffffffffffffffffffffffffffffffff1663150b7a02611ec2611481565b8786866040518563ffffffff1660e01b8152600401611ee49493929190613760565b6020604051808303816000875af1925050508015611f2057506040513d601f19601f82011682018060405250810190611f1d91906137c1565b60015b611fa2573d8060008114611f50576040519150601f19603f3d011682016040523d82523d6000602084013e611f55565b606091505b506000815103611f9a576040517f08c379a0000000000000000000000000000000000000000000000000000000008152600401611f91906136eb565b60405180910390fd5b805181602001fd5b63150b7a0260e01b7bffffffffffffffffffffffffffffffffffffffffffffffffffffffff1916817bffffffffffffffffffffffffffffffffffffffffffffffffffffffff191614915050611ff7565b600190505b949350505050565b60606000600161200e846120f0565b01905060008167ffffffffffffffff81111561202d5761202c612427565b5b6040519080825280601f01601f19166020018201604052801561205f5781602001600182028036833780820191505090505b509050600082602001820190505b6001156120c2578080600190039150507f3031323334353637383961626364656600000000000000000000000000000000600a86061a8153600a85816120b6576120b56137ee565b5b0494506000850361206d575b819350505050919050565b6000808273ffffffffffffffffffffffffffffffffffffffff163b119050919050565b600080600090507a184f03e93ff9f4daa797ed6e38ed64bf6a1f010000000000000000831061214e577a184f03e93ff9f4daa797ed6e38ed64bf6a1f0100000000000000008381612144576121436137ee565b5b0492506040810190505b6d04ee2d6d415b85acef8100000000831061218b576d04ee2d6d415b85acef81000000008381612181576121806137ee565b5b0492506020810190505b662386f26fc1000083106121ba57662386f26fc1000083816121b0576121af6137ee565b5b0492506010810190505b6305f5e10083106121e3576305f5e10083816121d9576121d86137ee565b5b0492506008810190505b61271083106122085761271083816121fe576121fd6137ee565b5b0492506004810190505b6064831061222b5760648381612221576122206137ee565b5b0492506002810190505b600a831061223a576001810190505b80915050919050565b6000604051905090565b600080fd5b600080fd5b60007fffffffff0000000000000000000000000000000000000000000000000000000082169050919050565b61228c81612257565b811461229757600080fd5b50565b6000813590506122a981612283565b92915050565b6000602082840312156122c5576122c461224d565b5b60006122d38482850161229a565b91505092915050565b60008115159050919050565b6122f1816122dc565b82525050565b600060208201905061230c60008301846122e8565b92915050565b600081519050919050565b600082825260208201905092915050565b60005b8381101561234c578082015181840152602081019050612331565b60008484015250505050565b6000601f19601f8301169050919050565b600061237482612312565b61237e818561231d565b935061238e81856020860161232e565b61239781612358565b840191505092915050565b600060208201905081810360008301526123bc8184612369565b905092915050565b600073ffffffffffffffffffffffffffffffffffffffff82169050919050565b60006123ef826123c4565b9050919050565b6123ff816123e4565b811461240a57600080fd5b50565b60008135905061241c816123f6565b92915050565b600080fd5b7f4e487b7100000000000000000000000000000000000000000000000000000000600052604160045260246000fd5b61245f82612358565b810181811067ffffffffffffffff8211171561247e5761247d612427565b5b80604052505050565b6000612491612243565b905061249d8282612456565b919050565b600067ffffffffffffffff8211156124bd576124bc612427565b5b602082029050602081019050919050565b600080fd5b600080fd5b600067ffffffffffffffff8211156124f3576124f2612427565b5b6124fc82612358565b9050602081019050919050565b82818337600083830152505050565b600061252b612526846124d8565b612487565b905082815260208101848484011115612547576125466124d3565b5b612552848285612509565b509392505050565b600082601f83011261256f5761256e612422565b5b813561257f848260208601612518565b91505092915050565b600061259b612596846124a2565b612487565b905080838252602082019050602084028301858111156125be576125bd6124ce565b5b835b8181101561260557803567ffffffffffffffff8111156125e3576125e2612422565b5b8086016125f0898261255a565b855260208501945050506020810190506125c0565b5050509392505050565b600082601f83011261262457612623612422565b5b8135612634848260208601612588565b91505092915050565b600080604083850312156126545761265361224d565b5b60006126628582860161240d565b925050602083013567ffffffffffffffff81111561268357612682612252565b5b61268f8582860161260f565b9150509250929050565b600081519050919050565b600082825260208201905092915050565b6000819050602082019050919050565b6000819050919050565b6126d8816126c5565b82525050565b60006126ea83836126cf565b60208301905092915050565b6000602082019050919050565b600061270e82612699565b61271881856126a4565b9350612723836126b5565b8060005b8381101561275457815161273b88826126de565b9750612746836126f6565b925050600181019050612727565b5085935050505092915050565b6000602082019050818103600083015261277b8184612703565b905092915050565b61278c816126c5565b811461279757600080fd5b50565b6000813590506127a981612783565b92915050565b6000602082840312156127c5576127c461224d565b5b60006127d38482850161279a565b91505092915050565b6127e5816123e4565b82525050565b600060208201905061280060008301846127dc565b92915050565b6000806040838503121561281d5761281c61224d565b5b600061282b8582860161240d565b925050602061283c8582860161279a565b9150509250929050565b60008060006060848603121561285f5761285e61224d565b5b600061286d8682870161240d565b935050602061287e8682870161240d565b925050604061288f8682870161279a565b9150509250925092565b6000602082840312156128af576128ae61224d565b5b60006128bd8482850161240d565b91505092915050565b600081519050919050565b600082825260208201905092915050565b6000819050602082019050919050565b6128fb816123e4565b82525050565b600082825260208201905092915050565b600061291d82612312565b6129278185612901565b935061293781856020860161232e565b61294081612358565b840191505092915050565b600060608301600083015161296360008601826128f2565b506020830151848203602086015261297b8282612912565b915050604083015161299060408601826126cf565b508091505092915050565b60006129a7838361294b565b905092915050565b6000602082019050919050565b60006129c7826128c6565b6129d181856128d1565b9350836020820285016129e3856128e2565b8060005b85811015612a1f5784840389528151612a00858261299b565b9450612a0b836129af565b925060208a019950506001810190506129e7565b50829750879550505050505092915050565b60006020820190508181036000830152612a4b81846129bc565b905092915050565b612a5c816126c5565b82525050565b6000602082019050612a776000830184612a53565b92915050565b6000606082019050612a9260008301866127dc565b8181036020830152612aa48185612369565b9050612ab36040830184612a53565b949350505050565b612ac4816122dc565b8114612acf57600080fd5b50565b600081359050612ae181612abb565b92915050565b60008060408385031215612afe57612afd61224d565b5b6000612b0c8582860161240d565b9250506020612b1d85828601612ad2565b9150509250929050565b60008060408385031215612b3e57612b3d61224d565b5b6000612b4c8582860161240d565b925050602083013567ffffffffffffffff811115612b6d57612b6c612252565b5b612b798582860161255a565b9150509250929050565b600067ffffffffffffffff821115612b9e57612b9d612427565b5b612ba782612358565b9050602081019050919050565b6000612bc7612bc284612b83565b612487565b905082815260208101848484011115612be357612be26124d3565b5b612bee848285612509565b509392505050565b600082601f830112612c0b57612c0a612422565b5b8135612c1b848260208601612bb4565b91505092915050565b60008060008060808587031215612c3e57612c3d61224d565b5b6000612c4c8782880161240d565b9450506020612c5d8782880161240d565b9350506040612c6e8782880161279a565b925050606085013567ffffffffffffffff811115612c8f57612c8e612252565b5b612c9b87828801612bf6565b91505092959194509250565b60008060408385031215612cbe57612cbd61224d565b5b6000612ccc8582860161240d565b9250506020612cdd8582860161240d565b9150509250929050565b7f4e487b7100000000000000000000000000000000000000000000000000000000600052602260045260246000fd5b60006002820490506001821680612d2e57607f821691505b602082108103612d4157612d40612ce7565b5b50919050565b7f4e487b7100000000000000000000000000000000000000000000000000000000600052603260045260246000fd5b7f4e487b7100000000000000000000000000000000000000000000000000000000600052601160045260246000fd5b6000612db0826126c5565b91507fffffffffffffffffffffffffffffffffffffffffffffffffffffffffffffffff8203612de257612de1612d76565b5b600182019050919050565b7f4552433732313a20617070726f76616c20746f2063757272656e74206f776e6560008201527f7200000000000000000000000000000000000000000000000000000000000000602082015250565b6000612e4960218361231d565b9150612e5482612ded565b604082019050919050565b60006020820190508181036000830152612e7881612e3c565b9050919050565b7f4552433732313a20617070726f76652063616c6c6572206973206e6f7420746f60008201527f6b656e206f776e6572206f7220617070726f76656420666f7220616c6c000000602082015250565b6000612edb603d8361231d565b9150612ee682612e7f565b604082019050919050565b60006020820190508181036000830152612f0a81612ece565b9050919050565b7f4552433732313a2063616c6c6572206973206e6f7420746f6b656e206f776e6560008201527f72206f7220617070726f76656400000000000000000000000000000000000000602082015250565b6000612f6d602d8361231d565b9150612f7882612f11565b604082019050919050565b60006020820190508181036000830152612f9c81612f60565b9050919050565b7f4552433732313a20696e76616c696420746f6b656e2049440000000000000000600082015250565b6000612fd960188361231d565b9150612fe482612fa3565b602082019050919050565b6000602082019050818103600083015261300881612fcc565b9050919050565b7f4552433732313a2061646472657373207a65726f206973206e6f74206120766160008201527f6c6964206f776e65720000000000000000000000000000000000000000000000602082015250565b600061306b60298361231d565b91506130768261300f565b604082019050919050565b6000602082019050818103600083015261309a8161305e565b9050919050565b60008190508160005260206000209050919050565b60006020601f8301049050919050565b600082821b905092915050565b6000600883026131037fffffffffffffffffffffffffffffffffffffffffffffffffffffffffffffffff826130c6565b61310d86836130c6565b95508019841693508086168417925050509392505050565b6000819050919050565b600061314a613145613140846126c5565b613125565b6126c5565b9050919050565b6000819050919050565b6131648361312f565b61317861317082613151565b8484546130d3565b825550505050565b600090565b61318d613180565b61319881848461315b565b505050565b5b818110156131bc576131b1600082613185565b60018101905061319e565b5050565b601f821115613201576131d2816130a1565b6131db846130b6565b810160208510156131ea578190505b6131fe6131f6856130b6565b83018261319d565b50505b505050565b600082821c905092915050565b600061322460001984600802613206565b1980831691505092915050565b600061323d8383613213565b9150826002028217905092915050565b61325682612312565b67ffffffffffffffff81111561326f5761326e612427565b5b6132798254612d16565b6132848282856131c0565b600060209050601f8311600181146132b757600084156132a5578287015190505b6132af8582613231565b865550613317565b601f1984166132c5866130a1565b60005b828110156132ed578489015182556001820191506020850194506020810190506132c8565b8683101561330a5784890151613306601f891682613213565b8355505b6001600288020188555050505b505050505050565b600081905092915050565b600061333582612312565b61333f818561331f565b935061334f81856020860161232e565b80840191505092915050565b6000613367828561332a565b9150613373828461332a565b91508190509392505050565b7f4552433732313a207472616e736665722066726f6d20696e636f72726563742060008201527f6f776e6572000000000000000000000000000000000000000000000000000000602082015250565b60006133db60258361231d565b91506133e68261337f565b604082019050919050565b6000602082019050818103600083015261340a816133ce565b9050919050565b7f4552433732313a207472616e7366657220746f20746865207a65726f2061646460008201527f7265737300000000000000000000000000000000000000000000000000000000602082015250565b600061346d60248361231d565b915061347882613411565b604082019050919050565b6000602082019050818103600083015261349c81613460565b9050919050565b7f4552433732313a20617070726f766520746f2063616c6c657200000000000000600082015250565b60006134d960198361231d565b91506134e4826134a3565b602082019050919050565b60006020820190508181036000830152613508816134cc565b9050919050565b7f4552433732313a206d696e7420746f20746865207a65726f2061646472657373600082015250565b600061354560208361231d565b91506135508261350f565b602082019050919050565b6000602082019050818103600083015261357481613538565b9050919050565b7f4552433732313a20746f6b656e20616c7265616479206d696e74656400000000600082015250565b60006135b1601c8361231d565b91506135bc8261357b565b602082019050919050565b600060208201905081810360008301526135e0816135a4565b9050919050565b7f45524337323155524953746f726167653a2055524920736574206f66206e6f6e60008201527f6578697374656e7420746f6b656e000000000000000000000000000000000000602082015250565b6000613643602e8361231d565b915061364e826135e7565b604082019050919050565b6000602082019050818103600083015261367281613636565b9050919050565b7f4552433732313a207472616e7366657220746f206e6f6e20455243373231526560008201527f63656976657220696d706c656d656e7465720000000000000000000000000000602082015250565b60006136d560328361231d565b91506136e082613679565b604082019050919050565b60006020820190508181036000830152613704816136c8565b9050919050565b600081519050919050565b600082825260208201905092915050565b60006137328261370b565b61373c8185613716565b935061374c81856020860161232e565b61375581612358565b840191505092915050565b600060808201905061377560008301876127dc565b61378260208301866127dc565b61378f6040830185612a53565b81810360608301526137a18184613727565b905095945050505050565b6000815190506137bb81612283565b92915050565b6000602082840312156137d7576137d661224d565b5b60006137e5848285016137ac565b91505092915050565b7f4e487b7100000000000000000000000000000000000000000000000000000000600052601260045260246000fdfea2646970667358221220e4123e039a0fe6971db998c85f1a0142e541a0f0595181ea8a2f8657e80a77e864736f6c6343000811003348656c6c6f2046696c2d6465727321204e6f77206372656174696e672057617465726c696c7920465243373231204e465420636f6e747261637421",
  "linkReferences": {},
  "deployedLinkReferences": {}
}