{
  "_format": "hh-sol-artifact-1",
  "contractName": "ArtistAttribution",
  "sourceName": "contracts/ArtistAttribution.sol",
  "abi": [
    {
      "inputs": [
        {
          "internalType": "address",
          "name": "_eventsContractAddress",
          "type": "address"
        },
        {
          "internalType": "uint256",
          "name": "_imageCost",
          "type": "uint256"
        },
        {
          "internalType": "uint256",
          "name": "_artistCommission",
          "type": "uint256"
        }
      ],
      "stateMutability": "nonpayable",
      "type": "constructor"
    },
    {
      "anonymous": false,
      "inputs": [
        {
          "components": [
            {
              "internalType": "uint256",
              "name": "id",
              "type": "uint256"
            },
            {
              "internalType": "address",
              "name": "customer",
              "type": "address"
            },
            {
              "internalType": "string",
              "name": "artist",
              "type": "string"
            },
            {
              "internalType": "string",
              "name": "prompt",
              "type": "string"
            },
            {
              "internalType": "string",
              "name": "ipfsResult",
              "type": "string"
            },
            {
              "internalType": "string",
              "name": "errorMessage",
              "type": "string"
            },
            {
              "internalType": "bool",
              "name": "isComplete",
              "type": "bool"
            },
            {
              "internalType": "bool",
              "name": "isCancelled",
              "type": "bool"
            }
          ],
          "indexed": false,
          "internalType": "struct ArtistAttribution.StableDiffusionImage",
          "name": "image",
          "type": "tuple"
        }
      ],
      "name": "ImageCancelled",
      "type": "event"
    },
    {
      "anonymous": false,
      "inputs": [
        {
          "components": [
            {
              "internalType": "uint256",
              "name": "id",
              "type": "uint256"
            },
            {
              "internalType": "address",
              "name": "customer",
              "type": "address"
            },
            {
              "internalType": "string",
              "name": "artist",
              "type": "string"
            },
            {
              "internalType": "string",
              "name": "prompt",
              "type": "string"
            },
            {
              "internalType": "string",
              "name": "ipfsResult",
              "type": "string"
            },
            {
              "internalType": "string",
              "name": "errorMessage",
              "type": "string"
            },
            {
              "internalType": "bool",
              "name": "isComplete",
              "type": "bool"
            },
            {
              "internalType": "bool",
              "name": "isCancelled",
              "type": "bool"
            }
          ],
          "indexed": false,
          "internalType": "struct ArtistAttribution.StableDiffusionImage",
          "name": "image",
          "type": "tuple"
        }
      ],
      "name": "ImageGenerated",
      "type": "event"
    },
    {
      "anonymous": false,
      "inputs": [
        {
          "indexed": true,
          "internalType": "address",
          "name": "previousOwner",
          "type": "address"
        },
        {
          "indexed": true,
          "internalType": "address",
          "name": "newOwner",
          "type": "address"
        }
      ],
      "name": "OwnershipTransferred",
      "type": "event"
    },
    {
      "inputs": [
        {
          "internalType": "string",
          "name": "_artistID",
          "type": "string"
        },
        {
          "internalType": "string",
          "name": "_prompt",
          "type": "string"
        }
      ],
      "name": "StableDiffusion",
      "outputs": [],
      "stateMutability": "payable",
      "type": "function"
    },
    {
      "inputs": [
        {
          "internalType": "address payable",
          "name": "to",
          "type": "address"
        }
      ],
      "name": "adminWithdraw",
      "outputs": [],
      "stateMutability": "payable",
      "type": "function"
    },
    {
      "inputs": [],
      "name": "artistCommission",
      "outputs": [
        {
          "internalType": "uint256",
          "name": "",
          "type": "uint256"
        }
      ],
      "stateMutability": "view",
      "type": "function"
    },
    {
      "inputs": [],
      "name": "artistWithdraw",
      "outputs": [],
      "stateMutability": "payable",
      "type": "function"
    },
    {
      "inputs": [],
      "name": "bridge",
      "outputs": [
        {
          "internalType": "contract LilypadEvents",
          "name": "",
          "type": "address"
        }
      ],
      "stateMutability": "view",
      "type": "function"
    },
    {
      "inputs": [],
      "name": "computeProviderEscrow",
      "outputs": [
        {
          "internalType": "uint256",
          "name": "",
          "type": "uint256"
        }
      ],
      "stateMutability": "view",
      "type": "function"
    },
    {
      "inputs": [],
      "name": "computeProviderRevenue",
      "outputs": [
        {
          "internalType": "uint256",
          "name": "",
          "type": "uint256"
        }
      ],
      "stateMutability": "view",
      "type": "function"
    },
    {
      "inputs": [
        {
          "internalType": "string",
          "name": "id",
          "type": "string"
        }
      ],
      "name": "deleteArtist",
      "outputs": [],
      "stateMutability": "nonpayable",
      "type": "function"
    },
    {
      "inputs": [
        {
          "internalType": "string",
          "name": "id",
          "type": "string"
        }
      ],
      "name": "getArtist",
      "outputs": [
        {
          "components": [
            {
              "internalType": "string",
              "name": "id",
              "type": "string"
            },
            {
              "internalType": "address",
              "name": "wallet",
              "type": "address"
            },
            {
              "internalType": "string",
              "name": "metadata",
              "type": "string"
            },
            {
              "internalType": "uint256",
              "name": "escrow",
              "type": "uint256"
            },
            {
              "internalType": "uint256",
              "name": "revenue",
              "type": "uint256"
            },
            {
              "internalType": "uint256",
              "name": "numJobsRun",
              "type": "uint256"
            }
          ],
          "internalType": "struct ArtistAttribution.Artist",
          "name": "",
          "type": "tuple"
        }
      ],
      "stateMutability": "view",
      "type": "function"
    },
    {
      "inputs": [],
      "name": "getArtistCommission",
      "outputs": [
        {
          "internalType": "uint256",
          "name": "",
          "type": "uint256"
        }
      ],
      "stateMutability": "view",
      "type": "function"
    },
    {
      "inputs": [],
      "name": "getArtistIDs",
      "outputs": [
        {
          "internalType": "string[]",
          "name": "",
          "type": "string[]"
        }
      ],
      "stateMutability": "view",
      "type": "function"
    },
    {
      "inputs": [
        {
          "internalType": "uint256",
          "name": "id",
          "type": "uint256"
        }
      ],
      "name": "getImage",
      "outputs": [
        {
          "components": [
            {
              "internalType": "uint256",
              "name": "id",
              "type": "uint256"
            },
            {
              "internalType": "address",
              "name": "customer",
              "type": "address"
            },
            {
              "internalType": "string",
              "name": "artist",
              "type": "string"
            },
            {
              "internalType": "string",
              "name": "prompt",
              "type": "string"
            },
            {
              "internalType": "string",
              "name": "ipfsResult",
              "type": "string"
            },
            {
              "internalType": "string",
              "name": "errorMessage",
              "type": "string"
            },
            {
              "internalType": "bool",
              "name": "isComplete",
              "type": "bool"
            },
            {
              "internalType": "bool",
              "name": "isCancelled",
              "type": "bool"
            }
          ],
          "internalType": "struct ArtistAttribution.StableDiffusionImage",
          "name": "",
          "type": "tuple"
        }
      ],
      "stateMutability": "view",
      "type": "function"
    },
    {
      "inputs": [],
      "name": "getImageCost",
      "outputs": [
        {
          "internalType": "uint256",
          "name": "",
          "type": "uint256"
        }
      ],
      "stateMutability": "view",
      "type": "function"
    },
    {
      "inputs": [],
      "name": "getImageIDs",
      "outputs": [
        {
          "internalType": "uint256[]",
          "name": "",
          "type": "uint256[]"
        }
      ],
      "stateMutability": "view",
      "type": "function"
    },
    {
      "inputs": [],
      "name": "imageCost",
      "outputs": [
        {
          "internalType": "uint256",
          "name": "",
          "type": "uint256"
        }
      ],
      "stateMutability": "view",
      "type": "function"
    },
    {
      "inputs": [
        {
          "internalType": "address",
          "name": "_from",
          "type": "address"
        },
        {
          "internalType": "uint256",
          "name": "_jobId",
          "type": "uint256"
        },
        {
          "internalType": "string",
          "name": "_errorMsg",
          "type": "string"
        }
      ],
      "name": "lilypadCancelled",
      "outputs": [],
      "stateMutability": "nonpayable",
      "type": "function"
    },
    {
      "inputs": [
        {
          "internalType": "address",
          "name": "_from",
          "type": "address"
        },
        {
          "internalType": "uint256",
          "name": "_jobId",
          "type": "uint256"
        },
        {
          "internalType": "enum LilypadResultType",
          "name": "_resultType",
          "type": "uint8"
        },
        {
          "internalType": "string",
          "name": "_result",
          "type": "string"
        }
      ],
      "name": "lilypadFulfilled",
      "outputs": [],
      "stateMutability": "nonpayable",
      "type": "function"
    },
    {
      "inputs": [],
      "name": "owner",
      "outputs": [
        {
          "internalType": "address",
          "name": "",
          "type": "address"
        }
      ],
      "stateMutability": "view",
      "type": "function"
    },
    {
      "inputs": [],
      "name": "renounceOwnership",
      "outputs": [],
      "stateMutability": "nonpayable",
      "type": "function"
    },
    {
      "inputs": [
        {
          "internalType": "address",
          "name": "newOwner",
          "type": "address"
        }
      ],
      "name": "transferOwnership",
      "outputs": [],
      "stateMutability": "nonpayable",
      "type": "function"
    },
    {
      "inputs": [
        {
          "internalType": "string",
          "name": "id",
          "type": "string"
        },
        {
          "internalType": "address",
          "name": "wallet",
          "type": "address"
        },
        {
          "internalType": "string",
          "name": "metadata",
          "type": "string"
        }
      ],
      "name": "updateArtist",
      "outputs": [],
      "stateMutability": "nonpayable",
      "type": "function"
    },
    {
      "inputs": [
        {
          "internalType": "uint256",
          "name": "_imageCost",
          "type": "uint256"
        },
        {
          "internalType": "uint256",
          "name": "_artistCommission",
          "type": "uint256"
        }
      ],
      "name": "updateCost",
      "outputs": [],
      "stateMutability": "nonpayable",
      "type": "function"
    }
  ],
  "bytecode": "0x60806040523480156200001157600080fd5b5060405162004329380380620043298339818101604052810190620000379190620002a5565b620000576200004b620000b360201b60201c565b620000bb60201b60201c565b6200006982826200017f60201b60201c565b82600160006101000a81548173ffffffffffffffffffffffffffffffffffffffff021916908373ffffffffffffffffffffffffffffffffffffffff160217905550505050620003aa565b600033905090565b60008060009054906101000a900473ffffffffffffffffffffffffffffffffffffffff169050816000806101000a81548173ffffffffffffffffffffffffffffffffffffffff021916908373ffffffffffffffffffffffffffffffffffffffff1602179055508173ffffffffffffffffffffffffffffffffffffffff168173ffffffffffffffffffffffffffffffffffffffff167f8be0079c531659141344cd1fd0a4f28419497f9722a3daafe3b4186f6b6457e060405160405180910390a35050565b81811115620001c5576040517f08c379a0000000000000000000000000000000000000000000000000000000008152600401620001bc9062000388565b60405180910390fd5b60008203620001da5767024150e39800400091505b60008103620001ee5766737693eb33400090505b81600481905550806005819055505050565b600080fd5b600073ffffffffffffffffffffffffffffffffffffffff82169050919050565b6000620002328262000205565b9050919050565b620002448162000225565b81146200025057600080fd5b50565b600081519050620002648162000239565b92915050565b6000819050919050565b6200027f816200026a565b81146200028b57600080fd5b50565b6000815190506200029f8162000274565b92915050565b600080600060608486031215620002c157620002c062000200565b5b6000620002d18682870162000253565b9350506020620002e4868287016200028e565b9250506040620002f7868287016200028e565b9150509250925092565b600082825260208201905092915050565b7f61727469737420636f6d6d697373696f6e206d757374206265206c657373207460008201527f68616e206f7220657175616c20746f20696d61676520636f7374000000000000602082015250565b600062000370603a8362000301565b91506200037d8262000312565b604082019050919050565b60006020820190508181036000830152620003a38162000361565b9050919050565b613f6f80620003ba6000396000f3fe6080604052600436106101355760003560e01c8063a6e99471116100ab578063e156ecf71161006f578063e156ecf7146103c0578063e6b73d69146103dc578063e78cea9214610407578063ec32d94214610432578063f2fde38b1461045d578063feadcdeb1461048657610135565b8063a6e9947114610310578063c37913321461033b578063d415380e14610364578063d5040d651461038d578063d8c76606146103b657610135565b8063715018a6116100fd578063715018a61461021f5780638da5cb5b14610236578063983586b114610261578063a2498ab31461028c578063a28835b6146102c9578063a5f8e131146102e557610135565b8063072792b11461013a5780632607aafa146101655780633487823e146101a257806335314461146101cb57806353f4fa83146101f4575b600080fd5b34801561014657600080fd5b5061014f6104b1565b60405161015c919061237d565b60405180910390f35b34801561017157600080fd5b5061018c600480360381019061018791906123ce565b6104bb565b60405161019991906125bb565b60405180910390f35b3480156101ae57600080fd5b506101c960048036038101906101c4919061266e565b6107c7565b005b3480156101d757600080fd5b506101f260048036038101906101ed91906126e2565b610a11565b005b34801561020057600080fd5b50610209610a27565b60405161021691906127d1565b60405180910390f35b34801561022b57600080fd5b50610234610a7f565b005b34801561024257600080fd5b5061024b610a93565b6040516102589190612802565b60405180910390f35b34801561026d57600080fd5b50610276610abc565b604051610283919061237d565b60405180910390f35b34801561029857600080fd5b506102b360048036038101906102ae919061281d565b610ac2565b6040516102c091906128fa565b60405180910390f35b6102e360048036038101906102de919061295a565b610c95565b005b3480156102f157600080fd5b506102fa610cf7565b604051610307919061237d565b60405180910390f35b34801561031c57600080fd5b50610325610d01565b604051610332919061237d565b60405180910390f35b34801561034757600080fd5b50610362600480360381019061035d9190612987565b610d07565b005b34801561037057600080fd5b5061038b6004803603810190610386919061281d565b610fa3565b005b34801561039957600080fd5b506103b460048036038101906103af9190612a41565b6112a3565b005b6103be6115cb565b005b6103da60048036038101906103d59190612ac9565b6117d5565b005b3480156103e857600080fd5b506103f1611ce7565b6040516103fe919061237d565b60405180910390f35b34801561041357600080fd5b5061041c611ced565b6040516104299190612ba9565b60405180910390f35b34801561043e57600080fd5b50610447611d13565b6040516104549190612c86565b60405180910390f35b34801561046957600080fd5b50610484600480360381019061047f9190612ca8565b611dec565b005b34801561049257600080fd5b5061049b611e6f565b6040516104a8919061237d565b60405180910390f35b6000600554905090565b6104c361225c565b6006600083815260200190815260200160002060405180610100016040529081600082015481526020016001820160009054906101000a900473ffffffffffffffffffffffffffffffffffffffff1673ffffffffffffffffffffffffffffffffffffffff1673ffffffffffffffffffffffffffffffffffffffff16815260200160028201805461055290612d04565b80601f016020809104026020016040519081016040528092919081815260200182805461057e90612d04565b80156105cb5780601f106105a0576101008083540402835291602001916105cb565b820191906000526020600020905b8154815290600101906020018083116105ae57829003601f168201915b505050505081526020016003820180546105e490612d04565b80601f016020809104026020016040519081016040528092919081815260200182805461061090612d04565b801561065d5780601f106106325761010080835404028352916020019161065d565b820191906000526020600020905b81548152906001019060200180831161064057829003601f168201915b5050505050815260200160048201805461067690612d04565b80601f01602080910402602001604051908101604052809291908181526020018280546106a290612d04565b80156106ef5780601f106106c4576101008083540402835291602001916106ef565b820191906000526020600020905b8154815290600101906020018083116106d257829003601f168201915b5050505050815260200160058201805461070890612d04565b80601f016020809104026020016040519081016040528092919081815260200182805461073490612d04565b80156107815780601f1061075657610100808354040283529160200191610781565b820191906000526020600020905b81548152906001019060200180831161076457829003601f168201915b505050505081526020016006820160009054906101000a900460ff161515151581526020016006820160019054906101000a900460ff1615151515815250509050919050565b600160009054906101000a900473ffffffffffffffffffffffffffffffffffffffff1673ffffffffffffffffffffffffffffffffffffffff168473ffffffffffffffffffffffffffffffffffffffff161461082157600080fd5b6000600660008581526020019081526020016000209050600081600001541161087f576040517f08c379a000000000000000000000000000000000000000000000000000000000815260040161087690612d92565b60405180910390fd5b600015158160060160009054906101000a900460ff161515146108d7576040517f08c379a00000000000000000000000000000000000000000000000000000000081526004016108ce90612dfe565b60405180910390fd5b600015158160060160019054906101000a900460ff1615151461092f576040517f08c379a000000000000000000000000000000000000000000000000000000000815260040161092690612e6a565b60405180910390fd5b60018160060160016101000a81548160ff021916908315150217905550828282600501918261095f929190613066565b5060008160010160009054906101000a900473ffffffffffffffffffffffffffffffffffffffff1690508073ffffffffffffffffffffffffffffffffffffffff166108fc6004549081150290604051600060405180830381858888f193505050501580156109d1573d6000803e3d6000fd5b507fc33d7af141f1c5d8de8bb9961e0dcd4f378c1f0e4eee5856b51514fad582852882604051610a01919061335b565b60405180910390a1505050505050565b610a19611e75565b610a238282611ef3565b5050565b60606007805480602002602001604051908101604052809291908181526020018280548015610a7557602002820191906000526020600020905b815481526020019060010190808311610a61575b5050505050905090565b610a87611e75565b610a916000611f6f565b565b60008060009054906101000a900473ffffffffffffffffffffffffffffffffffffffff16905090565b60055481565b610aca6122bb565b60088383604051610adc9291906133bc565b90815260200160405180910390206040518060c0016040529081600082018054610b0590612d04565b80601f0160208091040260200160405190810160405280929190818152602001828054610b3190612d04565b8015610b7e5780601f10610b5357610100808354040283529160200191610b7e565b820191906000526020600020905b815481529060010190602001808311610b6157829003601f168201915b505050505081526020016001820160009054906101000a900473ffffffffffffffffffffffffffffffffffffffff1673ffffffffffffffffffffffffffffffffffffffff1673ffffffffffffffffffffffffffffffffffffffff168152602001600282018054610bed90612d04565b80601f0160208091040260200160405190810160405280929190818152602001828054610c1990612d04565b8015610c665780601f10610c3b57610100808354040283529160200191610c66565b820191906000526020600020905b815481529060010190602001808311610c4957829003601f168201915b505050505081526020016003820154815260200160048201548152602001600582015481525050905092915050565b610c9d611e75565b6000600254905060006002819055508173ffffffffffffffffffffffffffffffffffffffff166108fc829081150290604051600060405180830381858888f19350505050158015610cf2573d6000803e3d6000fd5b505050565b6000600454905090565b60045481565b610d0f611e75565b60008585905011610d55576040517f08c379a0000000000000000000000000000000000000000000000000000000008152600401610d4c90613421565b60405180910390fd5b600060088686604051610d699291906133bc565b90815260200160405180910390206000018054610d8590612d04565b905003610dcb57600a858590918060018154018082558091505060019003906000526020600020016000909192909192909192909192509182610dc9929190613066565b505b6040518060c0016040528086868080601f016020809104026020016040519081016040528093929190818152602001838380828437600081840152601f19601f8201169050808301925050505050505081526020018473ffffffffffffffffffffffffffffffffffffffff16815260200183838080601f016020809104026020016040519081016040528093929190818152602001838380828437600081840152601f19601f8201169050808301925050505050505081526020016000815260200160008152602001600081525060088686604051610eab9291906133bc565b90815260200160405180910390206000820151816000019081610ece9190613441565b5060208201518160010160006101000a81548173ffffffffffffffffffffffffffffffffffffffff021916908373ffffffffffffffffffffffffffffffffffffffff1602179055506040820151816002019081610f2b9190613441565b50606082015181600301556080820151816004015560a082015181600501559050508484600960008673ffffffffffffffffffffffffffffffffffffffff1673ffffffffffffffffffffffffffffffffffffffff1681526020019081526020016000209182610f9b929190613066565b505050505050565b610fab611e75565b600060088383604051610fbf9291906133bc565b90815260200160405180910390206000018054610fdb90612d04565b90501161101d576040517f08c379a00000000000000000000000000000000000000000000000000000000081526004016110149061355f565b60405180910390fd5b6000600883836040516110319291906133bc565b908152602001604051809103902090506000816003015414611088576040517f08c379a000000000000000000000000000000000000000000000000000000000815260040161107f906135f1565b60405180910390fd5b600960008260010160009054906101000a900473ffffffffffffffffffffffffffffffffffffffff1673ffffffffffffffffffffffffffffffffffffffff1673ffffffffffffffffffffffffffffffffffffffff16815260200190815260200160002060006110f79190612307565b600883836040516111099291906133bc565b9081526020016040518091039020600080820160006111289190612307565b6001820160006101000a81549073ffffffffffffffffffffffffffffffffffffffff021916905560028201600061115f9190612307565b600382016000905560048201600090556005820160009055505060005b600a8054905081101561129d57838360405160200161119c9291906133bc565b60405160208183030381529060405280519060200120600a82815481106111c6576111c5613611565b5b906000526020600020016040516020016111e091906136c3565b604051602081830303815290604052805190602001200361128a57600a6001600a8054905061120f9190613709565b815481106112205761121f613611565b5b90600052602060002001600a828154811061123e5761123d613611565b5b9060005260206000200190816112549190613768565b50600a80548061126757611266613850565b5b6001900381819060005260206000200160006112839190612307565b905561129d565b80806112959061387f565b91505061117c565b50505050565b600160009054906101000a900473ffffffffffffffffffffffffffffffffffffffff1673ffffffffffffffffffffffffffffffffffffffff168573ffffffffffffffffffffffffffffffffffffffff16146112fd57600080fd5b60006003811115611311576113106138c7565b5b836003811115611324576113236138c7565b5b1461132e57600080fd5b6000600660008681526020019081526020016000209050600081600001541161138c576040517f08c379a000000000000000000000000000000000000000000000000000000000815260040161138390612d92565b60405180910390fd5b600015158160060160009054906101000a900460ff161515146113e4576040517f08c379a00000000000000000000000000000000000000000000000000000000081526004016113db90612dfe565b60405180910390fd5b600015158160060160019054906101000a900460ff1615151461143c576040517f08c379a000000000000000000000000000000000000000000000000000000000815260040161143390612e6a565b60405180910390fd5b600060088260020160405161145191906136c3565b90815260200160405180910390209050600081600001805461147290612d04565b9050116114b4576040517f08c379a00000000000000000000000000000000000000000000000000000000081526004016114ab9061355f565b60405180910390fd5b83838360040191826114c7929190613066565b5060018260060160006101000a81548160ff0219169083151502179055506005548160030160008282546114fb91906138f6565b9250508190555060055481600401600082825461151891906138f6565b92505081905550600181600501600082825461153491906138f6565b9250508190555060055460045461154b9190613709565b6002600082825461155c91906138f6565b925050819055506005546004546115739190613709565b6003600082825461158491906138f6565b925050819055507f84a70d8000b8b36bd87f29f22b5399429e5f81a3ef3b1ee0414035bc9e2235c7826040516115ba919061335b565b60405180910390a150505050505050565b6000600960003373ffffffffffffffffffffffffffffffffffffffff1673ffffffffffffffffffffffffffffffffffffffff168152602001908152602001600020805461161790612d04565b80601f016020809104026020016040519081016040528092919081815260200182805461164390612d04565b80156116905780601f1061166557610100808354040283529160200191611690565b820191906000526020600020905b81548152906001019060200180831161167357829003601f168201915b5050505050905060006008826040516116a9919061395b565b908152602001604051809103902060000180546116c590612d04565b905011611707576040517f08c379a00000000000000000000000000000000000000000000000000000000081526004016116fe9061355f565b60405180910390fd5b6000600882604051611719919061395b565b908152602001604051809103902090506000816003015411611770576040517f08c379a0000000000000000000000000000000000000000000000000000000008152600401611767906139e4565b60405180910390fd5b6000816003015490506000826003018190555060003390508073ffffffffffffffffffffffffffffffffffffffff166108fc839081150290604051600060405180830381858888f193505050501580156117ce573d6000803e3d6000fd5b5050505050565b6000600885856040516117e99291906133bc565b9081526020016040518091039020600001805461180590612d04565b905011611847576040517f08c379a000000000000000000000000000000000000000000000000000000000815260040161183e9061355f565b60405180910390fd5b60045434101561188c576040517f08c379a000000000000000000000000000000000000000000000000000000000815260040161188390613a76565b60405180910390fd5b6000600160009054906101000a900473ffffffffffffffffffffffffffffffffffffffff1673ffffffffffffffffffffffffffffffffffffffff1663055da1dd6040518163ffffffff1660e01b8152600401602060405180830381865afa1580156118fb573d6000803e3d6000fd5b505050506040513d601f19601f8201168201806040525081019061191f9190613aab565b9050600060018261193091906138f6565b905060008484888861194186612033565b604051602001611955959493929190613bbc565b60405160208183030381529060405290506000600160009054906101000a900473ffffffffffffffffffffffffffffffffffffffff1673ffffffffffffffffffffffffffffffffffffffff1663d992cac8308460006040518463ffffffff1660e01b81526004016119c893929190613caa565b6020604051808303816000875af11580156119e7573d6000803e3d6000fd5b505050506040513d601f19601f82011682018060405250810190611a0b9190613aab565b9050828114611a4f576040517f08c379a0000000000000000000000000000000000000000000000000000000008152600401611a4690613d5a565b60405180910390fd5b6040518061010001604052808281526020013373ffffffffffffffffffffffffffffffffffffffff16815260200189898080601f016020809104026020016040519081016040528093929190818152602001838380828437600081840152601f19601f82011690508083019250505050505050815260200187878080601f016020809104026020016040519081016040528093929190818152602001838380828437600081840152601f19601f82011690508083019250505050505050815260200160405180602001604052806000815250815260200160405180602001604052806000815250815260200160001515815260200160001515815250600660008381526020019081526020016000206000820151816000015560208201518160010160006101000a81548173ffffffffffffffffffffffffffffffffffffffff021916908373ffffffffffffffffffffffffffffffffffffffff1602179055506040820151816002019081611bc49190613441565b506060820151816003019081611bda9190613441565b506080820151816004019081611bf09190613441565b5060a0820151816005019081611c069190613441565b5060c08201518160060160006101000a81548160ff02191690831515021790555060e08201518160060160016101000a81548160ff0219169083151502179055509050506007819080600181540180825580915050600190039060005260206000200160009091909190915055600060045434611c839190613709565b90506000811115611cdc5760003390508073ffffffffffffffffffffffffffffffffffffffff166108fc839081150290604051600060405180830381858888f19350505050158015611cd9573d6000803e3d6000fd5b50505b505050505050505050565b60035481565b600160009054906101000a900473ffffffffffffffffffffffffffffffffffffffff1681565b6060600a805480602002602001604051908101604052809291908181526020016000905b82821015611de3578382906000526020600020018054611d5690612d04565b80601f0160208091040260200160405190810160405280929190818152602001828054611d8290612d04565b8015611dcf5780601f10611da457610100808354040283529160200191611dcf565b820191906000526020600020905b815481529060010190602001808311611db257829003601f168201915b505050505081526020019060010190611d37565b50505050905090565b611df4611e75565b600073ffffffffffffffffffffffffffffffffffffffff168173ffffffffffffffffffffffffffffffffffffffff1603611e63576040517f08c379a0000000000000000000000000000000000000000000000000000000008152600401611e5a90613dec565b60405180910390fd5b611e6c81611f6f565b50565b60025481565b611e7d612101565b73ffffffffffffffffffffffffffffffffffffffff16611e9b610a93565b73ffffffffffffffffffffffffffffffffffffffff1614611ef1576040517f08c379a0000000000000000000000000000000000000000000000000000000008152600401611ee890613e58565b60405180910390fd5b565b81811115611f36576040517f08c379a0000000000000000000000000000000000000000000000000000000008152600401611f2d90613eea565b60405180910390fd5b60008203611f4a5767024150e39800400091505b60008103611f5d5766737693eb33400090505b81600481905550806005819055505050565b60008060009054906101000a900473ffffffffffffffffffffffffffffffffffffffff169050816000806101000a81548173ffffffffffffffffffffffffffffffffffffffff021916908373ffffffffffffffffffffffffffffffffffffffff1602179055508173ffffffffffffffffffffffffffffffffffffffff168173ffffffffffffffffffffffffffffffffffffffff167f8be0079c531659141344cd1fd0a4f28419497f9722a3daafe3b4186f6b6457e060405160405180910390a35050565b60606000600161204284612109565b01905060008167ffffffffffffffff81111561206157612060612e95565b5b6040519080825280601f01601f1916602001820160405280156120935781602001600182028036833780820191505090505b509050600082602001820190505b6001156120f6578080600190039150507f3031323334353637383961626364656600000000000000000000000000000000600a86061a8153600a85816120ea576120e9613f0a565b5b049450600085036120a1575b819350505050919050565b600033905090565b600080600090507a184f03e93ff9f4daa797ed6e38ed64bf6a1f0100000000000000008310612167577a184f03e93ff9f4daa797ed6e38ed64bf6a1f010000000000000000838161215d5761215c613f0a565b5b0492506040810190505b6d04ee2d6d415b85acef810000000083106121a4576d04ee2d6d415b85acef8100000000838161219a57612199613f0a565b5b0492506020810190505b662386f26fc1000083106121d357662386f26fc1000083816121c9576121c8613f0a565b5b0492506010810190505b6305f5e10083106121fc576305f5e10083816121f2576121f1613f0a565b5b0492506008810190505b612710831061222157612710838161221757612216613f0a565b5b0492506004810190505b60648310612244576064838161223a57612239613f0a565b5b0492506002810190505b600a8310612253576001810190505b80915050919050565b60405180610100016040528060008152602001600073ffffffffffffffffffffffffffffffffffffffff168152602001606081526020016060815260200160608152602001606081526020016000151581526020016000151581525090565b6040518060c0016040528060608152602001600073ffffffffffffffffffffffffffffffffffffffff168152602001606081526020016000815260200160008152602001600081525090565b50805461231390612d04565b6000825580601f106123255750612344565b601f0160209004906000526020600020908101906123439190612347565b5b50565b5b80821115612360576000816000905550600101612348565b5090565b6000819050919050565b61237781612364565b82525050565b6000602082019050612392600083018461236e565b92915050565b600080fd5b600080fd5b6123ab81612364565b81146123b657600080fd5b50565b6000813590506123c8816123a2565b92915050565b6000602082840312156123e4576123e3612398565b5b60006123f2848285016123b9565b91505092915050565b61240481612364565b82525050565b600073ffffffffffffffffffffffffffffffffffffffff82169050919050565b60006124358261240a565b9050919050565b6124458161242a565b82525050565b600081519050919050565b600082825260208201905092915050565b60005b8381101561248557808201518184015260208101905061246a565b60008484015250505050565b6000601f19601f8301169050919050565b60006124ad8261244b565b6124b78185612456565b93506124c7818560208601612467565b6124d081612491565b840191505092915050565b60008115159050919050565b6124f0816124db565b82525050565b60006101008301600083015161250f60008601826123fb565b506020830151612522602086018261243c565b506040830151848203604086015261253a82826124a2565b9150506060830151848203606086015261255482826124a2565b9150506080830151848203608086015261256e82826124a2565b91505060a083015184820360a086015261258882826124a2565b91505060c083015161259d60c08601826124e7565b5060e08301516125b060e08601826124e7565b508091505092915050565b600060208201905081810360008301526125d581846124f6565b905092915050565b6125e68161242a565b81146125f157600080fd5b50565b600081359050612603816125dd565b92915050565b600080fd5b600080fd5b600080fd5b60008083601f84011261262e5761262d612609565b5b8235905067ffffffffffffffff81111561264b5761264a61260e565b5b60208301915083600182028301111561266757612666612613565b5b9250929050565b6000806000806060858703121561268857612687612398565b5b6000612696878288016125f4565b94505060206126a7878288016123b9565b935050604085013567ffffffffffffffff8111156126c8576126c761239d565b5b6126d487828801612618565b925092505092959194509250565b600080604083850312156126f9576126f8612398565b5b6000612707858286016123b9565b9250506020612718858286016123b9565b9150509250929050565b600081519050919050565b600082825260208201905092915050565b6000819050602082019050919050565b600061275a83836123fb565b60208301905092915050565b6000602082019050919050565b600061277e82612722565b612788818561272d565b93506127938361273e565b8060005b838110156127c45781516127ab888261274e565b97506127b683612766565b925050600181019050612797565b5085935050505092915050565b600060208201905081810360008301526127eb8184612773565b905092915050565b6127fc8161242a565b82525050565b600060208201905061281760008301846127f3565b92915050565b6000806020838503121561283457612833612398565b5b600083013567ffffffffffffffff8111156128525761285161239d565b5b61285e85828601612618565b92509250509250929050565b600060c083016000830151848203600086015261288782826124a2565b915050602083015161289c602086018261243c565b50604083015184820360408601526128b482826124a2565b91505060608301516128c960608601826123fb565b5060808301516128dc60808601826123fb565b5060a08301516128ef60a08601826123fb565b508091505092915050565b60006020820190508181036000830152612914818461286a565b905092915050565b60006129278261240a565b9050919050565b6129378161291c565b811461294257600080fd5b50565b6000813590506129548161292e565b92915050565b6000602082840312156129705761296f612398565b5b600061297e84828501612945565b91505092915050565b6000806000806000606086880312156129a3576129a2612398565b5b600086013567ffffffffffffffff8111156129c1576129c061239d565b5b6129cd88828901612618565b955095505060206129e0888289016125f4565b935050604086013567ffffffffffffffff811115612a0157612a0061239d565b5b612a0d88828901612618565b92509250509295509295909350565b60048110612a2957600080fd5b50565b600081359050612a3b81612a1c565b92915050565b600080600080600060808688031215612a5d57612a5c612398565b5b6000612a6b888289016125f4565b9550506020612a7c888289016123b9565b9450506040612a8d88828901612a2c565b935050606086013567ffffffffffffffff811115612aae57612aad61239d565b5b612aba88828901612618565b92509250509295509295909350565b60008060008060408587031215612ae357612ae2612398565b5b600085013567ffffffffffffffff811115612b0157612b0061239d565b5b612b0d87828801612618565b9450945050602085013567ffffffffffffffff811115612b3057612b2f61239d565b5b612b3c87828801612618565b925092505092959194509250565b6000819050919050565b6000612b6f612b6a612b658461240a565b612b4a565b61240a565b9050919050565b6000612b8182612b54565b9050919050565b6000612b9382612b76565b9050919050565b612ba381612b88565b82525050565b6000602082019050612bbe6000830184612b9a565b92915050565b600081519050919050565b600082825260208201905092915050565b6000819050602082019050919050565b6000612bfc83836124a2565b905092915050565b6000602082019050919050565b6000612c1c82612bc4565b612c268185612bcf565b935083602082028501612c3885612be0565b8060005b85811015612c745784840389528151612c558582612bf0565b9450612c6083612c04565b925060208a01995050600181019050612c3c565b50829750879550505050505092915050565b60006020820190508181036000830152612ca08184612c11565b905092915050565b600060208284031215612cbe57612cbd612398565b5b6000612ccc848285016125f4565b91505092915050565b7f4e487b7100000000000000000000000000000000000000000000000000000000600052602260045260246000fd5b60006002820490506001821680612d1c57607f821691505b602082108103612d2f57612d2e612cd5565b5b50919050565b600082825260208201905092915050565b7f696d61676520646f6573206e6f74206578697374000000000000000000000000600082015250565b6000612d7c601483612d35565b9150612d8782612d46565b602082019050919050565b60006020820190508181036000830152612dab81612d6f565b9050919050565b7f696d61676520616c726561647920636f6d706c65746500000000000000000000600082015250565b6000612de8601683612d35565b9150612df382612db2565b602082019050919050565b60006020820190508181036000830152612e1781612ddb565b9050919050565b7f696d616765207761732063616e63616c6c656400000000000000000000000000600082015250565b6000612e54601383612d35565b9150612e5f82612e1e565b602082019050919050565b60006020820190508181036000830152612e8381612e47565b9050919050565b600082905092915050565b7f4e487b7100000000000000000000000000000000000000000000000000000000600052604160045260246000fd5b60008190508160005260206000209050919050565b60006020601f8301049050919050565b600082821b905092915050565b600060088302612f267fffffffffffffffffffffffffffffffffffffffffffffffffffffffffffffffff82612ee9565b612f308683612ee9565b95508019841693508086168417925050509392505050565b6000612f63612f5e612f5984612364565b612b4a565b612364565b9050919050565b6000819050919050565b612f7d83612f48565b612f91612f8982612f6a565b848454612ef6565b825550505050565b600090565b612fa6612f99565b612fb1818484612f74565b505050565b5b81811015612fd557612fca600082612f9e565b600181019050612fb7565b5050565b601f82111561301a57612feb81612ec4565b612ff484612ed9565b81016020851015613003578190505b61301761300f85612ed9565b830182612fb6565b50505b505050565b600082821c905092915050565b600061303d6000198460080261301f565b1980831691505092915050565b6000613056838361302c565b9150826002028217905092915050565b6130708383612e8a565b67ffffffffffffffff81111561308957613088612e95565b5b6130938254612d04565b61309e828285612fd9565b6000601f8311600181146130cd57600084156130bb578287013590505b6130c5858261304a565b86555061312d565b601f1984166130db86612ec4565b60005b82811015613103578489013582556001820191506020850194506020810190506130de565b86831015613120578489013561311c601f89168261302c565b8355505b6001600288020188555050505b50505050505050565b60008160001c9050919050565b6000819050919050565b600061316061315b83613136565b613143565b9050919050565b600073ffffffffffffffffffffffffffffffffffffffff82169050919050565b600061319a61319583613136565b613167565b9050919050565b600081546131ae81612d04565b6131b88186612456565b945060018216600081146131d357600181146131e95761321c565b60ff19831686528115156020028601935061321c565b6131f285612ec4565b60005b83811015613214578154818901526001820191506020810190506131f5565b808801955050505b50505092915050565b600060ff82169050919050565b600061324561324083613136565b613225565b9050919050565b60008160081c9050919050565b600061326c6132678361324c565b613225565b9050919050565b60006101008301600080840154905061328b8161314d565b61329860008701826123fb565b50600184015490506132a981613187565b6132b6602087018261243c565b506002840185830360408701526132cd83826131a1565b9250506003840185830360608701526132e683826131a1565b9250506004840185830360808701526132ff83826131a1565b9250506005840185830360a087015261331883826131a1565b9250506006840154905061332b81613232565b61333860c08701826124e7565b5061334281613259565b61334f60e08701826124e7565b50819250505092915050565b600060208201905081810360008301526133758184613273565b905092915050565b600081905092915050565b82818337600083830152505050565b60006133a3838561337d565b93506133b0838584613388565b82840190509392505050565b60006133c9828486613397565b91508190509392505050565b7f706c656173652070726f7669646520616e206964000000000000000000000000600082015250565b600061340b601483612d35565b9150613416826133d5565b602082019050919050565b6000602082019050818103600083015261343a816133fe565b9050919050565b61344a8261244b565b67ffffffffffffffff81111561346357613462612e95565b5b61346d8254612d04565b613478828285612fd9565b600060209050601f8311600181146134ab5760008415613499578287015190505b6134a3858261304a565b86555061350b565b601f1984166134b986612ec4565b60005b828110156134e1578489015182556001820191506020850194506020810190506134bc565b868310156134fe57848901516134fa601f89168261302c565b8355505b6001600288020188555050505b505050505050565b7f61727469737420646f6573206e6f742065786973740000000000000000000000600082015250565b6000613549601583612d35565b915061355482613513565b602082019050919050565b600060208201905081810360008301526135788161353c565b9050919050565b7f706c65617365206861766520746865206172746973742077697468647261772060008201527f657363726f772066697273740000000000000000000000000000000000000000602082015250565b60006135db602c83612d35565b91506135e68261357f565b604082019050919050565b6000602082019050818103600083015261360a816135ce565b9050919050565b7f4e487b7100000000000000000000000000000000000000000000000000000000600052603260045260246000fd5b6000815461364d81612d04565b613657818661337d565b945060018216600081146136725760018114613687576136ba565b60ff19831686528115158202860193506136ba565b61369085612ec4565b60005b838110156136b257815481890152600182019150602081019050613693565b838801955050505b50505092915050565b60006136cf8284613640565b915081905092915050565b7f4e487b7100000000000000000000000000000000000000000000000000000000600052601160045260246000fd5b600061371482612364565b915061371f83612364565b9250828203905081811115613737576137366136da565b5b92915050565b60008154905061374c81612d04565b9050919050565b60008190508160005260206000209050919050565b81810361377657505061384e565b61377f8261373d565b67ffffffffffffffff81111561379857613797612e95565b5b6137a28254612d04565b6137ad828285612fd9565b6000601f8311600181146137dc57600084156137ca578287015490505b6137d4858261304a565b865550613847565b601f1984166137ea87613753565b96506137f586612ec4565b60005b8281101561381d578489015482556001820191506001850194506020810190506137f8565b8683101561383a5784890154613836601f89168261302c565b8355505b6001600288020188555050505b5050505050505b565b7f4e487b7100000000000000000000000000000000000000000000000000000000600052603160045260246000fd5b600061388a82612364565b91507fffffffffffffffffffffffffffffffffffffffffffffffffffffffffffffffff82036138bc576138bb6136da565b5b600182019050919050565b7f4e487b7100000000000000000000000000000000000000000000000000000000600052602160045260246000fd5b600061390182612364565b915061390c83612364565b9250828201905080821115613924576139236136da565b5b92915050565b60006139358261244b565b61393f818561337d565b935061394f818560208601612467565b80840191505092915050565b6000613967828461392a565b915081905092915050565b7f61727469737420646f6573206e6f74206861766520616e79206d6f6e6579207460008201527f6f20776974686472617700000000000000000000000000000000000000000000602082015250565b60006139ce602a83612d35565b91506139d982613972565b604082019050919050565b600060208201905081810360008301526139fd816139c1565b9050919050565b7f6e6f7420656e6f7567682046494c2073656e7420746f2070617920666f72206960008201527f6d61676500000000000000000000000000000000000000000000000000000000602082015250565b6000613a60602483612d35565b9150613a6b82613a04565b604082019050919050565b60006020820190508181036000830152613a8f81613a53565b9050919050565b600081519050613aa5816123a2565b92915050565b600060208284031215613ac157613ac0612398565b5b6000613acf84828501613a96565b91505092915050565b7f7b225f6c696c797061645f74656d706c617465223a202277617465726c696c7960008201527f222c202270726f6d7074223a2022000000000000000000000000000000000000602082015250565b6000613b34602e8361337d565b9150613b3f82613ad8565b602e82019050919050565b7f222c20226172746973746964223a202200000000000000000000000000000000815250565b7f222c2022696d6167656964223a20220000000000000000000000000000000000815250565b7f227d000000000000000000000000000000000000000000000000000000000000815250565b6000613bc782613b27565b9150613bd4828789613397565b9150613bdf82613b4a565b601082019150613bf0828587613397565b9150613bfb82613b70565b600f82019150613c0b828461392a565b9150613c1682613b96565b6002820191508190509695505050505050565b6000613c348261244b565b613c3e8185612d35565b9350613c4e818560208601612467565b613c5781612491565b840191505092915050565b60048110613c7357613c726138c7565b5b50565b6000819050613c8482613c62565b919050565b6000613c9482613c76565b9050919050565b613ca481613c89565b82525050565b6000606082019050613cbf60008301866127f3565b8181036020830152613cd18185613c29565b9050613ce06040830184613c9b565b949350505050565b7f776520656e646564207570207769746820646966666572656e7420696d61676560008201527f2069647300000000000000000000000000000000000000000000000000000000602082015250565b6000613d44602483612d35565b9150613d4f82613ce8565b604082019050919050565b60006020820190508181036000830152613d7381613d37565b9050919050565b7f4f776e61626c653a206e6577206f776e657220697320746865207a65726f206160008201527f6464726573730000000000000000000000000000000000000000000000000000602082015250565b6000613dd6602683612d35565b9150613de182613d7a565b604082019050919050565b60006020820190508181036000830152613e0581613dc9565b9050919050565b7f4f776e61626c653a2063616c6c6572206973206e6f7420746865206f776e6572600082015250565b6000613e42602083612d35565b9150613e4d82613e0c565b602082019050919050565b60006020820190508181036000830152613e7181613e35565b9050919050565b7f61727469737420636f6d6d697373696f6e206d757374206265206c657373207460008201527f68616e206f7220657175616c20746f20696d61676520636f7374000000000000602082015250565b6000613ed4603a83612d35565b9150613edf82613e78565b604082019050919050565b60006020820190508181036000830152613f0381613ec7565b9050919050565b7f4e487b7100000000000000000000000000000000000000000000000000000000600052601260045260246000fdfea26469706673582212208ce3e0785526ca572459dda6bd24b4c3691198122f8c4272770210bd56e81bc164736f6c63430008110033",
  "linkReferences": {},
  "deployedLinkReferences": {}
}