{
  "_format": "hh-sol-artifact-1",
  "contractName": "ArtistAttribution",
  "sourceName": "contracts/ArtistAttribution.sol",
  "abi": [
    {
      "inputs": [
        {
          "internalType": "address",
          "name": "_eventsContractAddress",
          "type": "address"
        },
        {
          "internalType": "uint256",
          "name": "_imageCost",
          "type": "uint256"
        },
        {
          "internalType": "uint256",
          "name": "_artistCommission",
          "type": "uint256"
        }
      ],
      "stateMutability": "nonpayable",
      "type": "constructor"
    },
    {
      "anonymous": false,
      "inputs": [
        {
          "components": [
            {
              "internalType": "uint256",
              "name": "id",
              "type": "uint256"
            },
            {
              "internalType": "address",
              "name": "customer",
              "type": "address"
            },
            {
              "internalType": "string",
              "name": "artist",
              "type": "string"
            },
            {
              "internalType": "string",
              "name": "prompt",
              "type": "string"
            },
            {
              "internalType": "string",
              "name": "ipfsResult",
              "type": "string"
            },
            {
              "internalType": "string",
              "name": "errorMessage",
              "type": "string"
            },
            {
              "internalType": "bool",
              "name": "isComplete",
              "type": "bool"
            },
            {
              "internalType": "bool",
              "name": "isCancelled",
              "type": "bool"
            }
          ],
          "indexed": false,
          "internalType": "struct ArtistAttribution.StableDiffusionImage",
          "name": "image",
          "type": "tuple"
        }
      ],
      "name": "ImageCancelled",
      "type": "event"
    },
    {
      "anonymous": false,
      "inputs": [
        {
          "components": [
            {
              "internalType": "uint256",
              "name": "id",
              "type": "uint256"
            },
            {
              "internalType": "address",
              "name": "customer",
              "type": "address"
            },
            {
              "internalType": "string",
              "name": "artist",
              "type": "string"
            },
            {
              "internalType": "string",
              "name": "prompt",
              "type": "string"
            },
            {
              "internalType": "string",
              "name": "ipfsResult",
              "type": "string"
            },
            {
              "internalType": "string",
              "name": "errorMessage",
              "type": "string"
            },
            {
              "internalType": "bool",
              "name": "isComplete",
              "type": "bool"
            },
            {
              "internalType": "bool",
              "name": "isCancelled",
              "type": "bool"
            }
          ],
          "indexed": false,
          "internalType": "struct ArtistAttribution.StableDiffusionImage",
          "name": "image",
          "type": "tuple"
        }
      ],
      "name": "ImageGenerated",
      "type": "event"
    },
    {
      "anonymous": false,
      "inputs": [
        {
          "indexed": true,
          "internalType": "address",
          "name": "previousOwner",
          "type": "address"
        },
        {
          "indexed": true,
          "internalType": "address",
          "name": "newOwner",
          "type": "address"
        }
      ],
      "name": "OwnershipTransferred",
      "type": "event"
    },
    {
      "inputs": [
        {
          "internalType": "string",
          "name": "_artistID",
          "type": "string"
        },
        {
          "internalType": "string",
          "name": "_prompt",
          "type": "string"
        }
      ],
      "name": "StableDiffusion",
      "outputs": [],
      "stateMutability": "payable",
      "type": "function"
    },
    {
      "inputs": [
        {
          "internalType": "address payable",
          "name": "to",
          "type": "address"
        }
      ],
      "name": "adminWithdraw",
      "outputs": [],
      "stateMutability": "payable",
      "type": "function"
    },
    {
      "inputs": [],
      "name": "artistCommission",
      "outputs": [
        {
          "internalType": "uint256",
          "name": "",
          "type": "uint256"
        }
      ],
      "stateMutability": "view",
      "type": "function"
    },
    {
      "inputs": [],
      "name": "artistWithdraw",
      "outputs": [],
      "stateMutability": "payable",
      "type": "function"
    },
    {
      "inputs": [],
      "name": "bridge",
      "outputs": [
        {
          "internalType": "contract LilypadEvents",
          "name": "",
          "type": "address"
        }
      ],
      "stateMutability": "view",
      "type": "function"
    },
    {
      "inputs": [],
      "name": "computeProviderEscrow",
      "outputs": [
        {
          "internalType": "uint256",
          "name": "",
          "type": "uint256"
        }
      ],
      "stateMutability": "view",
      "type": "function"
    },
    {
      "inputs": [],
      "name": "computeProviderRevenue",
      "outputs": [
        {
          "internalType": "uint256",
          "name": "",
          "type": "uint256"
        }
      ],
      "stateMutability": "view",
      "type": "function"
    },
    {
      "inputs": [
        {
          "internalType": "string",
          "name": "id",
          "type": "string"
        }
      ],
      "name": "deleteArtist",
      "outputs": [],
      "stateMutability": "nonpayable",
      "type": "function"
    },
    {
      "inputs": [
        {
          "internalType": "string",
          "name": "id",
          "type": "string"
        }
      ],
      "name": "getArtist",
      "outputs": [
        {
          "components": [
            {
              "internalType": "string",
              "name": "id",
              "type": "string"
            },
            {
              "internalType": "address",
              "name": "wallet",
              "type": "address"
            },
            {
              "internalType": "string",
              "name": "metadata",
              "type": "string"
            },
            {
              "internalType": "uint256",
              "name": "escrow",
              "type": "uint256"
            },
            {
              "internalType": "uint256",
              "name": "revenue",
              "type": "uint256"
            },
            {
              "internalType": "uint256",
              "name": "numJobsRun",
              "type": "uint256"
            }
          ],
          "internalType": "struct ArtistAttribution.Artist",
          "name": "",
          "type": "tuple"
        }
      ],
      "stateMutability": "view",
      "type": "function"
    },
    {
      "inputs": [],
      "name": "getArtistCommission",
      "outputs": [
        {
          "internalType": "uint256",
          "name": "",
          "type": "uint256"
        }
      ],
      "stateMutability": "view",
      "type": "function"
    },
    {
      "inputs": [],
      "name": "getArtistIDs",
      "outputs": [
        {
          "internalType": "string[]",
          "name": "",
          "type": "string[]"
        }
      ],
      "stateMutability": "view",
      "type": "function"
    },
    {
      "inputs": [
        {
          "internalType": "address",
          "name": "customerAddress",
          "type": "address"
        }
      ],
      "name": "getCustomerImages",
      "outputs": [
        {
          "internalType": "uint256[]",
          "name": "",
          "type": "uint256[]"
        }
      ],
      "stateMutability": "view",
      "type": "function"
    },
    {
      "inputs": [
        {
          "internalType": "uint256",
          "name": "id",
          "type": "uint256"
        }
      ],
      "name": "getImage",
      "outputs": [
        {
          "components": [
            {
              "internalType": "uint256",
              "name": "id",
              "type": "uint256"
            },
            {
              "internalType": "address",
              "name": "customer",
              "type": "address"
            },
            {
              "internalType": "string",
              "name": "artist",
              "type": "string"
            },
            {
              "internalType": "string",
              "name": "prompt",
              "type": "string"
            },
            {
              "internalType": "string",
              "name": "ipfsResult",
              "type": "string"
            },
            {
              "internalType": "string",
              "name": "errorMessage",
              "type": "string"
            },
            {
              "internalType": "bool",
              "name": "isComplete",
              "type": "bool"
            },
            {
              "internalType": "bool",
              "name": "isCancelled",
              "type": "bool"
            }
          ],
          "internalType": "struct ArtistAttribution.StableDiffusionImage",
          "name": "",
          "type": "tuple"
        }
      ],
      "stateMutability": "view",
      "type": "function"
    },
    {
      "inputs": [],
      "name": "getImageCost",
      "outputs": [
        {
          "internalType": "uint256",
          "name": "",
          "type": "uint256"
        }
      ],
      "stateMutability": "view",
      "type": "function"
    },
    {
      "inputs": [],
      "name": "getImageIDs",
      "outputs": [
        {
          "internalType": "uint256[]",
          "name": "",
          "type": "uint256[]"
        }
      ],
      "stateMutability": "view",
      "type": "function"
    },
    {
      "inputs": [],
      "name": "imageCost",
      "outputs": [
        {
          "internalType": "uint256",
          "name": "",
          "type": "uint256"
        }
      ],
      "stateMutability": "view",
      "type": "function"
    },
    {
      "inputs": [
        {
          "internalType": "address",
          "name": "_from",
          "type": "address"
        },
        {
          "internalType": "uint256",
          "name": "_jobId",
          "type": "uint256"
        },
        {
          "internalType": "string",
          "name": "_errorMsg",
          "type": "string"
        }
      ],
      "name": "lilypadCancelled",
      "outputs": [],
      "stateMutability": "nonpayable",
      "type": "function"
    },
    {
      "inputs": [
        {
          "internalType": "address",
          "name": "_from",
          "type": "address"
        },
        {
          "internalType": "uint256",
          "name": "_jobId",
          "type": "uint256"
        },
        {
          "internalType": "enum LilypadResultType",
          "name": "_resultType",
          "type": "uint8"
        },
        {
          "internalType": "string",
          "name": "_result",
          "type": "string"
        }
      ],
      "name": "lilypadFulfilled",
      "outputs": [],
      "stateMutability": "nonpayable",
      "type": "function"
    },
    {
      "inputs": [],
      "name": "owner",
      "outputs": [
        {
          "internalType": "address",
          "name": "",
          "type": "address"
        }
      ],
      "stateMutability": "view",
      "type": "function"
    },
    {
      "inputs": [],
      "name": "renounceOwnership",
      "outputs": [],
      "stateMutability": "nonpayable",
      "type": "function"
    },
    {
      "inputs": [
        {
          "internalType": "address",
          "name": "newOwner",
          "type": "address"
        }
      ],
      "name": "transferOwnership",
      "outputs": [],
      "stateMutability": "nonpayable",
      "type": "function"
    },
    {
      "inputs": [
        {
          "internalType": "string",
          "name": "id",
          "type": "string"
        },
        {
          "internalType": "address",
          "name": "wallet",
          "type": "address"
        },
        {
          "internalType": "string",
          "name": "metadata",
          "type": "string"
        }
      ],
      "name": "updateArtist",
      "outputs": [],
      "stateMutability": "nonpayable",
      "type": "function"
    },
    {
      "inputs": [
        {
          "internalType": "uint256",
          "name": "_imageCost",
          "type": "uint256"
        },
        {
          "internalType": "uint256",
          "name": "_artistCommission",
          "type": "uint256"
        }
      ],
      "name": "updateCost",
      "outputs": [],
      "stateMutability": "nonpayable",
      "type": "function"
    }
  ],
  "bytecode": "0x60806040523480156200001157600080fd5b506040516200446e3803806200446e8339818101604052810190620000379190620002a5565b620000576200004b620000b360201b60201c565b620000bb60201b60201c565b6200006982826200017f60201b60201c565b82600160006101000a81548173ffffffffffffffffffffffffffffffffffffffff021916908373ffffffffffffffffffffffffffffffffffffffff160217905550505050620003aa565b600033905090565b60008060009054906101000a900473ffffffffffffffffffffffffffffffffffffffff169050816000806101000a81548173ffffffffffffffffffffffffffffffffffffffff021916908373ffffffffffffffffffffffffffffffffffffffff1602179055508173ffffffffffffffffffffffffffffffffffffffff168173ffffffffffffffffffffffffffffffffffffffff167f8be0079c531659141344cd1fd0a4f28419497f9722a3daafe3b4186f6b6457e060405160405180910390a35050565b81811115620001c5576040517f08c379a0000000000000000000000000000000000000000000000000000000008152600401620001bc9062000388565b60405180910390fd5b60008203620001da5767024150e39800400091505b60008103620001ee5766737693eb33400090505b81600481905550806005819055505050565b600080fd5b600073ffffffffffffffffffffffffffffffffffffffff82169050919050565b6000620002328262000205565b9050919050565b620002448162000225565b81146200025057600080fd5b50565b600081519050620002648162000239565b92915050565b6000819050919050565b6200027f816200026a565b81146200028b57600080fd5b50565b6000815190506200029f8162000274565b92915050565b600080600060608486031215620002c157620002c062000200565b5b6000620002d18682870162000253565b9350506020620002e4868287016200028e565b9250506040620002f7868287016200028e565b9150509250925092565b600082825260208201905092915050565b7f61727469737420636f6d6d697373696f6e206d757374206265206c657373207460008201527f68616e206f7220657175616c20746f20696d61676520636f7374000000000000602082015250565b600062000370603a8362000301565b91506200037d8262000312565b604082019050919050565b60006020820190508181036000830152620003a38162000361565b9050919050565b6140b480620003ba6000396000f3fe6080604052600436106101405760003560e01c8063a5f8e131116100b6578063e156ecf71161006f578063e156ecf714610408578063e6b73d6914610424578063e78cea921461044f578063ec32d9421461047a578063f2fde38b146104a5578063feadcdeb146104ce57610140565b8063a5f8e1311461032d578063a6e9947114610358578063c379133214610383578063d415380e146103ac578063d5040d65146103d5578063d8c76606146103fe57610140565b806355f210721161010857806355f210721461022a578063715018a6146102675780638da5cb5b1461027e578063983586b1146102a9578063a2498ab3146102d4578063a28835b61461031157610140565b8063072792b1146101455780632607aafa146101705780633487823e146101ad57806335314461146101d657806353f4fa83146101ff575b600080fd5b34801561015157600080fd5b5061015a6104f9565b60405161016791906124c2565b60405180910390f35b34801561017c57600080fd5b5061019760048036038101906101929190612513565b610503565b6040516101a49190612700565b60405180910390f35b3480156101b957600080fd5b506101d460048036038101906101cf91906127b3565b61080f565b005b3480156101e257600080fd5b506101fd60048036038101906101f89190612827565b610a59565b005b34801561020b57600080fd5b50610214610a6f565b6040516102219190612916565b60405180910390f35b34801561023657600080fd5b50610251600480360381019061024c9190612938565b610ac7565b60405161025e9190612916565b60405180910390f35b34801561027357600080fd5b5061027c610b5e565b005b34801561028a57600080fd5b50610293610b72565b6040516102a09190612974565b60405180910390f35b3480156102b557600080fd5b506102be610b9b565b6040516102cb91906124c2565b60405180910390f35b3480156102e057600080fd5b506102fb60048036038101906102f6919061298f565b610ba1565b6040516103089190612a6c565b60405180910390f35b61032b60048036038101906103269190612acc565b610d74565b005b34801561033957600080fd5b50610342610dd6565b60405161034f91906124c2565b60405180910390f35b34801561036457600080fd5b5061036d610de0565b60405161037a91906124c2565b60405180910390f35b34801561038f57600080fd5b506103aa60048036038101906103a59190612af9565b610de6565b005b3480156103b857600080fd5b506103d360048036038101906103ce919061298f565b611082565b005b3480156103e157600080fd5b506103fc60048036038101906103f79190612bb3565b611382565b005b6104066116aa565b005b610422600480360381019061041d9190612c3b565b6118b4565b005b34801561043057600080fd5b50610439611e2c565b60405161044691906124c2565b60405180910390f35b34801561045b57600080fd5b50610464611e32565b6040516104719190612d1b565b60405180910390f35b34801561048657600080fd5b5061048f611e58565b60405161049c9190612df8565b60405180910390f35b3480156104b157600080fd5b506104cc60048036038101906104c79190612938565b611f31565b005b3480156104da57600080fd5b506104e3611fb4565b6040516104f091906124c2565b60405180910390f35b6000600554905090565b61050b6123a1565b6006600083815260200190815260200160002060405180610100016040529081600082015481526020016001820160009054906101000a900473ffffffffffffffffffffffffffffffffffffffff1673ffffffffffffffffffffffffffffffffffffffff1673ffffffffffffffffffffffffffffffffffffffff16815260200160028201805461059a90612e49565b80601f01602080910402602001604051908101604052809291908181526020018280546105c690612e49565b80156106135780601f106105e857610100808354040283529160200191610613565b820191906000526020600020905b8154815290600101906020018083116105f657829003601f168201915b5050505050815260200160038201805461062c90612e49565b80601f016020809104026020016040519081016040528092919081815260200182805461065890612e49565b80156106a55780601f1061067a576101008083540402835291602001916106a5565b820191906000526020600020905b81548152906001019060200180831161068857829003601f168201915b505050505081526020016004820180546106be90612e49565b80601f01602080910402602001604051908101604052809291908181526020018280546106ea90612e49565b80156107375780601f1061070c57610100808354040283529160200191610737565b820191906000526020600020905b81548152906001019060200180831161071a57829003601f168201915b5050505050815260200160058201805461075090612e49565b80601f016020809104026020016040519081016040528092919081815260200182805461077c90612e49565b80156107c95780601f1061079e576101008083540402835291602001916107c9565b820191906000526020600020905b8154815290600101906020018083116107ac57829003601f168201915b505050505081526020016006820160009054906101000a900460ff161515151581526020016006820160019054906101000a900460ff1615151515815250509050919050565b600160009054906101000a900473ffffffffffffffffffffffffffffffffffffffff1673ffffffffffffffffffffffffffffffffffffffff168473ffffffffffffffffffffffffffffffffffffffff161461086957600080fd5b600060066000858152602001908152602001600020905060008160000154116108c7576040517f08c379a00000000000000000000000000000000000000000000000000000000081526004016108be90612ed7565b60405180910390fd5b600015158160060160009054906101000a900460ff1615151461091f576040517f08c379a000000000000000000000000000000000000000000000000000000000815260040161091690612f43565b60405180910390fd5b600015158160060160019054906101000a900460ff16151514610977576040517f08c379a000000000000000000000000000000000000000000000000000000000815260040161096e90612faf565b60405180910390fd5b60018160060160016101000a81548160ff02191690831515021790555082828260050191826109a79291906131ab565b5060008160010160009054906101000a900473ffffffffffffffffffffffffffffffffffffffff1690508073ffffffffffffffffffffffffffffffffffffffff166108fc6004549081150290604051600060405180830381858888f19350505050158015610a19573d6000803e3d6000fd5b507fc33d7af141f1c5d8de8bb9961e0dcd4f378c1f0e4eee5856b51514fad582852882604051610a4991906134a0565b60405180910390a1505050505050565b610a61611fba565b610a6b8282612038565b5050565b60606007805480602002602001604051908101604052809291908181526020018280548015610abd57602002820191906000526020600020905b815481526020019060010190808311610aa9575b5050505050905090565b6060600b60008373ffffffffffffffffffffffffffffffffffffffff1673ffffffffffffffffffffffffffffffffffffffff168152602001908152602001600020805480602002602001604051908101604052809291908181526020018280548015610b5257602002820191906000526020600020905b815481526020019060010190808311610b3e575b50505050509050919050565b610b66611fba565b610b7060006120b4565b565b60008060009054906101000a900473ffffffffffffffffffffffffffffffffffffffff16905090565b60055481565b610ba9612400565b60088383604051610bbb929190613501565b90815260200160405180910390206040518060c0016040529081600082018054610be490612e49565b80601f0160208091040260200160405190810160405280929190818152602001828054610c1090612e49565b8015610c5d5780601f10610c3257610100808354040283529160200191610c5d565b820191906000526020600020905b815481529060010190602001808311610c4057829003601f168201915b505050505081526020016001820160009054906101000a900473ffffffffffffffffffffffffffffffffffffffff1673ffffffffffffffffffffffffffffffffffffffff1673ffffffffffffffffffffffffffffffffffffffff168152602001600282018054610ccc90612e49565b80601f0160208091040260200160405190810160405280929190818152602001828054610cf890612e49565b8015610d455780601f10610d1a57610100808354040283529160200191610d45565b820191906000526020600020905b815481529060010190602001808311610d2857829003601f168201915b505050505081526020016003820154815260200160048201548152602001600582015481525050905092915050565b610d7c611fba565b6000600254905060006002819055508173ffffffffffffffffffffffffffffffffffffffff166108fc829081150290604051600060405180830381858888f19350505050158015610dd1573d6000803e3d6000fd5b505050565b6000600454905090565b60045481565b610dee611fba565b60008585905011610e34576040517f08c379a0000000000000000000000000000000000000000000000000000000008152600401610e2b90613566565b60405180910390fd5b600060088686604051610e48929190613501565b90815260200160405180910390206000018054610e6490612e49565b905003610eaa57600a858590918060018154018082558091505060019003906000526020600020016000909192909192909192909192509182610ea89291906131ab565b505b6040518060c0016040528086868080601f016020809104026020016040519081016040528093929190818152602001838380828437600081840152601f19601f8201169050808301925050505050505081526020018473ffffffffffffffffffffffffffffffffffffffff16815260200183838080601f016020809104026020016040519081016040528093929190818152602001838380828437600081840152601f19601f8201169050808301925050505050505081526020016000815260200160008152602001600081525060088686604051610f8a929190613501565b90815260200160405180910390206000820151816000019081610fad9190613586565b5060208201518160010160006101000a81548173ffffffffffffffffffffffffffffffffffffffff021916908373ffffffffffffffffffffffffffffffffffffffff160217905550604082015181600201908161100a9190613586565b50606082015181600301556080820151816004015560a082015181600501559050508484600960008673ffffffffffffffffffffffffffffffffffffffff1673ffffffffffffffffffffffffffffffffffffffff168152602001908152602001600020918261107a9291906131ab565b505050505050565b61108a611fba565b60006008838360405161109e929190613501565b908152602001604051809103902060000180546110ba90612e49565b9050116110fc576040517f08c379a00000000000000000000000000000000000000000000000000000000081526004016110f3906136a4565b60405180910390fd5b600060088383604051611110929190613501565b908152602001604051809103902090506000816003015414611167576040517f08c379a000000000000000000000000000000000000000000000000000000000815260040161115e90613736565b60405180910390fd5b600960008260010160009054906101000a900473ffffffffffffffffffffffffffffffffffffffff1673ffffffffffffffffffffffffffffffffffffffff1673ffffffffffffffffffffffffffffffffffffffff16815260200190815260200160002060006111d6919061244c565b600883836040516111e8929190613501565b908152602001604051809103902060008082016000611207919061244c565b6001820160006101000a81549073ffffffffffffffffffffffffffffffffffffffff021916905560028201600061123e919061244c565b600382016000905560048201600090556005820160009055505060005b600a8054905081101561137c57838360405160200161127b929190613501565b60405160208183030381529060405280519060200120600a82815481106112a5576112a4613756565b5b906000526020600020016040516020016112bf9190613808565b604051602081830303815290604052805190602001200361136957600a6001600a805490506112ee919061384e565b815481106112ff576112fe613756565b5b90600052602060002001600a828154811061131d5761131c613756565b5b90600052602060002001908161133391906138ad565b50600a80548061134657611345613995565b5b600190038181906000526020600020016000611362919061244c565b905561137c565b8080611374906139c4565b91505061125b565b50505050565b600160009054906101000a900473ffffffffffffffffffffffffffffffffffffffff1673ffffffffffffffffffffffffffffffffffffffff168573ffffffffffffffffffffffffffffffffffffffff16146113dc57600080fd5b600060038111156113f0576113ef613a0c565b5b83600381111561140357611402613a0c565b5b1461140d57600080fd5b6000600660008681526020019081526020016000209050600081600001541161146b576040517f08c379a000000000000000000000000000000000000000000000000000000000815260040161146290612ed7565b60405180910390fd5b600015158160060160009054906101000a900460ff161515146114c3576040517f08c379a00000000000000000000000000000000000000000000000000000000081526004016114ba90612f43565b60405180910390fd5b600015158160060160019054906101000a900460ff1615151461151b576040517f08c379a000000000000000000000000000000000000000000000000000000000815260040161151290612faf565b60405180910390fd5b60006008826002016040516115309190613808565b90815260200160405180910390209050600081600001805461155190612e49565b905011611593576040517f08c379a000000000000000000000000000000000000000000000000000000000815260040161158a906136a4565b60405180910390fd5b83838360040191826115a69291906131ab565b5060018260060160006101000a81548160ff0219169083151502179055506005548160030160008282546115da9190613a3b565b925050819055506005548160040160008282546115f79190613a3b565b9250508190555060018160050160008282546116139190613a3b565b9250508190555060055460045461162a919061384e565b6002600082825461163b9190613a3b565b92505081905550600554600454611652919061384e565b600360008282546116639190613a3b565b925050819055507f84a70d8000b8b36bd87f29f22b5399429e5f81a3ef3b1ee0414035bc9e2235c78260405161169991906134a0565b60405180910390a150505050505050565b6000600960003373ffffffffffffffffffffffffffffffffffffffff1673ffffffffffffffffffffffffffffffffffffffff16815260200190815260200160002080546116f690612e49565b80601f016020809104026020016040519081016040528092919081815260200182805461172290612e49565b801561176f5780601f106117445761010080835404028352916020019161176f565b820191906000526020600020905b81548152906001019060200180831161175257829003601f168201915b5050505050905060006008826040516117889190613aa0565b908152602001604051809103902060000180546117a490612e49565b9050116117e6576040517f08c379a00000000000000000000000000000000000000000000000000000000081526004016117dd906136a4565b60405180910390fd5b60006008826040516117f89190613aa0565b90815260200160405180910390209050600081600301541161184f576040517f08c379a000000000000000000000000000000000000000000000000000000000815260040161184690613b29565b60405180910390fd5b6000816003015490506000826003018190555060003390508073ffffffffffffffffffffffffffffffffffffffff166108fc839081150290604051600060405180830381858888f193505050501580156118ad573d6000803e3d6000fd5b5050505050565b6000600885856040516118c8929190613501565b908152602001604051809103902060000180546118e490612e49565b905011611926576040517f08c379a000000000000000000000000000000000000000000000000000000000815260040161191d906136a4565b60405180910390fd5b60045434101561196b576040517f08c379a000000000000000000000000000000000000000000000000000000000815260040161196290613bbb565b60405180910390fd5b6000600160009054906101000a900473ffffffffffffffffffffffffffffffffffffffff1673ffffffffffffffffffffffffffffffffffffffff1663055da1dd6040518163ffffffff1660e01b8152600401602060405180830381865afa1580156119da573d6000803e3d6000fd5b505050506040513d601f19601f820116820180604052508101906119fe9190613bf0565b90506000600182611a0f9190613a3b565b9050600084848888611a2086612178565b604051602001611a34959493929190613d01565b60405160208183030381529060405290506000600160009054906101000a900473ffffffffffffffffffffffffffffffffffffffff1673ffffffffffffffffffffffffffffffffffffffff1663d992cac8308460006040518463ffffffff1660e01b8152600401611aa793929190613def565b6020604051808303816000875af1158015611ac6573d6000803e3d6000fd5b505050506040513d601f19601f82011682018060405250810190611aea9190613bf0565b9050828114611b2e576040517f08c379a0000000000000000000000000000000000000000000000000000000008152600401611b2590613e9f565b60405180910390fd5b6040518061010001604052808281526020013373ffffffffffffffffffffffffffffffffffffffff16815260200189898080601f016020809104026020016040519081016040528093929190818152602001838380828437600081840152601f19601f82011690508083019250505050505050815260200187878080601f016020809104026020016040519081016040528093929190818152602001838380828437600081840152601f19601f82011690508083019250505050505050815260200160405180602001604052806000815250815260200160405180602001604052806000815250815260200160001515815260200160001515815250600660008381526020019081526020016000206000820151816000015560208201518160010160006101000a81548173ffffffffffffffffffffffffffffffffffffffff021916908373ffffffffffffffffffffffffffffffffffffffff1602179055506040820151816002019081611ca39190613586565b506060820151816003019081611cb99190613586565b506080820151816004019081611ccf9190613586565b5060a0820151816005019081611ce59190613586565b5060c08201518160060160006101000a81548160ff02191690831515021790555060e08201518160060160016101000a81548160ff0219169083151502179055509050506007819080600181540180825580915050600190039060005260206000200160009091909190915055600b60003373ffffffffffffffffffffffffffffffffffffffff1673ffffffffffffffffffffffffffffffffffffffff168152602001908152602001600020819080600181540180825580915050600190039060005260206000200160009091909190915055600060045434611dc8919061384e565b90506000811115611e215760003390508073ffffffffffffffffffffffffffffffffffffffff166108fc839081150290604051600060405180830381858888f19350505050158015611e1e573d6000803e3d6000fd5b50505b505050505050505050565b60035481565b600160009054906101000a900473ffffffffffffffffffffffffffffffffffffffff1681565b6060600a805480602002602001604051908101604052809291908181526020016000905b82821015611f28578382906000526020600020018054611e9b90612e49565b80601f0160208091040260200160405190810160405280929190818152602001828054611ec790612e49565b8015611f145780601f10611ee957610100808354040283529160200191611f14565b820191906000526020600020905b815481529060010190602001808311611ef757829003601f168201915b505050505081526020019060010190611e7c565b50505050905090565b611f39611fba565b600073ffffffffffffffffffffffffffffffffffffffff168173ffffffffffffffffffffffffffffffffffffffff1603611fa8576040517f08c379a0000000000000000000000000000000000000000000000000000000008152600401611f9f90613f31565b60405180910390fd5b611fb1816120b4565b50565b60025481565b611fc2612246565b73ffffffffffffffffffffffffffffffffffffffff16611fe0610b72565b73ffffffffffffffffffffffffffffffffffffffff1614612036576040517f08c379a000000000000000000000000000000000000000000000000000000000815260040161202d90613f9d565b60405180910390fd5b565b8181111561207b576040517f08c379a00000000000000000000000000000000000000000000000000000000081526004016120729061402f565b60405180910390fd5b6000820361208f5767024150e39800400091505b600081036120a25766737693eb33400090505b81600481905550806005819055505050565b60008060009054906101000a900473ffffffffffffffffffffffffffffffffffffffff169050816000806101000a81548173ffffffffffffffffffffffffffffffffffffffff021916908373ffffffffffffffffffffffffffffffffffffffff1602179055508173ffffffffffffffffffffffffffffffffffffffff168173ffffffffffffffffffffffffffffffffffffffff167f8be0079c531659141344cd1fd0a4f28419497f9722a3daafe3b4186f6b6457e060405160405180910390a35050565b6060600060016121878461224e565b01905060008167ffffffffffffffff8111156121a6576121a5612fda565b5b6040519080825280601f01601f1916602001820160405280156121d85781602001600182028036833780820191505090505b509050600082602001820190505b60011561223b578080600190039150507f3031323334353637383961626364656600000000000000000000000000000000600a86061a8153600a858161222f5761222e61404f565b5b049450600085036121e6575b819350505050919050565b600033905090565b600080600090507a184f03e93ff9f4daa797ed6e38ed64bf6a1f01000000000000000083106122ac577a184f03e93ff9f4daa797ed6e38ed64bf6a1f01000000000000000083816122a2576122a161404f565b5b0492506040810190505b6d04ee2d6d415b85acef810000000083106122e9576d04ee2d6d415b85acef810000000083816122df576122de61404f565b5b0492506020810190505b662386f26fc10000831061231857662386f26fc10000838161230e5761230d61404f565b5b0492506010810190505b6305f5e1008310612341576305f5e10083816123375761233661404f565b5b0492506008810190505b612710831061236657612710838161235c5761235b61404f565b5b0492506004810190505b60648310612389576064838161237f5761237e61404f565b5b0492506002810190505b600a8310612398576001810190505b80915050919050565b60405180610100016040528060008152602001600073ffffffffffffffffffffffffffffffffffffffff168152602001606081526020016060815260200160608152602001606081526020016000151581526020016000151581525090565b6040518060c0016040528060608152602001600073ffffffffffffffffffffffffffffffffffffffff168152602001606081526020016000815260200160008152602001600081525090565b50805461245890612e49565b6000825580601f1061246a5750612489565b601f016020900490600052602060002090810190612488919061248c565b5b50565b5b808211156124a557600081600090555060010161248d565b5090565b6000819050919050565b6124bc816124a9565b82525050565b60006020820190506124d760008301846124b3565b92915050565b600080fd5b600080fd5b6124f0816124a9565b81146124fb57600080fd5b50565b60008135905061250d816124e7565b92915050565b600060208284031215612529576125286124dd565b5b6000612537848285016124fe565b91505092915050565b612549816124a9565b82525050565b600073ffffffffffffffffffffffffffffffffffffffff82169050919050565b600061257a8261254f565b9050919050565b61258a8161256f565b82525050565b600081519050919050565b600082825260208201905092915050565b60005b838110156125ca5780820151818401526020810190506125af565b60008484015250505050565b6000601f19601f8301169050919050565b60006125f282612590565b6125fc818561259b565b935061260c8185602086016125ac565b612615816125d6565b840191505092915050565b60008115159050919050565b61263581612620565b82525050565b6000610100830160008301516126546000860182612540565b5060208301516126676020860182612581565b506040830151848203604086015261267f82826125e7565b9150506060830151848203606086015261269982826125e7565b915050608083015184820360808601526126b382826125e7565b91505060a083015184820360a08601526126cd82826125e7565b91505060c08301516126e260c086018261262c565b5060e08301516126f560e086018261262c565b508091505092915050565b6000602082019050818103600083015261271a818461263b565b905092915050565b61272b8161256f565b811461273657600080fd5b50565b60008135905061274881612722565b92915050565b600080fd5b600080fd5b600080fd5b60008083601f8401126127735761277261274e565b5b8235905067ffffffffffffffff8111156127905761278f612753565b5b6020830191508360018202830111156127ac576127ab612758565b5b9250929050565b600080600080606085870312156127cd576127cc6124dd565b5b60006127db87828801612739565b94505060206127ec878288016124fe565b935050604085013567ffffffffffffffff81111561280d5761280c6124e2565b5b6128198782880161275d565b925092505092959194509250565b6000806040838503121561283e5761283d6124dd565b5b600061284c858286016124fe565b925050602061285d858286016124fe565b9150509250929050565b600081519050919050565b600082825260208201905092915050565b6000819050602082019050919050565b600061289f8383612540565b60208301905092915050565b6000602082019050919050565b60006128c382612867565b6128cd8185612872565b93506128d883612883565b8060005b838110156129095781516128f08882612893565b97506128fb836128ab565b9250506001810190506128dc565b5085935050505092915050565b6000602082019050818103600083015261293081846128b8565b905092915050565b60006020828403121561294e5761294d6124dd565b5b600061295c84828501612739565b91505092915050565b61296e8161256f565b82525050565b60006020820190506129896000830184612965565b92915050565b600080602083850312156129a6576129a56124dd565b5b600083013567ffffffffffffffff8111156129c4576129c36124e2565b5b6129d08582860161275d565b92509250509250929050565b600060c08301600083015184820360008601526129f982826125e7565b9150506020830151612a0e6020860182612581565b5060408301518482036040860152612a2682826125e7565b9150506060830151612a3b6060860182612540565b506080830151612a4e6080860182612540565b5060a0830151612a6160a0860182612540565b508091505092915050565b60006020820190508181036000830152612a8681846129dc565b905092915050565b6000612a998261254f565b9050919050565b612aa981612a8e565b8114612ab457600080fd5b50565b600081359050612ac681612aa0565b92915050565b600060208284031215612ae257612ae16124dd565b5b6000612af084828501612ab7565b91505092915050565b600080600080600060608688031215612b1557612b146124dd565b5b600086013567ffffffffffffffff811115612b3357612b326124e2565b5b612b3f8882890161275d565b95509550506020612b5288828901612739565b935050604086013567ffffffffffffffff811115612b7357612b726124e2565b5b612b7f8882890161275d565b92509250509295509295909350565b60048110612b9b57600080fd5b50565b600081359050612bad81612b8e565b92915050565b600080600080600060808688031215612bcf57612bce6124dd565b5b6000612bdd88828901612739565b9550506020612bee888289016124fe565b9450506040612bff88828901612b9e565b935050606086013567ffffffffffffffff811115612c2057612c1f6124e2565b5b612c2c8882890161275d565b92509250509295509295909350565b60008060008060408587031215612c5557612c546124dd565b5b600085013567ffffffffffffffff811115612c7357612c726124e2565b5b612c7f8782880161275d565b9450945050602085013567ffffffffffffffff811115612ca257612ca16124e2565b5b612cae8782880161275d565b925092505092959194509250565b6000819050919050565b6000612ce1612cdc612cd78461254f565b612cbc565b61254f565b9050919050565b6000612cf382612cc6565b9050919050565b6000612d0582612ce8565b9050919050565b612d1581612cfa565b82525050565b6000602082019050612d306000830184612d0c565b92915050565b600081519050919050565b600082825260208201905092915050565b6000819050602082019050919050565b6000612d6e83836125e7565b905092915050565b6000602082019050919050565b6000612d8e82612d36565b612d988185612d41565b935083602082028501612daa85612d52565b8060005b85811015612de65784840389528151612dc78582612d62565b9450612dd283612d76565b925060208a01995050600181019050612dae565b50829750879550505050505092915050565b60006020820190508181036000830152612e128184612d83565b905092915050565b7f4e487b7100000000000000000000000000000000000000000000000000000000600052602260045260246000fd5b60006002820490506001821680612e6157607f821691505b602082108103612e7457612e73612e1a565b5b50919050565b600082825260208201905092915050565b7f696d61676520646f6573206e6f74206578697374000000000000000000000000600082015250565b6000612ec1601483612e7a565b9150612ecc82612e8b565b602082019050919050565b60006020820190508181036000830152612ef081612eb4565b9050919050565b7f696d61676520616c726561647920636f6d706c65746500000000000000000000600082015250565b6000612f2d601683612e7a565b9150612f3882612ef7565b602082019050919050565b60006020820190508181036000830152612f5c81612f20565b9050919050565b7f696d616765207761732063616e63616c6c656400000000000000000000000000600082015250565b6000612f99601383612e7a565b9150612fa482612f63565b602082019050919050565b60006020820190508181036000830152612fc881612f8c565b9050919050565b600082905092915050565b7f4e487b7100000000000000000000000000000000000000000000000000000000600052604160045260246000fd5b60008190508160005260206000209050919050565b60006020601f8301049050919050565b600082821b905092915050565b60006008830261306b7fffffffffffffffffffffffffffffffffffffffffffffffffffffffffffffffff8261302e565b613075868361302e565b95508019841693508086168417925050509392505050565b60006130a86130a361309e846124a9565b612cbc565b6124a9565b9050919050565b6000819050919050565b6130c28361308d565b6130d66130ce826130af565b84845461303b565b825550505050565b600090565b6130eb6130de565b6130f68184846130b9565b505050565b5b8181101561311a5761310f6000826130e3565b6001810190506130fc565b5050565b601f82111561315f5761313081613009565b6131398461301e565b81016020851015613148578190505b61315c6131548561301e565b8301826130fb565b50505b505050565b600082821c905092915050565b600061318260001984600802613164565b1980831691505092915050565b600061319b8383613171565b9150826002028217905092915050565b6131b58383612fcf565b67ffffffffffffffff8111156131ce576131cd612fda565b5b6131d88254612e49565b6131e382828561311e565b6000601f8311600181146132125760008415613200578287013590505b61320a858261318f565b865550613272565b601f19841661322086613009565b60005b8281101561324857848901358255600182019150602085019450602081019050613223565b868310156132655784890135613261601f891682613171565b8355505b6001600288020188555050505b50505050505050565b60008160001c9050919050565b6000819050919050565b60006132a56132a08361327b565b613288565b9050919050565b600073ffffffffffffffffffffffffffffffffffffffff82169050919050565b60006132df6132da8361327b565b6132ac565b9050919050565b600081546132f381612e49565b6132fd818661259b565b94506001821660008114613318576001811461332e57613361565b60ff198316865281151560200286019350613361565b61333785613009565b60005b838110156133595781548189015260018201915060208101905061333a565b808801955050505b50505092915050565b600060ff82169050919050565b600061338a6133858361327b565b61336a565b9050919050565b60008160081c9050919050565b60006133b16133ac83613391565b61336a565b9050919050565b6000610100830160008084015490506133d081613292565b6133dd6000870182612540565b50600184015490506133ee816132cc565b6133fb6020870182612581565b5060028401858303604087015261341283826132e6565b92505060038401858303606087015261342b83826132e6565b92505060048401858303608087015261344483826132e6565b9250506005840185830360a087015261345d83826132e6565b9250506006840154905061347081613377565b61347d60c087018261262c565b506134878161339e565b61349460e087018261262c565b50819250505092915050565b600060208201905081810360008301526134ba81846133b8565b905092915050565b600081905092915050565b82818337600083830152505050565b60006134e883856134c2565b93506134f58385846134cd565b82840190509392505050565b600061350e8284866134dc565b91508190509392505050565b7f706c656173652070726f7669646520616e206964000000000000000000000000600082015250565b6000613550601483612e7a565b915061355b8261351a565b602082019050919050565b6000602082019050818103600083015261357f81613543565b9050919050565b61358f82612590565b67ffffffffffffffff8111156135a8576135a7612fda565b5b6135b28254612e49565b6135bd82828561311e565b600060209050601f8311600181146135f057600084156135de578287015190505b6135e8858261318f565b865550613650565b601f1984166135fe86613009565b60005b8281101561362657848901518255600182019150602085019450602081019050613601565b86831015613643578489015161363f601f891682613171565b8355505b6001600288020188555050505b505050505050565b7f61727469737420646f6573206e6f742065786973740000000000000000000000600082015250565b600061368e601583612e7a565b915061369982613658565b602082019050919050565b600060208201905081810360008301526136bd81613681565b9050919050565b7f706c65617365206861766520746865206172746973742077697468647261772060008201527f657363726f772066697273740000000000000000000000000000000000000000602082015250565b6000613720602c83612e7a565b915061372b826136c4565b604082019050919050565b6000602082019050818103600083015261374f81613713565b9050919050565b7f4e487b7100000000000000000000000000000000000000000000000000000000600052603260045260246000fd5b6000815461379281612e49565b61379c81866134c2565b945060018216600081146137b757600181146137cc576137ff565b60ff19831686528115158202860193506137ff565b6137d585613009565b60005b838110156137f7578154818901526001820191506020810190506137d8565b838801955050505b50505092915050565b60006138148284613785565b915081905092915050565b7f4e487b7100000000000000000000000000000000000000000000000000000000600052601160045260246000fd5b6000613859826124a9565b9150613864836124a9565b925082820390508181111561387c5761387b61381f565b5b92915050565b60008154905061389181612e49565b9050919050565b60008190508160005260206000209050919050565b8181036138bb575050613993565b6138c482613882565b67ffffffffffffffff8111156138dd576138dc612fda565b5b6138e78254612e49565b6138f282828561311e565b6000601f831160018114613921576000841561390f578287015490505b613919858261318f565b86555061398c565b601f19841661392f87613898565b965061393a86613009565b60005b828110156139625784890154825560018201915060018501945060208101905061393d565b8683101561397f578489015461397b601f891682613171565b8355505b6001600288020188555050505b5050505050505b565b7f4e487b7100000000000000000000000000000000000000000000000000000000600052603160045260246000fd5b60006139cf826124a9565b91507fffffffffffffffffffffffffffffffffffffffffffffffffffffffffffffffff8203613a0157613a0061381f565b5b600182019050919050565b7f4e487b7100000000000000000000000000000000000000000000000000000000600052602160045260246000fd5b6000613a46826124a9565b9150613a51836124a9565b9250828201905080821115613a6957613a6861381f565b5b92915050565b6000613a7a82612590565b613a8481856134c2565b9350613a948185602086016125ac565b80840191505092915050565b6000613aac8284613a6f565b915081905092915050565b7f61727469737420646f6573206e6f74206861766520616e79206d6f6e6579207460008201527f6f20776974686472617700000000000000000000000000000000000000000000602082015250565b6000613b13602a83612e7a565b9150613b1e82613ab7565b604082019050919050565b60006020820190508181036000830152613b4281613b06565b9050919050565b7f6e6f7420656e6f7567682046494c2073656e7420746f2070617920666f72206960008201527f6d61676500000000000000000000000000000000000000000000000000000000602082015250565b6000613ba5602483612e7a565b9150613bb082613b49565b604082019050919050565b60006020820190508181036000830152613bd481613b98565b9050919050565b600081519050613bea816124e7565b92915050565b600060208284031215613c0657613c056124dd565b5b6000613c1484828501613bdb565b91505092915050565b7f7b225f6c696c797061645f74656d706c617465223a202277617465726c696c7960008201527f222c202270726f6d7074223a2022000000000000000000000000000000000000602082015250565b6000613c79602e836134c2565b9150613c8482613c1d565b602e82019050919050565b7f222c20226172746973746964223a202200000000000000000000000000000000815250565b7f222c2022696d6167656964223a20220000000000000000000000000000000000815250565b7f227d000000000000000000000000000000000000000000000000000000000000815250565b6000613d0c82613c6c565b9150613d198287896134dc565b9150613d2482613c8f565b601082019150613d358285876134dc565b9150613d4082613cb5565b600f82019150613d508284613a6f565b9150613d5b82613cdb565b6002820191508190509695505050505050565b6000613d7982612590565b613d838185612e7a565b9350613d938185602086016125ac565b613d9c816125d6565b840191505092915050565b60048110613db857613db7613a0c565b5b50565b6000819050613dc982613da7565b919050565b6000613dd982613dbb565b9050919050565b613de981613dce565b82525050565b6000606082019050613e046000830186612965565b8181036020830152613e168185613d6e565b9050613e256040830184613de0565b949350505050565b7f776520656e646564207570207769746820646966666572656e7420696d61676560008201527f2069647300000000000000000000000000000000000000000000000000000000602082015250565b6000613e89602483612e7a565b9150613e9482613e2d565b604082019050919050565b60006020820190508181036000830152613eb881613e7c565b9050919050565b7f4f776e61626c653a206e6577206f776e657220697320746865207a65726f206160008201527f6464726573730000000000000000000000000000000000000000000000000000602082015250565b6000613f1b602683612e7a565b9150613f2682613ebf565b604082019050919050565b60006020820190508181036000830152613f4a81613f0e565b9050919050565b7f4f776e61626c653a2063616c6c6572206973206e6f7420746865206f776e6572600082015250565b6000613f87602083612e7a565b9150613f9282613f51565b602082019050919050565b60006020820190508181036000830152613fb681613f7a565b9050919050565b7f61727469737420636f6d6d697373696f6e206d757374206265206c657373207460008201527f68616e206f7220657175616c20746f20696d61676520636f7374000000000000602082015250565b6000614019603a83612e7a565b915061402482613fbd565b604082019050919050565b600060208201905081810360008301526140488161400c565b9050919050565b7f4e487b7100000000000000000000000000000000000000000000000000000000600052601260045260246000fdfea264697066735822122032f36a3ac7259969ecbe392f3dc296c2e35c6aa2396f29abab4518290153066a64736f6c63430008110033",
  "linkReferences": {},
  "deployedLinkReferences": {}
}