{
  "_format": "hh-sol-artifact-1",
  "contractName": "LilypadEvents",
  "sourceName": "contracts/LilypadEvents.sol",
  "abi": [
    {
      "inputs": [],
      "stateMutability": "nonpayable",
      "type": "constructor"
    },
    {
      "anonymous": false,
      "inputs": [
        {
          "components": [
            {
              "internalType": "address",
              "name": "requestor",
              "type": "address"
            },
            {
              "internalType": "uint256",
              "name": "id",
              "type": "uint256"
            },
            {
              "internalType": "bool",
              "name": "success",
              "type": "bool"
            },
            {
              "internalType": "string",
              "name": "result",
              "type": "string"
            },
            {
              "internalType": "enum LilypadResultType",
              "name": "resultType",
              "type": "uint8"
            }
          ],
          "indexed": false,
          "internalType": "struct LilypadEvents.BacalhauJobResult",
          "name": "result",
          "type": "tuple"
        }
      ],
      "name": "BacalhauJobResultsReturned",
      "type": "event"
    },
    {
      "anonymous": false,
      "inputs": [
        {
          "components": [
            {
              "internalType": "address",
              "name": "requestor",
              "type": "address"
            },
            {
              "internalType": "uint256",
              "name": "id",
              "type": "uint256"
            },
            {
              "internalType": "string",
              "name": "spec",
              "type": "string"
            },
            {
              "internalType": "enum LilypadResultType",
              "name": "resultType",
              "type": "uint8"
            }
          ],
          "indexed": false,
          "internalType": "struct LilypadEvents.BacalhauJob",
          "name": "job",
          "type": "tuple"
        }
      ],
      "name": "NewBacalhauJobSubmitted",
      "type": "event"
    },
    {
      "anonymous": false,
      "inputs": [
        {
          "indexed": true,
          "internalType": "address",
          "name": "previousOwner",
          "type": "address"
        },
        {
          "indexed": true,
          "internalType": "address",
          "name": "newOwner",
          "type": "address"
        }
      ],
      "name": "OwnershipTransferred",
      "type": "event"
    },
    {
      "inputs": [
        {
          "internalType": "uint256",
          "name": "",
          "type": "uint256"
        }
      ],
      "name": "bacalhauJobHistory",
      "outputs": [
        {
          "internalType": "address",
          "name": "requestor",
          "type": "address"
        },
        {
          "internalType": "uint256",
          "name": "id",
          "type": "uint256"
        },
        {
          "internalType": "string",
          "name": "spec",
          "type": "string"
        },
        {
          "internalType": "enum LilypadResultType",
          "name": "resultType",
          "type": "uint8"
        }
      ],
      "stateMutability": "view",
      "type": "function"
    },
    {
      "inputs": [
        {
          "internalType": "uint256",
          "name": "",
          "type": "uint256"
        }
      ],
      "name": "bacalhauJobResultHistory",
      "outputs": [
        {
          "internalType": "address",
          "name": "requestor",
          "type": "address"
        },
        {
          "internalType": "uint256",
          "name": "id",
          "type": "uint256"
        },
        {
          "internalType": "bool",
          "name": "success",
          "type": "bool"
        },
        {
          "internalType": "string",
          "name": "result",
          "type": "string"
        },
        {
          "internalType": "enum LilypadResultType",
          "name": "resultType",
          "type": "uint8"
        }
      ],
      "stateMutability": "view",
      "type": "function"
    },
    {
      "inputs": [],
      "name": "currentJobID",
      "outputs": [
        {
          "internalType": "uint256",
          "name": "",
          "type": "uint256"
        }
      ],
      "stateMutability": "view",
      "type": "function"
    },
    {
      "inputs": [],
      "name": "fetchAllJobs",
      "outputs": [
        {
          "components": [
            {
              "internalType": "address",
              "name": "requestor",
              "type": "address"
            },
            {
              "internalType": "uint256",
              "name": "id",
              "type": "uint256"
            },
            {
              "internalType": "string",
              "name": "spec",
              "type": "string"
            },
            {
              "internalType": "enum LilypadResultType",
              "name": "resultType",
              "type": "uint8"
            }
          ],
          "internalType": "struct LilypadEvents.BacalhauJob[]",
          "name": "",
          "type": "tuple[]"
        }
      ],
      "stateMutability": "view",
      "type": "function"
    },
    {
      "inputs": [],
      "name": "fetchAllResults",
      "outputs": [
        {
          "components": [
            {
              "internalType": "address",
              "name": "requestor",
              "type": "address"
            },
            {
              "internalType": "uint256",
              "name": "id",
              "type": "uint256"
            },
            {
              "internalType": "bool",
              "name": "success",
              "type": "bool"
            },
            {
              "internalType": "string",
              "name": "result",
              "type": "string"
            },
            {
              "internalType": "enum LilypadResultType",
              "name": "resultType",
              "type": "uint8"
            }
          ],
          "internalType": "struct LilypadEvents.BacalhauJobResult[]",
          "name": "",
          "type": "tuple[]"
        }
      ],
      "stateMutability": "view",
      "type": "function"
    },
    {
      "inputs": [
        {
          "internalType": "address",
          "name": "_requestor",
          "type": "address"
        }
      ],
      "name": "fetchJobsByAddress",
      "outputs": [
        {
          "components": [
            {
              "internalType": "address",
              "name": "requestor",
              "type": "address"
            },
            {
              "internalType": "uint256",
              "name": "id",
              "type": "uint256"
            },
            {
              "internalType": "bool",
              "name": "success",
              "type": "bool"
            },
            {
              "internalType": "string",
              "name": "result",
              "type": "string"
            },
            {
              "internalType": "enum LilypadResultType",
              "name": "resultType",
              "type": "uint8"
            }
          ],
          "internalType": "struct LilypadEvents.BacalhauJobResult[]",
          "name": "",
          "type": "tuple[]"
        }
      ],
      "stateMutability": "view",
      "type": "function"
    },
    {
      "inputs": [],
      "name": "owner",
      "outputs": [
        {
          "internalType": "address",
          "name": "",
          "type": "address"
        }
      ],
      "stateMutability": "view",
      "type": "function"
    },
    {
      "inputs": [],
      "name": "renounceOwnership",
      "outputs": [],
      "stateMutability": "nonpayable",
      "type": "function"
    },
    {
      "inputs": [
        {
          "internalType": "address",
          "name": "_to",
          "type": "address"
        },
        {
          "internalType": "uint256",
          "name": "_jobId",
          "type": "uint256"
        },
        {
          "internalType": "string",
          "name": "_errorMsg",
          "type": "string"
        }
      ],
      "name": "returnBacalhauError",
      "outputs": [],
      "stateMutability": "nonpayable",
      "type": "function"
    },
    {
      "inputs": [
        {
          "internalType": "address",
          "name": "_to",
          "type": "address"
        },
        {
          "internalType": "uint256",
          "name": "_jobId",
          "type": "uint256"
        },
        {
          "internalType": "enum LilypadResultType",
          "name": "_resultType",
          "type": "uint8"
        },
        {
          "internalType": "string",
          "name": "_result",
          "type": "string"
        }
      ],
      "name": "returnBacalhauResults",
      "outputs": [],
      "stateMutability": "nonpayable",
      "type": "function"
    },
    {
      "inputs": [
        {
          "internalType": "address",
          "name": "_from",
          "type": "address"
        },
        {
          "internalType": "string",
          "name": "_spec",
          "type": "string"
        },
        {
          "internalType": "enum LilypadResultType",
          "name": "_resultType",
          "type": "uint8"
        }
      ],
      "name": "runBacalhauJob",
      "outputs": [
        {
          "internalType": "uint256",
          "name": "",
          "type": "uint256"
        }
      ],
      "stateMutability": "nonpayable",
      "type": "function"
    },
    {
      "inputs": [
        {
          "internalType": "address",
          "name": "_authorizedContract",
          "type": "address"
        }
      ],
      "name": "setAuthorizedContract",
      "outputs": [],
      "stateMutability": "nonpayable",
      "type": "function"
    },
    {
      "inputs": [
        {
          "internalType": "address",
          "name": "newOwner",
          "type": "address"
        }
      ],
      "name": "transferOwnership",
      "outputs": [],
      "stateMutability": "nonpayable",
      "type": "function"
    }
  ],
  "bytecode": "0x608060405234801561001057600080fd5b5061002d61002261003260201b60201c565b61003a60201b60201c565b6100fe565b600033905090565b60008060009054906101000a900473ffffffffffffffffffffffffffffffffffffffff169050816000806101000a81548173ffffffffffffffffffffffffffffffffffffffff021916908373ffffffffffffffffffffffffffffffffffffffff1602179055508173ffffffffffffffffffffffffffffffffffffffff168173ffffffffffffffffffffffffffffffffffffffff167f8be0079c531659141344cd1fd0a4f28419497f9722a3daafe3b4186f6b6457e060405160405180910390a35050565b61239e806200010e6000396000f3fe608060405234801561001057600080fd5b50600436106100cf5760003560e01c80639aad69e71161008c578063dc1c19ea11610066578063dc1c19ea14610203578063ef2e091114610237578063f280ccb814610255578063f2fde38b14610271576100cf565b80639aad69e714610199578063ce4af1d7146101b5578063d992cac8146101d3576100cf565b8063055da1dd146100d4578063399fad37146100f257806359759de514610122578063715018a61461013e578063807d6dcf146101485780638da5cb5b1461017b575b600080fd5b6100dc61028d565b6040516100e9919061146c565b60405180910390f35b61010c600480360381019061010791906114f9565b61029e565b604051610119919061179e565b60405180910390f35b61013c60048036038101906101379190611921565b610484565b005b610146610796565b005b610162600480360381019061015d9190611990565b6107aa565b6040516101729493929190611a25565b60405180910390f35b61018361089f565b6040516101909190611a71565b60405180910390f35b6101b360048036038101906101ae91906114f9565b6108c8565b005b6101bd610914565b6040516101ca9190611bb1565b60405180910390f35b6101ed60048036038101906101e89190611bf8565b610aa0565b6040516101fa919061146c565b60405180910390f35b61021d60048036038101906102189190611990565b610c9f565b60405161022e959493929190611c76565b60405180910390f35b61023f610da7565b60405161024c919061179e565b60405180910390f35b61026f600480360381019061026a9190611cd0565b610f4e565b005b61028b600480360381019061028691906114f9565b611262565b005b600061029960016112e5565b905090565b6060600560008373ffffffffffffffffffffffffffffffffffffffff1673ffffffffffffffffffffffffffffffffffffffff168152602001908152602001600020805480602002602001604051908101604052809291908181526020016000905b8282101561047957838290600052602060002090600502016040518060a00160405290816000820160009054906101000a900473ffffffffffffffffffffffffffffffffffffffff1673ffffffffffffffffffffffffffffffffffffffff1673ffffffffffffffffffffffffffffffffffffffff168152602001600182015481526020016002820160009054906101000a900460ff161515151581526020016003820180546103ad90611d82565b80601f01602080910402602001604051908101604052809291908181526020018280546103d990611d82565b80156104265780601f106103fb57610100808354040283529160200191610426565b820191906000526020600020905b81548152906001019060200180831161040957829003601f168201915b505050505081526020016004820160009054906101000a900460ff1660038111156104545761045361161b565b5b60038111156104665761046561161b565b5b81525050815260200190600101906102ff565b505050509050919050565b61048c6112f3565b60006040518060a001604052808573ffffffffffffffffffffffffffffffffffffffff168152602001848152602001600015158152602001838152602001600260038111156104de576104dd61161b565b5b8152509050600481908060018154018082558091505060019003906000526020600020906005020160009091909190915060008201518160000160006101000a81548173ffffffffffffffffffffffffffffffffffffffff021916908373ffffffffffffffffffffffffffffffffffffffff1602179055506020820151816001015560408201518160020160006101000a81548160ff02191690831515021790555060608201518160030190816105959190611f5f565b5060808201518160040160006101000a81548160ff021916908360038111156105c1576105c061161b565b5b02179055505050600560008573ffffffffffffffffffffffffffffffffffffffff1673ffffffffffffffffffffffffffffffffffffffff16815260200190815260200160002081908060018154018082558091505060019003906000526020600020906005020160009091909190915060008201518160000160006101000a81548173ffffffffffffffffffffffffffffffffffffffff021916908373ffffffffffffffffffffffffffffffffffffffff1602179055506020820151816001015560408201518160020160006101000a81548160ff02191690831515021790555060608201518160030190816106b79190611f5f565b5060808201518160040160006101000a81548160ff021916908360038111156106e3576106e261161b565b5b021790555050507f9c3599b1ae1172dc696af0b3987352577abf98ebc11cc2f7c3a8f0a08b20c0ef8160405161071991906120a7565b60405180910390a18373ffffffffffffffffffffffffffffffffffffffff16633487823e3085856040518463ffffffff1660e01b815260040161075e939291906120c9565b600060405180830381600087803b15801561077857600080fd5b505af115801561078c573d6000803e3d6000fd5b5050505050505050565b61079e6112f3565b6107a86000611371565b565b600381815481106107ba57600080fd5b90600052602060002090600402016000915090508060000160009054906101000a900473ffffffffffffffffffffffffffffffffffffffff169080600101549080600201805461080990611d82565b80601f016020809104026020016040519081016040528092919081815260200182805461083590611d82565b80156108825780601f1061085757610100808354040283529160200191610882565b820191906000526020600020905b81548152906001019060200180831161086557829003601f168201915b5050505050908060030160009054906101000a900460ff16905084565b60008060009054906101000a900473ffffffffffffffffffffffffffffffffffffffff16905090565b6108d06112f3565b80600260006101000a81548173ffffffffffffffffffffffffffffffffffffffff021916908373ffffffffffffffffffffffffffffffffffffffff16021790555050565b60606003805480602002602001604051908101604052809291908181526020016000905b82821015610a9757838290600052602060002090600402016040518060800160405290816000820160009054906101000a900473ffffffffffffffffffffffffffffffffffffffff1673ffffffffffffffffffffffffffffffffffffffff1673ffffffffffffffffffffffffffffffffffffffff168152602001600182015481526020016002820180546109cb90611d82565b80601f01602080910402602001604051908101604052809291908181526020018280546109f790611d82565b8015610a445780601f10610a1957610100808354040283529160200191610a44565b820191906000526020600020905b815481529060010190602001808311610a2757829003601f168201915b505050505081526020016003820160009054906101000a900460ff166003811115610a7257610a7161161b565b5b6003811115610a8457610a8361161b565b5b8152505081526020019060010190610938565b50505050905090565b6000600260009054906101000a900473ffffffffffffffffffffffffffffffffffffffff1673ffffffffffffffffffffffffffffffffffffffff163373ffffffffffffffffffffffffffffffffffffffff1614610b32576040517f08c379a0000000000000000000000000000000000000000000000000000000008152600401610b2990612179565b60405180910390fd5b610b3c6001611435565b6000610b4860016112e5565b9050600060405180608001604052808773ffffffffffffffffffffffffffffffffffffffff168152602001838152602001868152602001856003811115610b9257610b9161161b565b5b8152509050600381908060018154018082558091505060019003906000526020600020906004020160009091909190915060008201518160000160006101000a81548173ffffffffffffffffffffffffffffffffffffffff021916908373ffffffffffffffffffffffffffffffffffffffff160217905550602082015181600101556040820151816002019081610c299190611f5f565b5060608201518160030160006101000a81548160ff02191690836003811115610c5557610c5461161b565b5b021790555050507f9614ee9ca679bba6d8bd80a13dc0b8e76185314ed2abb02ae2b90dc59f6513cb81604051610c8b91906121fc565b60405180910390a181925050509392505050565b60048181548110610caf57600080fd5b90600052602060002090600502016000915090508060000160009054906101000a900473ffffffffffffffffffffffffffffffffffffffff16908060010154908060020160009054906101000a900460ff1690806003018054610d1190611d82565b80601f0160208091040260200160405190810160405280929190818152602001828054610d3d90611d82565b8015610d8a5780601f10610d5f57610100808354040283529160200191610d8a565b820191906000526020600020905b815481529060010190602001808311610d6d57829003601f168201915b5050505050908060040160009054906101000a900460ff16905085565b60606004805480602002602001604051908101604052809291908181526020016000905b82821015610f4557838290600052602060002090600502016040518060a00160405290816000820160009054906101000a900473ffffffffffffffffffffffffffffffffffffffff1673ffffffffffffffffffffffffffffffffffffffff1673ffffffffffffffffffffffffffffffffffffffff168152602001600182015481526020016002820160009054906101000a900460ff16151515158152602001600382018054610e7990611d82565b80601f0160208091040260200160405190810160405280929190818152602001828054610ea590611d82565b8015610ef25780601f10610ec757610100808354040283529160200191610ef2565b820191906000526020600020905b815481529060010190602001808311610ed557829003601f168201915b505050505081526020016004820160009054906101000a900460ff166003811115610f2057610f1f61161b565b5b6003811115610f3257610f3161161b565b5b8152505081526020019060010190610dcb565b50505050905090565b610f566112f3565b60006040518060a001604052808673ffffffffffffffffffffffffffffffffffffffff168152602001858152602001600115158152602001838152602001846003811115610fa757610fa661161b565b5b8152509050600481908060018154018082558091505060019003906000526020600020906005020160009091909190915060008201518160000160006101000a81548173ffffffffffffffffffffffffffffffffffffffff021916908373ffffffffffffffffffffffffffffffffffffffff1602179055506020820151816001015560408201518160020160006101000a81548160ff021916908315150217905550606082015181600301908161105e9190611f5f565b5060808201518160040160006101000a81548160ff0219169083600381111561108a5761108961161b565b5b02179055505050600560008673ffffffffffffffffffffffffffffffffffffffff1673ffffffffffffffffffffffffffffffffffffffff16815260200190815260200160002081908060018154018082558091505060019003906000526020600020906005020160009091909190915060008201518160000160006101000a81548173ffffffffffffffffffffffffffffffffffffffff021916908373ffffffffffffffffffffffffffffffffffffffff1602179055506020820151816001015560408201518160020160006101000a81548160ff02191690831515021790555060608201518160030190816111809190611f5f565b5060808201518160040160006101000a81548160ff021916908360038111156111ac576111ab61161b565b5b021790555050507f9c3599b1ae1172dc696af0b3987352577abf98ebc11cc2f7c3a8f0a08b20c0ef816040516111e291906120a7565b60405180910390a18473ffffffffffffffffffffffffffffffffffffffff1663d5040d65308686866040518563ffffffff1660e01b8152600401611229949392919061221e565b600060405180830381600087803b15801561124357600080fd5b505af1158015611257573d6000803e3d6000fd5b505050505050505050565b61126a6112f3565b600073ffffffffffffffffffffffffffffffffffffffff168173ffffffffffffffffffffffffffffffffffffffff16036112d9576040517f08c379a00000000000000000000000000000000000000000000000000000000081526004016112d0906122dc565b60405180910390fd5b6112e281611371565b50565b600081600001549050919050565b6112fb61144b565b73ffffffffffffffffffffffffffffffffffffffff1661131961089f565b73ffffffffffffffffffffffffffffffffffffffff161461136f576040517f08c379a000000000000000000000000000000000000000000000000000000000815260040161136690612348565b60405180910390fd5b565b60008060009054906101000a900473ffffffffffffffffffffffffffffffffffffffff169050816000806101000a81548173ffffffffffffffffffffffffffffffffffffffff021916908373ffffffffffffffffffffffffffffffffffffffff1602179055508173ffffffffffffffffffffffffffffffffffffffff168173ffffffffffffffffffffffffffffffffffffffff167f8be0079c531659141344cd1fd0a4f28419497f9722a3daafe3b4186f6b6457e060405160405180910390a35050565b6001816000016000828254019250508190555050565b600033905090565b6000819050919050565b61146681611453565b82525050565b6000602082019050611481600083018461145d565b92915050565b6000604051905090565b600080fd5b600080fd5b600073ffffffffffffffffffffffffffffffffffffffff82169050919050565b60006114c68261149b565b9050919050565b6114d6816114bb565b81146114e157600080fd5b50565b6000813590506114f3816114cd565b92915050565b60006020828403121561150f5761150e611491565b5b600061151d848285016114e4565b91505092915050565b600081519050919050565b600082825260208201905092915050565b6000819050602082019050919050565b61155b816114bb565b82525050565b61156a81611453565b82525050565b60008115159050919050565b61158581611570565b82525050565b600081519050919050565b600082825260208201905092915050565b60005b838110156115c55780820151818401526020810190506115aa565b60008484015250505050565b6000601f19601f8301169050919050565b60006115ed8261158b565b6115f78185611596565b93506116078185602086016115a7565b611610816115d1565b840191505092915050565b7f4e487b7100000000000000000000000000000000000000000000000000000000600052602160045260246000fd5b6004811061165b5761165a61161b565b5b50565b600081905061166c8261164a565b919050565b600061167c8261165e565b9050919050565b61168c81611671565b82525050565b600060a0830160008301516116aa6000860182611552565b5060208301516116bd6020860182611561565b5060408301516116d0604086018261157c565b50606083015184820360608601526116e882826115e2565b91505060808301516116fd6080860182611683565b508091505092915050565b60006117148383611692565b905092915050565b6000602082019050919050565b600061173482611526565b61173e8185611531565b93508360208202850161175085611542565b8060005b8581101561178c578484038952815161176d8582611708565b94506117788361171c565b925060208a01995050600181019050611754565b50829750879550505050505092915050565b600060208201905081810360008301526117b88184611729565b905092915050565b6117c981611453565b81146117d457600080fd5b50565b6000813590506117e6816117c0565b92915050565b600080fd5b600080fd5b7f4e487b7100000000000000000000000000000000000000000000000000000000600052604160045260246000fd5b61182e826115d1565b810181811067ffffffffffffffff8211171561184d5761184c6117f6565b5b80604052505050565b6000611860611487565b905061186c8282611825565b919050565b600067ffffffffffffffff82111561188c5761188b6117f6565b5b611895826115d1565b9050602081019050919050565b82818337600083830152505050565b60006118c46118bf84611871565b611856565b9050828152602081018484840111156118e0576118df6117f1565b5b6118eb8482856118a2565b509392505050565b600082601f830112611908576119076117ec565b5b81356119188482602086016118b1565b91505092915050565b60008060006060848603121561193a57611939611491565b5b6000611948868287016114e4565b9350506020611959868287016117d7565b925050604084013567ffffffffffffffff81111561197a57611979611496565b5b611986868287016118f3565b9150509250925092565b6000602082840312156119a6576119a5611491565b5b60006119b4848285016117d7565b91505092915050565b6119c6816114bb565b82525050565b600082825260208201905092915050565b60006119e88261158b565b6119f281856119cc565b9350611a028185602086016115a7565b611a0b816115d1565b840191505092915050565b611a1f81611671565b82525050565b6000608082019050611a3a60008301876119bd565b611a47602083018661145d565b8181036040830152611a5981856119dd565b9050611a686060830184611a16565b95945050505050565b6000602082019050611a8660008301846119bd565b92915050565b600081519050919050565b600082825260208201905092915050565b6000819050602082019050919050565b6000608083016000830151611ad06000860182611552565b506020830151611ae36020860182611561565b5060408301518482036040860152611afb82826115e2565b9150506060830151611b106060860182611683565b508091505092915050565b6000611b278383611ab8565b905092915050565b6000602082019050919050565b6000611b4782611a8c565b611b518185611a97565b935083602082028501611b6385611aa8565b8060005b85811015611b9f5784840389528151611b808582611b1b565b9450611b8b83611b2f565b925060208a01995050600181019050611b67565b50829750879550505050505092915050565b60006020820190508181036000830152611bcb8184611b3c565b905092915050565b60048110611be057600080fd5b50565b600081359050611bf281611bd3565b92915050565b600080600060608486031215611c1157611c10611491565b5b6000611c1f868287016114e4565b935050602084013567ffffffffffffffff811115611c4057611c3f611496565b5b611c4c868287016118f3565b9250506040611c5d86828701611be3565b9150509250925092565b611c7081611570565b82525050565b600060a082019050611c8b60008301886119bd565b611c98602083018761145d565b611ca56040830186611c67565b8181036060830152611cb781856119dd565b9050611cc66080830184611a16565b9695505050505050565b60008060008060808587031215611cea57611ce9611491565b5b6000611cf8878288016114e4565b9450506020611d09878288016117d7565b9350506040611d1a87828801611be3565b925050606085013567ffffffffffffffff811115611d3b57611d3a611496565b5b611d47878288016118f3565b91505092959194509250565b7f4e487b7100000000000000000000000000000000000000000000000000000000600052602260045260246000fd5b60006002820490506001821680611d9a57607f821691505b602082108103611dad57611dac611d53565b5b50919050565b60008190508160005260206000209050919050565b60006020601f8301049050919050565b600082821b905092915050565b600060088302611e157fffffffffffffffffffffffffffffffffffffffffffffffffffffffffffffffff82611dd8565b611e1f8683611dd8565b95508019841693508086168417925050509392505050565b6000819050919050565b6000611e5c611e57611e5284611453565b611e37565b611453565b9050919050565b6000819050919050565b611e7683611e41565b611e8a611e8282611e63565b848454611de5565b825550505050565b600090565b611e9f611e92565b611eaa818484611e6d565b505050565b5b81811015611ece57611ec3600082611e97565b600181019050611eb0565b5050565b601f821115611f1357611ee481611db3565b611eed84611dc8565b81016020851015611efc578190505b611f10611f0885611dc8565b830182611eaf565b50505b505050565b600082821c905092915050565b6000611f3660001984600802611f18565b1980831691505092915050565b6000611f4f8383611f25565b9150826002028217905092915050565b611f688261158b565b67ffffffffffffffff811115611f8157611f806117f6565b5b611f8b8254611d82565b611f96828285611ed2565b600060209050601f831160018114611fc95760008415611fb7578287015190505b611fc18582611f43565b865550612029565b601f198416611fd786611db3565b60005b82811015611fff57848901518255600182019150602085019450602081019050611fda565b8683101561201c5784890151612018601f891682611f25565b8355505b6001600288020188555050505b505050505050565b600060a0830160008301516120496000860182611552565b50602083015161205c6020860182611561565b50604083015161206f604086018261157c565b506060830151848203606086015261208782826115e2565b915050608083015161209c6080860182611683565b508091505092915050565b600060208201905081810360008301526120c18184612031565b905092915050565b60006060820190506120de60008301866119bd565b6120eb602083018561145d565b81810360408301526120fd81846119dd565b9050949350505050565b7f43616e206f6e6c792062652063616c6c65642066726f6d20617574686f72697a60008201527f656420636f6e7472616374206164647265737300000000000000000000000000602082015250565b60006121636033836119cc565b915061216e82612107565b604082019050919050565b6000602082019050818103600083015261219281612156565b9050919050565b60006080830160008301516121b16000860182611552565b5060208301516121c46020860182611561565b50604083015184820360408601526121dc82826115e2565b91505060608301516121f16060860182611683565b508091505092915050565b600060208201905081810360008301526122168184612199565b905092915050565b600060808201905061223360008301876119bd565b612240602083018661145d565b61224d6040830185611a16565b818103606083015261225f81846119dd565b905095945050505050565b7f4f776e61626c653a206e6577206f776e657220697320746865207a65726f206160008201527f6464726573730000000000000000000000000000000000000000000000000000602082015250565b60006122c66026836119cc565b91506122d18261226a565b604082019050919050565b600060208201905081810360008301526122f5816122b9565b9050919050565b7f4f776e61626c653a2063616c6c6572206973206e6f7420746865206f776e6572600082015250565b60006123326020836119cc565b915061233d826122fc565b602082019050919050565b6000602082019050818103600083015261236181612325565b905091905056fea2646970667358221220fa736799ebf926d609b225e4766edf0836ac5addc0f45a5590c6c8d4ef6df21364736f6c63430008110033",
  "linkReferences": {},
  "deployedLinkReferences": {}
}