{
  "_format": "hh-sol-artifact-1",
  "contractName": "ArtistAttribution",
  "sourceName": "contracts/ArtistAttribution.sol",
  "abi": [
    {
      "inputs": [
        {
          "internalType": "uint256",
          "name": "_artistCost",
          "type": "uint256"
        },
        {
          "internalType": "uint256",
          "name": "_imageCost",
          "type": "uint256"
        },
        {
          "internalType": "uint256",
          "name": "_artistCommission",
          "type": "uint256"
        }
      ],
      "stateMutability": "nonpayable",
      "type": "constructor"
    },
    {
      "anonymous": false,
      "inputs": [
        {
          "components": [
            {
              "internalType": "string",
              "name": "id",
              "type": "string"
            },
            {
              "internalType": "address",
              "name": "wallet",
              "type": "address"
            },
            {
              "internalType": "string",
              "name": "metadata",
              "type": "string"
            },
            {
              "internalType": "uint256",
              "name": "escrow",
              "type": "uint256"
            },
            {
              "internalType": "uint256",
              "name": "revenue",
              "type": "uint256"
            },
            {
              "internalType": "uint256",
              "name": "numJobsRun",
              "type": "uint256"
            },
            {
              "internalType": "bool",
              "name": "isTrained",
              "type": "bool"
            }
          ],
          "indexed": false,
          "internalType": "struct ArtistAttribution.Artist",
          "name": "artist",
          "type": "tuple"
        }
      ],
      "name": "EventArtistCreated",
      "type": "event"
    },
    {
      "anonymous": false,
      "inputs": [
        {
          "components": [
            {
              "internalType": "uint256",
              "name": "id",
              "type": "uint256"
            },
            {
              "internalType": "address",
              "name": "customer",
              "type": "address"
            },
            {
              "internalType": "string",
              "name": "artist",
              "type": "string"
            },
            {
              "internalType": "string",
              "name": "prompt",
              "type": "string"
            },
            {
              "internalType": "string",
              "name": "ipfsResult",
              "type": "string"
            },
            {
              "internalType": "string",
              "name": "errorMessage",
              "type": "string"
            },
            {
              "internalType": "bool",
              "name": "isComplete",
              "type": "bool"
            },
            {
              "internalType": "bool",
              "name": "isCancelled",
              "type": "bool"
            }
          ],
          "indexed": false,
          "internalType": "struct ArtistAttribution.Image",
          "name": "image",
          "type": "tuple"
        }
      ],
      "name": "EventImageCancelled",
      "type": "event"
    },
    {
      "anonymous": false,
      "inputs": [
        {
          "components": [
            {
              "internalType": "uint256",
              "name": "id",
              "type": "uint256"
            },
            {
              "internalType": "address",
              "name": "customer",
              "type": "address"
            },
            {
              "internalType": "string",
              "name": "artist",
              "type": "string"
            },
            {
              "internalType": "string",
              "name": "prompt",
              "type": "string"
            },
            {
              "internalType": "string",
              "name": "ipfsResult",
              "type": "string"
            },
            {
              "internalType": "string",
              "name": "errorMessage",
              "type": "string"
            },
            {
              "internalType": "bool",
              "name": "isComplete",
              "type": "bool"
            },
            {
              "internalType": "bool",
              "name": "isCancelled",
              "type": "bool"
            }
          ],
          "indexed": false,
          "internalType": "struct ArtistAttribution.Image",
          "name": "image",
          "type": "tuple"
        }
      ],
      "name": "EventImageComplete",
      "type": "event"
    },
    {
      "anonymous": false,
      "inputs": [
        {
          "components": [
            {
              "internalType": "uint256",
              "name": "id",
              "type": "uint256"
            },
            {
              "internalType": "address",
              "name": "customer",
              "type": "address"
            },
            {
              "internalType": "string",
              "name": "artist",
              "type": "string"
            },
            {
              "internalType": "string",
              "name": "prompt",
              "type": "string"
            },
            {
              "internalType": "string",
              "name": "ipfsResult",
              "type": "string"
            },
            {
              "internalType": "string",
              "name": "errorMessage",
              "type": "string"
            },
            {
              "internalType": "bool",
              "name": "isComplete",
              "type": "bool"
            },
            {
              "internalType": "bool",
              "name": "isCancelled",
              "type": "bool"
            }
          ],
          "indexed": false,
          "internalType": "struct ArtistAttribution.Image",
          "name": "image",
          "type": "tuple"
        }
      ],
      "name": "EventImageCreated",
      "type": "event"
    },
    {
      "anonymous": false,
      "inputs": [
        {
          "indexed": true,
          "internalType": "address",
          "name": "previousOwner",
          "type": "address"
        },
        {
          "indexed": true,
          "internalType": "address",
          "name": "newOwner",
          "type": "address"
        }
      ],
      "name": "OwnershipTransferred",
      "type": "event"
    },
    {
      "inputs": [
        {
          "internalType": "string",
          "name": "id",
          "type": "string"
        },
        {
          "internalType": "string",
          "name": "metadata",
          "type": "string"
        }
      ],
      "name": "CreateArtist",
      "outputs": [],
      "stateMutability": "payable",
      "type": "function"
    },
    {
      "inputs": [
        {
          "internalType": "string",
          "name": "_artistID",
          "type": "string"
        },
        {
          "internalType": "string",
          "name": "_prompt",
          "type": "string"
        }
      ],
      "name": "CreateImage",
      "outputs": [],
      "stateMutability": "payable",
      "type": "function"
    },
    {
      "inputs": [
        {
          "internalType": "uint256",
          "name": "_id",
          "type": "uint256"
        },
        {
          "internalType": "string",
          "name": "_errorMsg",
          "type": "string"
        }
      ],
      "name": "ImageCancelled",
      "outputs": [],
      "stateMutability": "nonpayable",
      "type": "function"
    },
    {
      "inputs": [
        {
          "internalType": "uint256",
          "name": "_id",
          "type": "uint256"
        },
        {
          "internalType": "string",
          "name": "_result",
          "type": "string"
        }
      ],
      "name": "ImageComplete",
      "outputs": [],
      "stateMutability": "nonpayable",
      "type": "function"
    },
    {
      "inputs": [
        {
          "internalType": "address payable",
          "name": "to",
          "type": "address"
        }
      ],
      "name": "adminWithdraw",
      "outputs": [],
      "stateMutability": "payable",
      "type": "function"
    },
    {
      "inputs": [
        {
          "internalType": "string",
          "name": "id",
          "type": "string"
        },
        {
          "internalType": "address",
          "name": "newWallet",
          "type": "address"
        }
      ],
      "name": "artistChangeWallet",
      "outputs": [],
      "stateMutability": "nonpayable",
      "type": "function"
    },
    {
      "inputs": [],
      "name": "artistCommission",
      "outputs": [
        {
          "internalType": "uint256",
          "name": "",
          "type": "uint256"
        }
      ],
      "stateMutability": "view",
      "type": "function"
    },
    {
      "inputs": [],
      "name": "artistCost",
      "outputs": [
        {
          "internalType": "uint256",
          "name": "",
          "type": "uint256"
        }
      ],
      "stateMutability": "view",
      "type": "function"
    },
    {
      "inputs": [
        {
          "internalType": "string",
          "name": "id",
          "type": "string"
        }
      ],
      "name": "artistTrained",
      "outputs": [],
      "stateMutability": "nonpayable",
      "type": "function"
    },
    {
      "inputs": [
        {
          "internalType": "string",
          "name": "id",
          "type": "string"
        }
      ],
      "name": "artistWithdraw",
      "outputs": [],
      "stateMutability": "payable",
      "type": "function"
    },
    {
      "inputs": [],
      "name": "computeProviderEscrow",
      "outputs": [
        {
          "internalType": "uint256",
          "name": "",
          "type": "uint256"
        }
      ],
      "stateMutability": "view",
      "type": "function"
    },
    {
      "inputs": [],
      "name": "computeProviderRevenue",
      "outputs": [
        {
          "internalType": "uint256",
          "name": "",
          "type": "uint256"
        }
      ],
      "stateMutability": "view",
      "type": "function"
    },
    {
      "inputs": [
        {
          "internalType": "string",
          "name": "id",
          "type": "string"
        }
      ],
      "name": "deleteArtist",
      "outputs": [],
      "stateMutability": "nonpayable",
      "type": "function"
    },
    {
      "inputs": [
        {
          "internalType": "string",
          "name": "id",
          "type": "string"
        }
      ],
      "name": "getArtist",
      "outputs": [
        {
          "components": [
            {
              "internalType": "string",
              "name": "id",
              "type": "string"
            },
            {
              "internalType": "address",
              "name": "wallet",
              "type": "address"
            },
            {
              "internalType": "string",
              "name": "metadata",
              "type": "string"
            },
            {
              "internalType": "uint256",
              "name": "escrow",
              "type": "uint256"
            },
            {
              "internalType": "uint256",
              "name": "revenue",
              "type": "uint256"
            },
            {
              "internalType": "uint256",
              "name": "numJobsRun",
              "type": "uint256"
            },
            {
              "internalType": "bool",
              "name": "isTrained",
              "type": "bool"
            }
          ],
          "internalType": "struct ArtistAttribution.Artist",
          "name": "",
          "type": "tuple"
        }
      ],
      "stateMutability": "view",
      "type": "function"
    },
    {
      "inputs": [],
      "name": "getArtistCommission",
      "outputs": [
        {
          "internalType": "uint256",
          "name": "",
          "type": "uint256"
        }
      ],
      "stateMutability": "view",
      "type": "function"
    },
    {
      "inputs": [],
      "name": "getArtistIDs",
      "outputs": [
        {
          "internalType": "string[]",
          "name": "",
          "type": "string[]"
        }
      ],
      "stateMutability": "view",
      "type": "function"
    },
    {
      "inputs": [
        {
          "internalType": "address",
          "name": "customerAddress",
          "type": "address"
        }
      ],
      "name": "getCustomerImages",
      "outputs": [
        {
          "internalType": "uint256[]",
          "name": "",
          "type": "uint256[]"
        }
      ],
      "stateMutability": "view",
      "type": "function"
    },
    {
      "inputs": [
        {
          "internalType": "uint256",
          "name": "id",
          "type": "uint256"
        }
      ],
      "name": "getImage",
      "outputs": [
        {
          "components": [
            {
              "internalType": "uint256",
              "name": "id",
              "type": "uint256"
            },
            {
              "internalType": "address",
              "name": "customer",
              "type": "address"
            },
            {
              "internalType": "string",
              "name": "artist",
              "type": "string"
            },
            {
              "internalType": "string",
              "name": "prompt",
              "type": "string"
            },
            {
              "internalType": "string",
              "name": "ipfsResult",
              "type": "string"
            },
            {
              "internalType": "string",
              "name": "errorMessage",
              "type": "string"
            },
            {
              "internalType": "bool",
              "name": "isComplete",
              "type": "bool"
            },
            {
              "internalType": "bool",
              "name": "isCancelled",
              "type": "bool"
            }
          ],
          "internalType": "struct ArtistAttribution.Image",
          "name": "",
          "type": "tuple"
        }
      ],
      "stateMutability": "view",
      "type": "function"
    },
    {
      "inputs": [],
      "name": "getImageCost",
      "outputs": [
        {
          "internalType": "uint256",
          "name": "",
          "type": "uint256"
        }
      ],
      "stateMutability": "view",
      "type": "function"
    },
    {
      "inputs": [],
      "name": "getImageIDs",
      "outputs": [
        {
          "internalType": "uint256[]",
          "name": "",
          "type": "uint256[]"
        }
      ],
      "stateMutability": "view",
      "type": "function"
    },
    {
      "inputs": [],
      "name": "imageCost",
      "outputs": [
        {
          "internalType": "uint256",
          "name": "",
          "type": "uint256"
        }
      ],
      "stateMutability": "view",
      "type": "function"
    },
    {
      "inputs": [],
      "name": "owner",
      "outputs": [
        {
          "internalType": "address",
          "name": "",
          "type": "address"
        }
      ],
      "stateMutability": "view",
      "type": "function"
    },
    {
      "inputs": [],
      "name": "renounceOwnership",
      "outputs": [],
      "stateMutability": "nonpayable",
      "type": "function"
    },
    {
      "inputs": [
        {
          "internalType": "address",
          "name": "newOwner",
          "type": "address"
        }
      ],
      "name": "transferOwnership",
      "outputs": [],
      "stateMutability": "nonpayable",
      "type": "function"
    },
    {
      "inputs": [
        {
          "internalType": "uint256",
          "name": "_artistCost",
          "type": "uint256"
        },
        {
          "internalType": "uint256",
          "name": "_imageCost",
          "type": "uint256"
        },
        {
          "internalType": "uint256",
          "name": "_artistCommission",
          "type": "uint256"
        }
      ],
      "name": "updateCost",
      "outputs": [],
      "stateMutability": "nonpayable",
      "type": "function"
    }
  ],
  "bytecode": "0x60806040523480156200001157600080fd5b50604051620041213803806200412183398181016040528101906200003791906200021e565b620000576200004b6200007360201b60201c565b6200007b60201b60201c565b6200006a8383836200013f60201b60201c565b50505062000323565b600033905090565b60008060009054906101000a900473ffffffffffffffffffffffffffffffffffffffff169050816000806101000a81548173ffffffffffffffffffffffffffffffffffffffff021916908373ffffffffffffffffffffffffffffffffffffffff1602179055508173ffffffffffffffffffffffffffffffffffffffff168173ffffffffffffffffffffffffffffffffffffffff167f8be0079c531659141344cd1fd0a4f28419497f9722a3daafe3b4186f6b6457e060405160405180910390a35050565b8181111562000185576040517f08c379a00000000000000000000000000000000000000000000000000000000081526004016200017c9062000301565b60405180910390fd5b600083036200019a5767168d28e3f002800092505b60008203620001af5767024150e39800400091505b60008103620001c45767024150e39800400090505b826005819055508160048190555080600681905550505050565b600080fd5b6000819050919050565b620001f881620001e3565b81146200020457600080fd5b50565b6000815190506200021881620001ed565b92915050565b6000806000606084860312156200023a5762000239620001de565b5b60006200024a8682870162000207565b93505060206200025d8682870162000207565b9250506040620002708682870162000207565b9150509250925092565b600082825260208201905092915050565b7f61727469737420636f6d6d697373696f6e206d757374206265206c657373207460008201527f68616e206f7220657175616c20746f20696d61676520636f7374000000000000602082015250565b6000620002e9603a836200027a565b9150620002f6826200028b565b604082019050919050565b600060208201905081810360008301526200031c81620002da565b9050919050565b613dee80620003336000396000f3fe6080604052600436106101655760003560e01c8063983586b1116100d1578063d415380e1161008a578063e95b9bf411610064578063e95b9bf4146104da578063ec32d942146104f6578063f2fde38b14610521578063feadcdeb1461054a57610165565b8063d415380e1461046a578063d41b548514610493578063e6b73d69146104af57610165565b8063983586b114610367578063a2498ab314610392578063a28835b6146103cf578063a5f8e131146103eb578063a6e9947114610416578063c0ed368e1461044157610165565b80636f55475d116101235780636f55475d1461028e578063715018a6146102b7578063782beca8146102ce5780637b232660146102f757806382a6633f146103135780638da5cb5b1461033c57610165565b80629eb7e71461016a578063072792b11461019357806319856742146101be5780632607aafa146101e957806353f4fa831461022657806355f2107214610251575b600080fd5b34801561017657600080fd5b50610191600480360381019061018c9190612474565b610575565b005b34801561019f57600080fd5b506101a86106e6565b6040516101b591906124ed565b60405180910390f35b3480156101ca57600080fd5b506101d36106f0565b6040516101e091906124ed565b60405180910390f35b3480156101f557600080fd5b50610210600480360381019061020b9190612534565b6106f6565b60405161021d91906126ef565b60405180910390f35b34801561023257600080fd5b5061023b610a02565b60405161024891906127c0565b60405180910390f35b34801561025d57600080fd5b50610278600480360381019061027391906127e2565b610a5a565b60405161028591906127c0565b60405180910390f35b34801561029a57600080fd5b506102b560048036038101906102b0919061280f565b610af1565b005b3480156102c357600080fd5b506102cc610b09565b005b3480156102da57600080fd5b506102f560048036038101906102f09190612862565b610b1d565b005b610311600480360381019061030c91906128c2565b610d14565b005b34801561031f57600080fd5b5061033a60048036038101906103359190612943565b611197565b005b34801561034857600080fd5b50610351611257565b60405161035e919061299f565b60405180910390f35b34801561037357600080fd5b5061037c611280565b60405161038991906124ed565b60405180910390f35b34801561039e57600080fd5b506103b960048036038101906103b49190612943565b611286565b6040516103c69190612a5d565b60405180910390f35b6103e960048036038101906103e49190612abd565b611474565b005b3480156103f757600080fd5b506104006114d6565b60405161040d91906124ed565b60405180910390f35b34801561042257600080fd5b5061042b6114e0565b60405161043891906124ed565b60405180910390f35b34801561044d57600080fd5b5061046860048036038101906104639190612862565b6114e6565b005b34801561047657600080fd5b50610491600480360381019061048c9190612943565b611789565b005b6104ad60048036038101906104a89190612943565b611a2e565b005b3480156104bb57600080fd5b506104c4611c03565b6040516104d191906124ed565b60405180910390f35b6104f460048036038101906104ef91906128c2565b611c09565b005b34801561050257600080fd5b5061050b611f2d565b6040516105189190612bac565b60405180910390f35b34801561052d57600080fd5b50610548600480360381019061054391906127e2565b612006565b005b34801561055657600080fd5b5061055f612089565b60405161056c91906124ed565b60405180910390f35b600060098484604051610589929190612c0d565b908152602001604051809103902060000180546105a590612c55565b9050116105e7576040517f08c379a00000000000000000000000000000000000000000000000000000000081526004016105de90612ce3565b60405180910390fd5b6000600984846040516105fb929190612c0d565b908152602001604051809103902090503373ffffffffffffffffffffffffffffffffffffffff168160010160009054906101000a900473ffffffffffffffffffffffffffffffffffffffff1673ffffffffffffffffffffffffffffffffffffffff161461069d576040517f08c379a000000000000000000000000000000000000000000000000000000000815260040161069490612d75565b60405180910390fd5b818160010160006101000a81548173ffffffffffffffffffffffffffffffffffffffff021916908373ffffffffffffffffffffffffffffffffffffffff16021790555050505050565b6000600654905090565b60055481565b6106fe612296565b6007600083815260200190815260200160002060405180610100016040529081600082015481526020016001820160009054906101000a900473ffffffffffffffffffffffffffffffffffffffff1673ffffffffffffffffffffffffffffffffffffffff1673ffffffffffffffffffffffffffffffffffffffff16815260200160028201805461078d90612c55565b80601f01602080910402602001604051908101604052809291908181526020018280546107b990612c55565b80156108065780601f106107db57610100808354040283529160200191610806565b820191906000526020600020905b8154815290600101906020018083116107e957829003601f168201915b5050505050815260200160038201805461081f90612c55565b80601f016020809104026020016040519081016040528092919081815260200182805461084b90612c55565b80156108985780601f1061086d57610100808354040283529160200191610898565b820191906000526020600020905b81548152906001019060200180831161087b57829003601f168201915b505050505081526020016004820180546108b190612c55565b80601f01602080910402602001604051908101604052809291908181526020018280546108dd90612c55565b801561092a5780601f106108ff5761010080835404028352916020019161092a565b820191906000526020600020905b81548152906001019060200180831161090d57829003601f168201915b5050505050815260200160058201805461094390612c55565b80601f016020809104026020016040519081016040528092919081815260200182805461096f90612c55565b80156109bc5780601f10610991576101008083540402835291602001916109bc565b820191906000526020600020905b81548152906001019060200180831161099f57829003601f168201915b505050505081526020016006820160009054906101000a900460ff161515151581526020016006820160019054906101000a900460ff1615151515815250509050919050565b60606008805480602002602001604051908101604052809291908181526020018280548015610a5057602002820191906000526020600020905b815481526020019060010190808311610a3c575b5050505050905090565b6060600b60008373ffffffffffffffffffffffffffffffffffffffff1673ffffffffffffffffffffffffffffffffffffffff168152602001908152602001600020805480602002602001604051908101604052809291908181526020018280548015610ae557602002820191906000526020600020905b815481526020019060010190808311610ad1575b50505050509050919050565b610af961208f565b610b0483838361210d565b505050565b610b1161208f565b610b1b60006121a6565b565b610b2561208f565b60006007600085815260200190815260200160002090506000816000015411610b83576040517f08c379a0000000000000000000000000000000000000000000000000000000008152600401610b7a90612de1565b60405180910390fd5b600015158160060160009054906101000a900460ff16151514610bdb576040517f08c379a0000000000000000000000000000000000000000000000000000000008152600401610bd290612e4d565b60405180910390fd5b600015158160060160019054906101000a900460ff16151514610c33576040517f08c379a0000000000000000000000000000000000000000000000000000000008152600401610c2a90612eb9565b60405180910390fd5b60018160060160016101000a81548160ff0219169083151502179055508282826005019182610c639291906130bf565b5060008160010160009054906101000a900473ffffffffffffffffffffffffffffffffffffffff1690508073ffffffffffffffffffffffffffffffffffffffff166108fc6004549081150290604051600060405180830381858888f19350505050158015610cd5573d6000803e3d6000fd5b507fe96570608b3d10656e0834bfc3fcc45b1e15f1659a0f95f0bd514ea112af3b5082604051610d0591906133b4565b60405180910390a15050505050565b600060098585604051610d28929190612c0d565b90815260200160405180910390206000018054610d4490612c55565b905011610d86576040517f08c379a0000000000000000000000000000000000000000000000000000000008152600401610d7d90612ce3565b60405180910390fd5b60098484604051610d98929190612c0d565b908152602001604051809103902060060160009054906101000a900460ff16610df6576040517f08c379a0000000000000000000000000000000000000000000000000000000008152600401610ded90613422565b60405180910390fd5b600454341015610e3b576040517f08c379a0000000000000000000000000000000000000000000000000000000008152600401610e32906134b4565b60405180910390fd5b610e45600161226a565b6000610e516001612280565b90506040518061010001604052808281526020013373ffffffffffffffffffffffffffffffffffffffff16815260200186868080601f016020809104026020016040519081016040528093929190818152602001838380828437600081840152601f19601f82011690508083019250505050505050815260200184848080601f016020809104026020016040519081016040528093929190818152602001838380828437600081840152601f19601f82011690508083019250505050505050815260200160405180602001604052806000815250815260200160405180602001604052806000815250815260200160001515815260200160001515815250600760008381526020019081526020016000206000820151816000015560208201518160010160006101000a81548173ffffffffffffffffffffffffffffffffffffffff021916908373ffffffffffffffffffffffffffffffffffffffff1602179055506040820151816002019081610fc891906134d4565b506060820151816003019081610fde91906134d4565b506080820151816004019081610ff491906134d4565b5060a082015181600501908161100a91906134d4565b5060c08201518160060160006101000a81548160ff02191690831515021790555060e08201518160060160016101000a81548160ff0219169083151502179055509050506008819080600181540180825580915050600190039060005260206000200160009091909190915055600b60003373ffffffffffffffffffffffffffffffffffffffff1673ffffffffffffffffffffffffffffffffffffffff1681526020019081526020016000208190806001815401808255809150506001900390600052602060002001600090919091909150557f894fec21971efec05c3480d0e1893e2384f8d07a22587ae28f7adcf1afc63f0d6007600083815260200190815260200160002060405161111e919061368e565b60405180910390a160006004543461113691906136df565b9050600081111561118f5760003390508073ffffffffffffffffffffffffffffffffffffffff166108fc839081150290604051600060405180830381858888f1935050505015801561118c573d6000803e3d6000fd5b50505b505050505050565b61119f61208f565b6000600983836040516111b3929190612c0d565b908152602001604051809103902060000180546111cf90612c55565b905011611211576040517f08c379a000000000000000000000000000000000000000000000000000000000815260040161120890612ce3565b60405180910390fd5b600060098383604051611225929190612c0d565b9081526020016040518091039020905060018160060160006101000a81548160ff021916908315150217905550505050565b60008060009054906101000a900473ffffffffffffffffffffffffffffffffffffffff16905090565b60065481565b61128e6122f5565b600983836040516112a0929190612c0d565b90815260200160405180910390206040518060e00160405290816000820180546112c990612c55565b80601f01602080910402602001604051908101604052809291908181526020018280546112f590612c55565b80156113425780601f1061131757610100808354040283529160200191611342565b820191906000526020600020905b81548152906001019060200180831161132557829003601f168201915b505050505081526020016001820160009054906101000a900473ffffffffffffffffffffffffffffffffffffffff1673ffffffffffffffffffffffffffffffffffffffff1673ffffffffffffffffffffffffffffffffffffffff1681526020016002820180546113b190612c55565b80601f01602080910402602001604051908101604052809291908181526020018280546113dd90612c55565b801561142a5780601f106113ff5761010080835404028352916020019161142a565b820191906000526020600020905b81548152906001019060200180831161140d57829003601f168201915b505050505081526020016003820154815260200160048201548152602001600582015481526020016006820160009054906101000a900460ff161515151581525050905092915050565b61147c61208f565b6000600254905060006002819055508173ffffffffffffffffffffffffffffffffffffffff166108fc829081150290604051600060405180830381858888f193505050501580156114d1573d6000803e3d6000fd5b505050565b6000600454905090565b60045481565b6114ee61208f565b6000600760008581526020019081526020016000209050600081600001541161154c576040517f08c379a000000000000000000000000000000000000000000000000000000000815260040161154390612de1565b60405180910390fd5b600015158160060160009054906101000a900460ff161515146115a4576040517f08c379a000000000000000000000000000000000000000000000000000000000815260040161159b90612e4d565b60405180910390fd5b600015158160060160019054906101000a900460ff161515146115fc576040517f08c379a00000000000000000000000000000000000000000000000000000000081526004016115f390612eb9565b60405180910390fd5b60006009826002016040516116119190613796565b90815260200160405180910390209050600081600001805461163290612c55565b905011611674576040517f08c379a000000000000000000000000000000000000000000000000000000000815260040161166b90612ce3565b60405180910390fd5b83838360040191826116879291906130bf565b5060018260060160006101000a81548160ff0219169083151502179055506006548160030160008282546116bb91906137ad565b925050819055506006548160040160008282546116d891906137ad565b9250508190555060018160050160008282546116f491906137ad565b9250508190555060065460045461170b91906136df565b6002600082825461171c91906137ad565b9250508190555060065460045461173391906136df565b6003600082825461174491906137ad565b925050819055507f879c785b27857739316681a9c0aa7ab79114f2fb3bfc8c7eaa733dfedea46ad28260405161177a91906133b4565b60405180910390a15050505050565b61179161208f565b6000600983836040516117a5929190612c0d565b908152602001604051809103902060000180546117c190612c55565b905011611803576040517f08c379a00000000000000000000000000000000000000000000000000000000081526004016117fa90612ce3565b60405180910390fd5b600060098383604051611817929190612c0d565b90815260200160405180910390209050600081600301541461186e576040517f08c379a000000000000000000000000000000000000000000000000000000000815260040161186590613853565b60405180910390fd5b60098383604051611880929190612c0d565b90815260200160405180910390206000808201600061189f919061234a565b6001820160006101000a81549073ffffffffffffffffffffffffffffffffffffffff02191690556002820160006118d6919061234a565b6003820160009055600482016000905560058201600090556006820160006101000a81549060ff0219169055505060005b600a80549050811015611a28578383604051602001611927929190612c0d565b60405160208183030381529060405280519060200120600a828154811061195157611950613873565b5b9060005260206000200160405160200161196b9190613796565b6040516020818303038152906040528051906020012003611a1557600a6001600a8054905061199a91906136df565b815481106119ab576119aa613873565b5b90600052602060002001600a82815481106119c9576119c8613873565b5b9060005260206000200190816119df91906138cd565b50600a8054806119f2576119f16139b5565b5b600190038181906000526020600020016000611a0e919061234a565b9055611a28565b8080611a20906139e4565b915050611907565b50505050565b600060098383604051611a42929190612c0d565b90815260200160405180910390206000018054611a5e90612c55565b905011611aa0576040517f08c379a0000000000000000000000000000000000000000000000000000000008152600401611a9790612ce3565b60405180910390fd5b600060098383604051611ab4929190612c0d565b908152602001604051809103902090503373ffffffffffffffffffffffffffffffffffffffff168160010160009054906101000a900473ffffffffffffffffffffffffffffffffffffffff1673ffffffffffffffffffffffffffffffffffffffff1614611b56576040517f08c379a0000000000000000000000000000000000000000000000000000000008152600401611b4d90612d75565b60405180910390fd5b6000816003015411611b9d576040517f08c379a0000000000000000000000000000000000000000000000000000000008152600401611b9490613a9e565b60405180910390fd5b6000816003015490506000826003018190555060003390508073ffffffffffffffffffffffffffffffffffffffff166108fc839081150290604051600060405180830381858888f19350505050158015611bfb573d6000803e3d6000fd5b505050505050565b60035481565b60008484905011611c4f576040517f08c379a0000000000000000000000000000000000000000000000000000000008152600401611c4690613b0a565b60405180910390fd5b600060098585604051611c63929190612c0d565b90815260200160405180910390206000018054611c7f90612c55565b905014611cc1576040517f08c379a0000000000000000000000000000000000000000000000000000000008152600401611cb890613b76565b60405180910390fd5b600554341015611d06576040517f08c379a0000000000000000000000000000000000000000000000000000000008152600401611cfd90613c08565b60405180910390fd5b600060098585604051611d1a929190612c0d565b90815260200160405180910390206000018054611d3690612c55565b905003611d7c57600a848490918060018154018082558091505060019003906000526020600020016000909192909192909192909192509182611d7a9291906130bf565b505b6040518060e0016040528085858080601f016020809104026020016040519081016040528093929190818152602001838380828437600081840152601f19601f8201169050808301925050505050505081526020013373ffffffffffffffffffffffffffffffffffffffff16815260200183838080601f016020809104026020016040519081016040528093929190818152602001838380828437600081840152601f19601f8201169050808301925050505050505081526020016000815260200160008152602001600081526020016000151581525060098585604051611e65929190612c0d565b90815260200160405180910390206000820151816000019081611e8891906134d4565b5060208201518160010160006101000a81548173ffffffffffffffffffffffffffffffffffffffff021916908373ffffffffffffffffffffffffffffffffffffffff1602179055506040820151816002019081611ee591906134d4565b50606082015181600301556080820151816004015560a0820151816005015560c08201518160060160006101000a81548160ff02191690831515021790555090505050505050565b6060600a805480602002602001604051908101604052809291908181526020016000905b82821015611ffd578382906000526020600020018054611f7090612c55565b80601f0160208091040260200160405190810160405280929190818152602001828054611f9c90612c55565b8015611fe95780601f10611fbe57610100808354040283529160200191611fe9565b820191906000526020600020905b815481529060010190602001808311611fcc57829003601f168201915b505050505081526020019060010190611f51565b50505050905090565b61200e61208f565b600073ffffffffffffffffffffffffffffffffffffffff168173ffffffffffffffffffffffffffffffffffffffff160361207d576040517f08c379a000000000000000000000000000000000000000000000000000000000815260040161207490613c9a565b60405180910390fd5b612086816121a6565b50565b60025481565b61209761228e565b73ffffffffffffffffffffffffffffffffffffffff166120b5611257565b73ffffffffffffffffffffffffffffffffffffffff161461210b576040517f08c379a000000000000000000000000000000000000000000000000000000000815260040161210290613d06565b60405180910390fd5b565b81811115612150576040517f08c379a000000000000000000000000000000000000000000000000000000000815260040161214790613d98565b60405180910390fd5b600083036121645767168d28e3f002800092505b600082036121785767024150e39800400091505b6000810361218c5767024150e39800400090505b826005819055508160048190555080600681905550505050565b60008060009054906101000a900473ffffffffffffffffffffffffffffffffffffffff169050816000806101000a81548173ffffffffffffffffffffffffffffffffffffffff021916908373ffffffffffffffffffffffffffffffffffffffff1602179055508173ffffffffffffffffffffffffffffffffffffffff168173ffffffffffffffffffffffffffffffffffffffff167f8be0079c531659141344cd1fd0a4f28419497f9722a3daafe3b4186f6b6457e060405160405180910390a35050565b6001816000016000828254019250508190555050565b600081600001549050919050565b600033905090565b60405180610100016040528060008152602001600073ffffffffffffffffffffffffffffffffffffffff168152602001606081526020016060815260200160608152602001606081526020016000151581526020016000151581525090565b6040518060e0016040528060608152602001600073ffffffffffffffffffffffffffffffffffffffff168152602001606081526020016000815260200160008152602001600081526020016000151581525090565b50805461235690612c55565b6000825580601f106123685750612387565b601f016020900490600052602060002090810190612386919061238a565b5b50565b5b808211156123a357600081600090555060010161238b565b5090565b600080fd5b600080fd5b600080fd5b600080fd5b600080fd5b60008083601f8401126123d6576123d56123b1565b5b8235905067ffffffffffffffff8111156123f3576123f26123b6565b5b60208301915083600182028301111561240f5761240e6123bb565b5b9250929050565b600073ffffffffffffffffffffffffffffffffffffffff82169050919050565b600061244182612416565b9050919050565b61245181612436565b811461245c57600080fd5b50565b60008135905061246e81612448565b92915050565b60008060006040848603121561248d5761248c6123a7565b5b600084013567ffffffffffffffff8111156124ab576124aa6123ac565b5b6124b7868287016123c0565b935093505060206124ca8682870161245f565b9150509250925092565b6000819050919050565b6124e7816124d4565b82525050565b600060208201905061250260008301846124de565b92915050565b612511816124d4565b811461251c57600080fd5b50565b60008135905061252e81612508565b92915050565b60006020828403121561254a576125496123a7565b5b60006125588482850161251f565b91505092915050565b61256a816124d4565b82525050565b61257981612436565b82525050565b600081519050919050565b600082825260208201905092915050565b60005b838110156125b957808201518184015260208101905061259e565b60008484015250505050565b6000601f19601f8301169050919050565b60006125e18261257f565b6125eb818561258a565b93506125fb81856020860161259b565b612604816125c5565b840191505092915050565b60008115159050919050565b6126248161260f565b82525050565b6000610100830160008301516126436000860182612561565b5060208301516126566020860182612570565b506040830151848203604086015261266e82826125d6565b9150506060830151848203606086015261268882826125d6565b915050608083015184820360808601526126a282826125d6565b91505060a083015184820360a08601526126bc82826125d6565b91505060c08301516126d160c086018261261b565b5060e08301516126e460e086018261261b565b508091505092915050565b60006020820190508181036000830152612709818461262a565b905092915050565b600081519050919050565b600082825260208201905092915050565b6000819050602082019050919050565b60006127498383612561565b60208301905092915050565b6000602082019050919050565b600061276d82612711565b612777818561271c565b93506127828361272d565b8060005b838110156127b357815161279a888261273d565b97506127a583612755565b925050600181019050612786565b5085935050505092915050565b600060208201905081810360008301526127da8184612762565b905092915050565b6000602082840312156127f8576127f76123a7565b5b60006128068482850161245f565b91505092915050565b600080600060608486031215612828576128276123a7565b5b60006128368682870161251f565b93505060206128478682870161251f565b92505060406128588682870161251f565b9150509250925092565b60008060006040848603121561287b5761287a6123a7565b5b60006128898682870161251f565b935050602084013567ffffffffffffffff8111156128aa576128a96123ac565b5b6128b6868287016123c0565b92509250509250925092565b600080600080604085870312156128dc576128db6123a7565b5b600085013567ffffffffffffffff8111156128fa576128f96123ac565b5b612906878288016123c0565b9450945050602085013567ffffffffffffffff811115612929576129286123ac565b5b612935878288016123c0565b925092505092959194509250565b6000806020838503121561295a576129596123a7565b5b600083013567ffffffffffffffff811115612978576129776123ac565b5b612984858286016123c0565b92509250509250929050565b61299981612436565b82525050565b60006020820190506129b46000830184612990565b92915050565b600060e08301600083015184820360008601526129d782826125d6565b91505060208301516129ec6020860182612570565b5060408301518482036040860152612a0482826125d6565b9150506060830151612a196060860182612561565b506080830151612a2c6080860182612561565b5060a0830151612a3f60a0860182612561565b5060c0830151612a5260c086018261261b565b508091505092915050565b60006020820190508181036000830152612a7781846129ba565b905092915050565b6000612a8a82612416565b9050919050565b612a9a81612a7f565b8114612aa557600080fd5b50565b600081359050612ab781612a91565b92915050565b600060208284031215612ad357612ad26123a7565b5b6000612ae184828501612aa8565b91505092915050565b600081519050919050565b600082825260208201905092915050565b6000819050602082019050919050565b6000612b2283836125d6565b905092915050565b6000602082019050919050565b6000612b4282612aea565b612b4c8185612af5565b935083602082028501612b5e85612b06565b8060005b85811015612b9a5784840389528151612b7b8582612b16565b9450612b8683612b2a565b925060208a01995050600181019050612b62565b50829750879550505050505092915050565b60006020820190508181036000830152612bc68184612b37565b905092915050565b600081905092915050565b82818337600083830152505050565b6000612bf48385612bce565b9350612c01838584612bd9565b82840190509392505050565b6000612c1a828486612be8565b91508190509392505050565b7f4e487b7100000000000000000000000000000000000000000000000000000000600052602260045260246000fd5b60006002820490506001821680612c6d57607f821691505b602082108103612c8057612c7f612c26565b5b50919050565b600082825260208201905092915050565b7f61727469737420646f6573206e6f742065786973740000000000000000000000600082015250565b6000612ccd601583612c86565b9150612cd882612c97565b602082019050919050565b60006020820190508181036000830152612cfc81612cc0565b9050919050565b7f6f6e6c79207468652061727469737427732077616c6c65742063616e2063616c60008201527f6c20746869732066756e6374696f6e0000000000000000000000000000000000602082015250565b6000612d5f602f83612c86565b9150612d6a82612d03565b604082019050919050565b60006020820190508181036000830152612d8e81612d52565b9050919050565b7f696d61676520646f6573206e6f74206578697374000000000000000000000000600082015250565b6000612dcb601483612c86565b9150612dd682612d95565b602082019050919050565b60006020820190508181036000830152612dfa81612dbe565b9050919050565b7f696d61676520616c726561647920636f6d706c65746500000000000000000000600082015250565b6000612e37601683612c86565b9150612e4282612e01565b602082019050919050565b60006020820190508181036000830152612e6681612e2a565b9050919050565b7f696d616765207761732063616e63616c6c656400000000000000000000000000600082015250565b6000612ea3601383612c86565b9150612eae82612e6d565b602082019050919050565b60006020820190508181036000830152612ed281612e96565b9050919050565b600082905092915050565b7f4e487b7100000000000000000000000000000000000000000000000000000000600052604160045260246000fd5b60008190508160005260206000209050919050565b60006020601f8301049050919050565b600082821b905092915050565b600060088302612f757fffffffffffffffffffffffffffffffffffffffffffffffffffffffffffffffff82612f38565b612f7f8683612f38565b95508019841693508086168417925050509392505050565b6000819050919050565b6000612fbc612fb7612fb2846124d4565b612f97565b6124d4565b9050919050565b6000819050919050565b612fd683612fa1565b612fea612fe282612fc3565b848454612f45565b825550505050565b600090565b612fff612ff2565b61300a818484612fcd565b505050565b5b8181101561302e57613023600082612ff7565b600181019050613010565b5050565b601f8211156130735761304481612f13565b61304d84612f28565b8101602085101561305c578190505b61307061306885612f28565b83018261300f565b50505b505050565b600082821c905092915050565b600061309660001984600802613078565b1980831691505092915050565b60006130af8383613085565b9150826002028217905092915050565b6130c98383612ed9565b67ffffffffffffffff8111156130e2576130e1612ee4565b5b6130ec8254612c55565b6130f7828285613032565b6000601f8311600181146131265760008415613114578287013590505b61311e85826130a3565b865550613186565b601f19841661313486612f13565b60005b8281101561315c57848901358255600182019150602085019450602081019050613137565b868310156131795784890135613175601f891682613085565b8355505b6001600288020188555050505b50505050505050565b60008160001c9050919050565b6000819050919050565b60006131b96131b48361318f565b61319c565b9050919050565b600073ffffffffffffffffffffffffffffffffffffffff82169050919050565b60006131f36131ee8361318f565b6131c0565b9050919050565b6000815461320781612c55565b613211818661258a565b9450600182166000811461322c576001811461324257613275565b60ff198316865281151560200286019350613275565b61324b85612f13565b60005b8381101561326d5781548189015260018201915060208101905061324e565b808801955050505b50505092915050565b600060ff82169050919050565b600061329e6132998361318f565b61327e565b9050919050565b60008160081c9050919050565b60006132c56132c0836132a5565b61327e565b9050919050565b6000610100830160008084015490506132e4816131a6565b6132f16000870182612561565b5060018401549050613302816131e0565b61330f6020870182612570565b5060028401858303604087015261332683826131fa565b92505060038401858303606087015261333f83826131fa565b92505060048401858303608087015261335883826131fa565b9250506005840185830360a087015261337183826131fa565b925050600684015490506133848161328b565b61339160c087018261261b565b5061339b816132b2565b6133a860e087018261261b565b50819250505092915050565b600060208201905081810360008301526133ce81846132cc565b905092915050565b7f61727469737420686173206e6f74206265656e20747261696e65640000000000600082015250565b600061340c601b83612c86565b9150613417826133d6565b602082019050919050565b6000602082019050818103600083015261343b816133ff565b9050919050565b7f6e6f7420656e6f7567682046494c2073656e7420746f2070617920666f72206960008201527f6d61676500000000000000000000000000000000000000000000000000000000602082015250565b600061349e602483612c86565b91506134a982613442565b604082019050919050565b600060208201905081810360008301526134cd81613491565b9050919050565b6134dd8261257f565b67ffffffffffffffff8111156134f6576134f5612ee4565b5b6135008254612c55565b61350b828285613032565b600060209050601f83116001811461353e576000841561352c578287015190505b61353685826130a3565b86555061359e565b601f19841661354c86612f13565b60005b828110156135745784890151825560018201915060208501945060208101905061354f565b86831015613591578489015161358d601f891682613085565b8355505b6001600288020188555050505b505050505050565b6000610100830160008084015490506135be816131a6565b6135cb6000870182612561565b50600184015490506135dc816131e0565b6135e96020870182612570565b5060028401858303604087015261360083826131fa565b92505060038401858303606087015261361983826131fa565b92505060048401858303608087015261363283826131fa565b9250506005840185830360a087015261364b83826131fa565b9250506006840154905061365e8161328b565b61366b60c087018261261b565b50613675816132b2565b61368260e087018261261b565b50819250505092915050565b600060208201905081810360008301526136a881846135a6565b905092915050565b7f4e487b7100000000000000000000000000000000000000000000000000000000600052601160045260246000fd5b60006136ea826124d4565b91506136f5836124d4565b925082820390508181111561370d5761370c6136b0565b5b92915050565b6000815461372081612c55565b61372a8186612bce565b94506001821660008114613745576001811461375a5761378d565b60ff198316865281151582028601935061378d565b61376385612f13565b60005b8381101561378557815481890152600182019150602081019050613766565b838801955050505b50505092915050565b60006137a28284613713565b915081905092915050565b60006137b8826124d4565b91506137c3836124d4565b92508282019050808211156137db576137da6136b0565b5b92915050565b7f706c65617365206861766520746865206172746973742077697468647261772060008201527f657363726f772066697273740000000000000000000000000000000000000000602082015250565b600061383d602c83612c86565b9150613848826137e1565b604082019050919050565b6000602082019050818103600083015261386c81613830565b9050919050565b7f4e487b7100000000000000000000000000000000000000000000000000000000600052603260045260246000fd5b6000815490506138b181612c55565b9050919050565b60008190508160005260206000209050919050565b8181036138db5750506139b3565b6138e4826138a2565b67ffffffffffffffff8111156138fd576138fc612ee4565b5b6139078254612c55565b613912828285613032565b6000601f831160018114613941576000841561392f578287015490505b61393985826130a3565b8655506139ac565b601f19841661394f876138b8565b965061395a86612f13565b60005b828110156139825784890154825560018201915060018501945060208101905061395d565b8683101561399f578489015461399b601f891682613085565b8355505b6001600288020188555050505b5050505050505b565b7f4e487b7100000000000000000000000000000000000000000000000000000000600052603160045260246000fd5b60006139ef826124d4565b91507fffffffffffffffffffffffffffffffffffffffffffffffffffffffffffffffff8203613a2157613a206136b0565b5b600182019050919050565b7f61727469737420646f6573206e6f74206861766520616e79206d6f6e6579207460008201527f6f20776974686472617700000000000000000000000000000000000000000000602082015250565b6000613a88602a83612c86565b9150613a9382613a2c565b604082019050919050565b60006020820190508181036000830152613ab781613a7b565b9050919050565b7f706c656173652070726f7669646520616e206964000000000000000000000000600082015250565b6000613af4601483612c86565b9150613aff82613abe565b602082019050919050565b60006020820190508181036000830152613b2381613ae7565b9050919050565b7f61727469737420616c7265616479206578697374730000000000000000000000600082015250565b6000613b60601583612c86565b9150613b6b82613b2a565b602082019050919050565b60006020820190508181036000830152613b8f81613b53565b9050919050565b7f6e6f7420656e6f7567682046494c2073656e7420746f2070617920666f72207460008201527f7261696e696e6720617274697374000000000000000000000000000000000000602082015250565b6000613bf2602e83612c86565b9150613bfd82613b96565b604082019050919050565b60006020820190508181036000830152613c2181613be5565b9050919050565b7f4f776e61626c653a206e6577206f776e657220697320746865207a65726f206160008201527f6464726573730000000000000000000000000000000000000000000000000000602082015250565b6000613c84602683612c86565b9150613c8f82613c28565b604082019050919050565b60006020820190508181036000830152613cb381613c77565b9050919050565b7f4f776e61626c653a2063616c6c6572206973206e6f7420746865206f776e6572600082015250565b6000613cf0602083612c86565b9150613cfb82613cba565b602082019050919050565b60006020820190508181036000830152613d1f81613ce3565b9050919050565b7f61727469737420636f6d6d697373696f6e206d757374206265206c657373207460008201527f68616e206f7220657175616c20746f20696d61676520636f7374000000000000602082015250565b6000613d82603a83612c86565b9150613d8d82613d26565b604082019050919050565b60006020820190508181036000830152613db181613d75565b905091905056fea26469706673582212202b11554f16eea1474dd28657762ba2a5804f4c275626a315d4528afebf01813964736f6c63430008110033",
  "linkReferences": {},
  "deployedLinkReferences": {}
}