{
  "_format": "hh-sol-artifact-1",
  "contractName": "ArtistAttribution",
  "sourceName": "contracts/ArtistAttribution.sol",
  "abi": [
    {
      "inputs": [
        {
          "internalType": "address",
          "name": "_eventsContractAddress",
          "type": "address"
        },
        {
          "internalType": "uint256",
          "name": "_imageCost",
          "type": "uint256"
        },
        {
          "internalType": "uint256",
          "name": "_artistCommission",
          "type": "uint256"
        }
      ],
      "stateMutability": "nonpayable",
      "type": "constructor"
    },
    {
      "anonymous": false,
      "inputs": [
        {
          "components": [
            {
              "internalType": "uint256",
              "name": "id",
              "type": "uint256"
            },
            {
              "internalType": "address",
              "name": "customer",
              "type": "address"
            },
            {
              "internalType": "string",
              "name": "artist",
              "type": "string"
            },
            {
              "internalType": "string",
              "name": "prompt",
              "type": "string"
            },
            {
              "internalType": "string",
              "name": "ipfsResult",
              "type": "string"
            },
            {
              "internalType": "string",
              "name": "errorMessage",
              "type": "string"
            },
            {
              "internalType": "bool",
              "name": "isComplete",
              "type": "bool"
            },
            {
              "internalType": "bool",
              "name": "isCancelled",
              "type": "bool"
            }
          ],
          "indexed": false,
          "internalType": "struct ArtistAttribution.StableDiffusionImage",
          "name": "image",
          "type": "tuple"
        }
      ],
      "name": "ImageCancelled",
      "type": "event"
    },
    {
      "anonymous": false,
      "inputs": [
        {
          "components": [
            {
              "internalType": "uint256",
              "name": "id",
              "type": "uint256"
            },
            {
              "internalType": "address",
              "name": "customer",
              "type": "address"
            },
            {
              "internalType": "string",
              "name": "artist",
              "type": "string"
            },
            {
              "internalType": "string",
              "name": "prompt",
              "type": "string"
            },
            {
              "internalType": "string",
              "name": "ipfsResult",
              "type": "string"
            },
            {
              "internalType": "string",
              "name": "errorMessage",
              "type": "string"
            },
            {
              "internalType": "bool",
              "name": "isComplete",
              "type": "bool"
            },
            {
              "internalType": "bool",
              "name": "isCancelled",
              "type": "bool"
            }
          ],
          "indexed": false,
          "internalType": "struct ArtistAttribution.StableDiffusionImage",
          "name": "image",
          "type": "tuple"
        }
      ],
      "name": "ImageGenerated",
      "type": "event"
    },
    {
      "anonymous": false,
      "inputs": [
        {
          "indexed": true,
          "internalType": "address",
          "name": "previousOwner",
          "type": "address"
        },
        {
          "indexed": true,
          "internalType": "address",
          "name": "newOwner",
          "type": "address"
        }
      ],
      "name": "OwnershipTransferred",
      "type": "event"
    },
    {
      "inputs": [
        {
          "internalType": "string",
          "name": "_artistID",
          "type": "string"
        },
        {
          "internalType": "string",
          "name": "_prompt",
          "type": "string"
        }
      ],
      "name": "StableDiffusion",
      "outputs": [],
      "stateMutability": "payable",
      "type": "function"
    },
    {
      "inputs": [
        {
          "internalType": "address payable",
          "name": "to",
          "type": "address"
        }
      ],
      "name": "adminWithdraw",
      "outputs": [],
      "stateMutability": "payable",
      "type": "function"
    },
    {
      "inputs": [],
      "name": "artistCommission",
      "outputs": [
        {
          "internalType": "uint256",
          "name": "",
          "type": "uint256"
        }
      ],
      "stateMutability": "view",
      "type": "function"
    },
    {
      "inputs": [],
      "name": "artistWithdraw",
      "outputs": [],
      "stateMutability": "payable",
      "type": "function"
    },
    {
      "inputs": [],
      "name": "bridge",
      "outputs": [
        {
          "internalType": "contract LilypadEvents",
          "name": "",
          "type": "address"
        }
      ],
      "stateMutability": "view",
      "type": "function"
    },
    {
      "inputs": [
        {
          "internalType": "address",
          "name": "_newBridgeAddress",
          "type": "address"
        }
      ],
      "name": "changeBridge",
      "outputs": [],
      "stateMutability": "nonpayable",
      "type": "function"
    },
    {
      "inputs": [],
      "name": "computeProviderEscrow",
      "outputs": [
        {
          "internalType": "uint256",
          "name": "",
          "type": "uint256"
        }
      ],
      "stateMutability": "view",
      "type": "function"
    },
    {
      "inputs": [],
      "name": "computeProviderRevenue",
      "outputs": [
        {
          "internalType": "uint256",
          "name": "",
          "type": "uint256"
        }
      ],
      "stateMutability": "view",
      "type": "function"
    },
    {
      "inputs": [
        {
          "internalType": "string",
          "name": "id",
          "type": "string"
        }
      ],
      "name": "deleteArtist",
      "outputs": [],
      "stateMutability": "nonpayable",
      "type": "function"
    },
    {
      "inputs": [
        {
          "internalType": "string",
          "name": "id",
          "type": "string"
        }
      ],
      "name": "getArtist",
      "outputs": [
        {
          "components": [
            {
              "internalType": "string",
              "name": "id",
              "type": "string"
            },
            {
              "internalType": "address",
              "name": "wallet",
              "type": "address"
            },
            {
              "internalType": "string",
              "name": "metadata",
              "type": "string"
            },
            {
              "internalType": "uint256",
              "name": "escrow",
              "type": "uint256"
            },
            {
              "internalType": "uint256",
              "name": "revenue",
              "type": "uint256"
            },
            {
              "internalType": "uint256",
              "name": "numJobsRun",
              "type": "uint256"
            }
          ],
          "internalType": "struct ArtistAttribution.Artist",
          "name": "",
          "type": "tuple"
        }
      ],
      "stateMutability": "view",
      "type": "function"
    },
    {
      "inputs": [],
      "name": "getArtistCommission",
      "outputs": [
        {
          "internalType": "uint256",
          "name": "",
          "type": "uint256"
        }
      ],
      "stateMutability": "view",
      "type": "function"
    },
    {
      "inputs": [],
      "name": "getArtistIDs",
      "outputs": [
        {
          "internalType": "string[]",
          "name": "",
          "type": "string[]"
        }
      ],
      "stateMutability": "view",
      "type": "function"
    },
    {
      "inputs": [
        {
          "internalType": "address",
          "name": "customerAddress",
          "type": "address"
        }
      ],
      "name": "getCustomerImages",
      "outputs": [
        {
          "internalType": "uint256[]",
          "name": "",
          "type": "uint256[]"
        }
      ],
      "stateMutability": "view",
      "type": "function"
    },
    {
      "inputs": [
        {
          "internalType": "uint256",
          "name": "id",
          "type": "uint256"
        }
      ],
      "name": "getImage",
      "outputs": [
        {
          "components": [
            {
              "internalType": "uint256",
              "name": "id",
              "type": "uint256"
            },
            {
              "internalType": "address",
              "name": "customer",
              "type": "address"
            },
            {
              "internalType": "string",
              "name": "artist",
              "type": "string"
            },
            {
              "internalType": "string",
              "name": "prompt",
              "type": "string"
            },
            {
              "internalType": "string",
              "name": "ipfsResult",
              "type": "string"
            },
            {
              "internalType": "string",
              "name": "errorMessage",
              "type": "string"
            },
            {
              "internalType": "bool",
              "name": "isComplete",
              "type": "bool"
            },
            {
              "internalType": "bool",
              "name": "isCancelled",
              "type": "bool"
            }
          ],
          "internalType": "struct ArtistAttribution.StableDiffusionImage",
          "name": "",
          "type": "tuple"
        }
      ],
      "stateMutability": "view",
      "type": "function"
    },
    {
      "inputs": [],
      "name": "getImageCost",
      "outputs": [
        {
          "internalType": "uint256",
          "name": "",
          "type": "uint256"
        }
      ],
      "stateMutability": "view",
      "type": "function"
    },
    {
      "inputs": [],
      "name": "getImageIDs",
      "outputs": [
        {
          "internalType": "uint256[]",
          "name": "",
          "type": "uint256[]"
        }
      ],
      "stateMutability": "view",
      "type": "function"
    },
    {
      "inputs": [],
      "name": "imageCost",
      "outputs": [
        {
          "internalType": "uint256",
          "name": "",
          "type": "uint256"
        }
      ],
      "stateMutability": "view",
      "type": "function"
    },
    {
      "inputs": [
        {
          "internalType": "address",
          "name": "_from",
          "type": "address"
        },
        {
          "internalType": "uint256",
          "name": "_jobId",
          "type": "uint256"
        },
        {
          "internalType": "string",
          "name": "_errorMsg",
          "type": "string"
        }
      ],
      "name": "lilypadCancelled",
      "outputs": [],
      "stateMutability": "nonpayable",
      "type": "function"
    },
    {
      "inputs": [
        {
          "internalType": "address",
          "name": "_from",
          "type": "address"
        },
        {
          "internalType": "uint256",
          "name": "_jobId",
          "type": "uint256"
        },
        {
          "internalType": "enum LilypadResultType",
          "name": "_resultType",
          "type": "uint8"
        },
        {
          "internalType": "string",
          "name": "_result",
          "type": "string"
        }
      ],
      "name": "lilypadFulfilled",
      "outputs": [],
      "stateMutability": "nonpayable",
      "type": "function"
    },
    {
      "inputs": [],
      "name": "owner",
      "outputs": [
        {
          "internalType": "address",
          "name": "",
          "type": "address"
        }
      ],
      "stateMutability": "view",
      "type": "function"
    },
    {
      "inputs": [],
      "name": "renounceOwnership",
      "outputs": [],
      "stateMutability": "nonpayable",
      "type": "function"
    },
    {
      "inputs": [
        {
          "internalType": "address",
          "name": "newOwner",
          "type": "address"
        }
      ],
      "name": "transferOwnership",
      "outputs": [],
      "stateMutability": "nonpayable",
      "type": "function"
    },
    {
      "inputs": [
        {
          "internalType": "string",
          "name": "id",
          "type": "string"
        },
        {
          "internalType": "address",
          "name": "wallet",
          "type": "address"
        },
        {
          "internalType": "string",
          "name": "metadata",
          "type": "string"
        }
      ],
      "name": "updateArtist",
      "outputs": [],
      "stateMutability": "nonpayable",
      "type": "function"
    },
    {
      "inputs": [
        {
          "internalType": "uint256",
          "name": "_imageCost",
          "type": "uint256"
        },
        {
          "internalType": "uint256",
          "name": "_artistCommission",
          "type": "uint256"
        }
      ],
      "name": "updateCost",
      "outputs": [],
      "stateMutability": "nonpayable",
      "type": "function"
    }
  ],
  "bytecode": "0x60806040523480156200001157600080fd5b50604051620044f0380380620044f08339818101604052810190620000379190620002a6565b620000576200004b620000b360201b60201c565b620000bb60201b60201c565b6200006982826200017f60201b60201c565b82600160006101000a81548173ffffffffffffffffffffffffffffffffffffffff021916908373ffffffffffffffffffffffffffffffffffffffff160217905550505050620003ab565b600033905090565b60008060009054906101000a900473ffffffffffffffffffffffffffffffffffffffff169050816000806101000a81548173ffffffffffffffffffffffffffffffffffffffff021916908373ffffffffffffffffffffffffffffffffffffffff1602179055508173ffffffffffffffffffffffffffffffffffffffff168173ffffffffffffffffffffffffffffffffffffffff167f8be0079c531659141344cd1fd0a4f28419497f9722a3daafe3b4186f6b6457e060405160405180910390a35050565b81811115620001c5576040517f08c379a0000000000000000000000000000000000000000000000000000000008152600401620001bc9062000389565b60405180910390fd5b60008203620001da5767024150e39800400091505b60008103620001ef5767024150e39800400090505b81600481905550806005819055505050565b600080fd5b600073ffffffffffffffffffffffffffffffffffffffff82169050919050565b6000620002338262000206565b9050919050565b620002458162000226565b81146200025157600080fd5b50565b60008151905062000265816200023a565b92915050565b6000819050919050565b62000280816200026b565b81146200028c57600080fd5b50565b600081519050620002a08162000275565b92915050565b600080600060608486031215620002c257620002c162000201565b5b6000620002d28682870162000254565b9350506020620002e5868287016200028f565b9250506040620002f8868287016200028f565b9150509250925092565b600082825260208201905092915050565b7f61727469737420636f6d6d697373696f6e206d757374206265206c657373207460008201527f68616e206f7220657175616c20746f20696d61676520636f7374000000000000602082015250565b600062000371603a8362000302565b91506200037e8262000313565b604082019050919050565b60006020820190508181036000830152620003a48162000362565b9050919050565b61413580620003bb6000396000f3fe60806040526004361061014b5760003560e01c8063a5f8e131116100b6578063e156ecf71161006f578063e156ecf71461043c578063e6b73d6914610458578063e78cea9214610483578063ec32d942146104ae578063f2fde38b146104d9578063feadcdeb146105025761014b565b8063a5f8e13114610361578063a6e994711461038c578063c3791332146103b7578063d415380e146103e0578063d5040d6514610409578063d8c76606146104325761014b565b806355f210721161010857806355f210721461025e578063715018a61461029b5780638da5cb5b146102b2578063983586b1146102dd578063a2498ab314610308578063a28835b6146103455761014b565b8063072792b114610150578063087744101461017b5780632607aafa146101a45780633487823e146101e1578063353144611461020a57806353f4fa8314610233575b600080fd5b34801561015c57600080fd5b5061016561052d565b6040516101729190612543565b60405180910390f35b34801561018757600080fd5b506101a2600480360381019061019d91906125c6565b610537565b005b3480156101b057600080fd5b506101cb60048036038101906101c6919061261f565b610583565b6040516101d891906127da565b60405180910390f35b3480156101ed57600080fd5b5061020860048036038101906102039190612861565b61088f565b005b34801561021657600080fd5b50610231600480360381019061022c91906128d5565b610ad9565b005b34801561023f57600080fd5b50610248610aef565b60405161025591906129c4565b60405180910390f35b34801561026a57600080fd5b50610285600480360381019061028091906125c6565b610b47565b60405161029291906129c4565b60405180910390f35b3480156102a757600080fd5b506102b0610bde565b005b3480156102be57600080fd5b506102c7610bf2565b6040516102d491906129f5565b60405180910390f35b3480156102e957600080fd5b506102f2610c1b565b6040516102ff9190612543565b60405180910390f35b34801561031457600080fd5b5061032f600480360381019061032a9190612a10565b610c21565b60405161033c9190612aed565b60405180910390f35b61035f600480360381019061035a9190612b4d565b610df4565b005b34801561036d57600080fd5b50610376610e56565b6040516103839190612543565b60405180910390f35b34801561039857600080fd5b506103a1610e60565b6040516103ae9190612543565b60405180910390f35b3480156103c357600080fd5b506103de60048036038101906103d99190612b7a565b610e66565b005b3480156103ec57600080fd5b5061040760048036038101906104029190612a10565b611102565b005b34801561041557600080fd5b50610430600480360381019061042b9190612c34565b611402565b005b61043a61172a565b005b61045660048036038101906104519190612cbc565b611934565b005b34801561046457600080fd5b5061046d611eac565b60405161047a9190612543565b60405180910390f35b34801561048f57600080fd5b50610498611eb2565b6040516104a59190612d9c565b60405180910390f35b3480156104ba57600080fd5b506104c3611ed8565b6040516104d09190612e79565b60405180910390f35b3480156104e557600080fd5b5061050060048036038101906104fb91906125c6565b611fb1565b005b34801561050e57600080fd5b50610517612034565b6040516105249190612543565b60405180910390f35b6000600554905090565b61053f61203a565b80600160006101000a81548173ffffffffffffffffffffffffffffffffffffffff021916908373ffffffffffffffffffffffffffffffffffffffff16021790555050565b61058b612422565b6006600083815260200190815260200160002060405180610100016040529081600082015481526020016001820160009054906101000a900473ffffffffffffffffffffffffffffffffffffffff1673ffffffffffffffffffffffffffffffffffffffff1673ffffffffffffffffffffffffffffffffffffffff16815260200160028201805461061a90612eca565b80601f016020809104026020016040519081016040528092919081815260200182805461064690612eca565b80156106935780601f1061066857610100808354040283529160200191610693565b820191906000526020600020905b81548152906001019060200180831161067657829003601f168201915b505050505081526020016003820180546106ac90612eca565b80601f01602080910402602001604051908101604052809291908181526020018280546106d890612eca565b80156107255780601f106106fa57610100808354040283529160200191610725565b820191906000526020600020905b81548152906001019060200180831161070857829003601f168201915b5050505050815260200160048201805461073e90612eca565b80601f016020809104026020016040519081016040528092919081815260200182805461076a90612eca565b80156107b75780601f1061078c576101008083540402835291602001916107b7565b820191906000526020600020905b81548152906001019060200180831161079a57829003601f168201915b505050505081526020016005820180546107d090612eca565b80601f01602080910402602001604051908101604052809291908181526020018280546107fc90612eca565b80156108495780601f1061081e57610100808354040283529160200191610849565b820191906000526020600020905b81548152906001019060200180831161082c57829003601f168201915b505050505081526020016006820160009054906101000a900460ff161515151581526020016006820160019054906101000a900460ff1615151515815250509050919050565b600160009054906101000a900473ffffffffffffffffffffffffffffffffffffffff1673ffffffffffffffffffffffffffffffffffffffff168473ffffffffffffffffffffffffffffffffffffffff16146108e957600080fd5b60006006600085815260200190815260200160002090506000816000015411610947576040517f08c379a000000000000000000000000000000000000000000000000000000000815260040161093e90612f58565b60405180910390fd5b600015158160060160009054906101000a900460ff1615151461099f576040517f08c379a000000000000000000000000000000000000000000000000000000000815260040161099690612fc4565b60405180910390fd5b600015158160060160019054906101000a900460ff161515146109f7576040517f08c379a00000000000000000000000000000000000000000000000000000000081526004016109ee90613030565b60405180910390fd5b60018160060160016101000a81548160ff0219169083151502179055508282826005019182610a2792919061322c565b5060008160010160009054906101000a900473ffffffffffffffffffffffffffffffffffffffff1690508073ffffffffffffffffffffffffffffffffffffffff166108fc6004549081150290604051600060405180830381858888f19350505050158015610a99573d6000803e3d6000fd5b507fc33d7af141f1c5d8de8bb9961e0dcd4f378c1f0e4eee5856b51514fad582852882604051610ac99190613521565b60405180910390a1505050505050565b610ae161203a565b610aeb82826120b8565b5050565b60606007805480602002602001604051908101604052809291908181526020018280548015610b3d57602002820191906000526020600020905b815481526020019060010190808311610b29575b5050505050905090565b6060600b60008373ffffffffffffffffffffffffffffffffffffffff1673ffffffffffffffffffffffffffffffffffffffff168152602001908152602001600020805480602002602001604051908101604052809291908181526020018280548015610bd257602002820191906000526020600020905b815481526020019060010190808311610bbe575b50505050509050919050565b610be661203a565b610bf06000612135565b565b60008060009054906101000a900473ffffffffffffffffffffffffffffffffffffffff16905090565b60055481565b610c29612481565b60088383604051610c3b929190613582565b90815260200160405180910390206040518060c0016040529081600082018054610c6490612eca565b80601f0160208091040260200160405190810160405280929190818152602001828054610c9090612eca565b8015610cdd5780601f10610cb257610100808354040283529160200191610cdd565b820191906000526020600020905b815481529060010190602001808311610cc057829003601f168201915b505050505081526020016001820160009054906101000a900473ffffffffffffffffffffffffffffffffffffffff1673ffffffffffffffffffffffffffffffffffffffff1673ffffffffffffffffffffffffffffffffffffffff168152602001600282018054610d4c90612eca565b80601f0160208091040260200160405190810160405280929190818152602001828054610d7890612eca565b8015610dc55780601f10610d9a57610100808354040283529160200191610dc5565b820191906000526020600020905b815481529060010190602001808311610da857829003601f168201915b505050505081526020016003820154815260200160048201548152602001600582015481525050905092915050565b610dfc61203a565b6000600254905060006002819055508173ffffffffffffffffffffffffffffffffffffffff166108fc829081150290604051600060405180830381858888f19350505050158015610e51573d6000803e3d6000fd5b505050565b6000600454905090565b60045481565b610e6e61203a565b60008585905011610eb4576040517f08c379a0000000000000000000000000000000000000000000000000000000008152600401610eab906135e7565b60405180910390fd5b600060088686604051610ec8929190613582565b90815260200160405180910390206000018054610ee490612eca565b905003610f2a57600a858590918060018154018082558091505060019003906000526020600020016000909192909192909192909192509182610f2892919061322c565b505b6040518060c0016040528086868080601f016020809104026020016040519081016040528093929190818152602001838380828437600081840152601f19601f8201169050808301925050505050505081526020018473ffffffffffffffffffffffffffffffffffffffff16815260200183838080601f016020809104026020016040519081016040528093929190818152602001838380828437600081840152601f19601f820116905080830192505050505050508152602001600081526020016000815260200160008152506008868660405161100a929190613582565b9081526020016040518091039020600082015181600001908161102d9190613607565b5060208201518160010160006101000a81548173ffffffffffffffffffffffffffffffffffffffff021916908373ffffffffffffffffffffffffffffffffffffffff160217905550604082015181600201908161108a9190613607565b50606082015181600301556080820151816004015560a082015181600501559050508484600960008673ffffffffffffffffffffffffffffffffffffffff1673ffffffffffffffffffffffffffffffffffffffff16815260200190815260200160002091826110fa92919061322c565b505050505050565b61110a61203a565b60006008838360405161111e929190613582565b9081526020016040518091039020600001805461113a90612eca565b90501161117c576040517f08c379a000000000000000000000000000000000000000000000000000000000815260040161117390613725565b60405180910390fd5b600060088383604051611190929190613582565b9081526020016040518091039020905060008160030154146111e7576040517f08c379a00000000000000000000000000000000000000000000000000000000081526004016111de906137b7565b60405180910390fd5b600960008260010160009054906101000a900473ffffffffffffffffffffffffffffffffffffffff1673ffffffffffffffffffffffffffffffffffffffff1673ffffffffffffffffffffffffffffffffffffffff168152602001908152602001600020600061125691906124cd565b60088383604051611268929190613582565b90815260200160405180910390206000808201600061128791906124cd565b6001820160006101000a81549073ffffffffffffffffffffffffffffffffffffffff02191690556002820160006112be91906124cd565b600382016000905560048201600090556005820160009055505060005b600a805490508110156113fc5783836040516020016112fb929190613582565b60405160208183030381529060405280519060200120600a8281548110611325576113246137d7565b5b9060005260206000200160405160200161133f9190613889565b60405160208183030381529060405280519060200120036113e957600a6001600a8054905061136e91906138cf565b8154811061137f5761137e6137d7565b5b90600052602060002001600a828154811061139d5761139c6137d7565b5b9060005260206000200190816113b3919061392e565b50600a8054806113c6576113c5613a16565b5b6001900381819060005260206000200160006113e291906124cd565b90556113fc565b80806113f490613a45565b9150506112db565b50505050565b600160009054906101000a900473ffffffffffffffffffffffffffffffffffffffff1673ffffffffffffffffffffffffffffffffffffffff168573ffffffffffffffffffffffffffffffffffffffff161461145c57600080fd5b600060038111156114705761146f613a8d565b5b83600381111561148357611482613a8d565b5b1461148d57600080fd5b600060066000868152602001908152602001600020905060008160000154116114eb576040517f08c379a00000000000000000000000000000000000000000000000000000000081526004016114e290612f58565b60405180910390fd5b600015158160060160009054906101000a900460ff16151514611543576040517f08c379a000000000000000000000000000000000000000000000000000000000815260040161153a90612fc4565b60405180910390fd5b600015158160060160019054906101000a900460ff1615151461159b576040517f08c379a000000000000000000000000000000000000000000000000000000000815260040161159290613030565b60405180910390fd5b60006008826002016040516115b09190613889565b9081526020016040518091039020905060008160000180546115d190612eca565b905011611613576040517f08c379a000000000000000000000000000000000000000000000000000000000815260040161160a90613725565b60405180910390fd5b838383600401918261162692919061322c565b5060018260060160006101000a81548160ff02191690831515021790555060055481600301600082825461165a9190613abc565b925050819055506005548160040160008282546116779190613abc565b9250508190555060018160050160008282546116939190613abc565b925050819055506005546004546116aa91906138cf565b600260008282546116bb9190613abc565b925050819055506005546004546116d291906138cf565b600360008282546116e39190613abc565b925050819055507f84a70d8000b8b36bd87f29f22b5399429e5f81a3ef3b1ee0414035bc9e2235c7826040516117199190613521565b60405180910390a150505050505050565b6000600960003373ffffffffffffffffffffffffffffffffffffffff1673ffffffffffffffffffffffffffffffffffffffff168152602001908152602001600020805461177690612eca565b80601f01602080910402602001604051908101604052809291908181526020018280546117a290612eca565b80156117ef5780601f106117c4576101008083540402835291602001916117ef565b820191906000526020600020905b8154815290600101906020018083116117d257829003601f168201915b5050505050905060006008826040516118089190613b21565b9081526020016040518091039020600001805461182490612eca565b905011611866576040517f08c379a000000000000000000000000000000000000000000000000000000000815260040161185d90613725565b60405180910390fd5b60006008826040516118789190613b21565b9081526020016040518091039020905060008160030154116118cf576040517f08c379a00000000000000000000000000000000000000000000000000000000081526004016118c690613baa565b60405180910390fd5b6000816003015490506000826003018190555060003390508073ffffffffffffffffffffffffffffffffffffffff166108fc839081150290604051600060405180830381858888f1935050505015801561192d573d6000803e3d6000fd5b5050505050565b600060088585604051611948929190613582565b9081526020016040518091039020600001805461196490612eca565b9050116119a6576040517f08c379a000000000000000000000000000000000000000000000000000000000815260040161199d90613725565b60405180910390fd5b6004543410156119eb576040517f08c379a00000000000000000000000000000000000000000000000000000000081526004016119e290613c3c565b60405180910390fd5b6000600160009054906101000a900473ffffffffffffffffffffffffffffffffffffffff1673ffffffffffffffffffffffffffffffffffffffff1663055da1dd6040518163ffffffff1660e01b8152600401602060405180830381865afa158015611a5a573d6000803e3d6000fd5b505050506040513d601f19601f82011682018060405250810190611a7e9190613c71565b90506000600182611a8f9190613abc565b9050600084848888611aa0866121f9565b604051602001611ab4959493929190613d82565b60405160208183030381529060405290506000600160009054906101000a900473ffffffffffffffffffffffffffffffffffffffff1673ffffffffffffffffffffffffffffffffffffffff1663d992cac8308460006040518463ffffffff1660e01b8152600401611b2793929190613e70565b6020604051808303816000875af1158015611b46573d6000803e3d6000fd5b505050506040513d601f19601f82011682018060405250810190611b6a9190613c71565b9050828114611bae576040517f08c379a0000000000000000000000000000000000000000000000000000000008152600401611ba590613f20565b60405180910390fd5b6040518061010001604052808281526020013373ffffffffffffffffffffffffffffffffffffffff16815260200189898080601f016020809104026020016040519081016040528093929190818152602001838380828437600081840152601f19601f82011690508083019250505050505050815260200187878080601f016020809104026020016040519081016040528093929190818152602001838380828437600081840152601f19601f82011690508083019250505050505050815260200160405180602001604052806000815250815260200160405180602001604052806000815250815260200160001515815260200160001515815250600660008381526020019081526020016000206000820151816000015560208201518160010160006101000a81548173ffffffffffffffffffffffffffffffffffffffff021916908373ffffffffffffffffffffffffffffffffffffffff1602179055506040820151816002019081611d239190613607565b506060820151816003019081611d399190613607565b506080820151816004019081611d4f9190613607565b5060a0820151816005019081611d659190613607565b5060c08201518160060160006101000a81548160ff02191690831515021790555060e08201518160060160016101000a81548160ff0219169083151502179055509050506007819080600181540180825580915050600190039060005260206000200160009091909190915055600b60003373ffffffffffffffffffffffffffffffffffffffff1673ffffffffffffffffffffffffffffffffffffffff168152602001908152602001600020819080600181540180825580915050600190039060005260206000200160009091909190915055600060045434611e4891906138cf565b90506000811115611ea15760003390508073ffffffffffffffffffffffffffffffffffffffff166108fc839081150290604051600060405180830381858888f19350505050158015611e9e573d6000803e3d6000fd5b50505b505050505050505050565b60035481565b600160009054906101000a900473ffffffffffffffffffffffffffffffffffffffff1681565b6060600a805480602002602001604051908101604052809291908181526020016000905b82821015611fa8578382906000526020600020018054611f1b90612eca565b80601f0160208091040260200160405190810160405280929190818152602001828054611f4790612eca565b8015611f945780601f10611f6957610100808354040283529160200191611f94565b820191906000526020600020905b815481529060010190602001808311611f7757829003601f168201915b505050505081526020019060010190611efc565b50505050905090565b611fb961203a565b600073ffffffffffffffffffffffffffffffffffffffff168173ffffffffffffffffffffffffffffffffffffffff1603612028576040517f08c379a000000000000000000000000000000000000000000000000000000000815260040161201f90613fb2565b60405180910390fd5b61203181612135565b50565b60025481565b6120426122c7565b73ffffffffffffffffffffffffffffffffffffffff16612060610bf2565b73ffffffffffffffffffffffffffffffffffffffff16146120b6576040517f08c379a00000000000000000000000000000000000000000000000000000000081526004016120ad9061401e565b60405180910390fd5b565b818111156120fb576040517f08c379a00000000000000000000000000000000000000000000000000000000081526004016120f2906140b0565b60405180910390fd5b6000820361210f5767024150e39800400091505b600081036121235767024150e39800400090505b81600481905550806005819055505050565b60008060009054906101000a900473ffffffffffffffffffffffffffffffffffffffff169050816000806101000a81548173ffffffffffffffffffffffffffffffffffffffff021916908373ffffffffffffffffffffffffffffffffffffffff1602179055508173ffffffffffffffffffffffffffffffffffffffff168173ffffffffffffffffffffffffffffffffffffffff167f8be0079c531659141344cd1fd0a4f28419497f9722a3daafe3b4186f6b6457e060405160405180910390a35050565b606060006001612208846122cf565b01905060008167ffffffffffffffff8111156122275761222661305b565b5b6040519080825280601f01601f1916602001820160405280156122595781602001600182028036833780820191505090505b509050600082602001820190505b6001156122bc578080600190039150507f3031323334353637383961626364656600000000000000000000000000000000600a86061a8153600a85816122b0576122af6140d0565b5b04945060008503612267575b819350505050919050565b600033905090565b600080600090507a184f03e93ff9f4daa797ed6e38ed64bf6a1f010000000000000000831061232d577a184f03e93ff9f4daa797ed6e38ed64bf6a1f0100000000000000008381612323576123226140d0565b5b0492506040810190505b6d04ee2d6d415b85acef8100000000831061236a576d04ee2d6d415b85acef810000000083816123605761235f6140d0565b5b0492506020810190505b662386f26fc10000831061239957662386f26fc10000838161238f5761238e6140d0565b5b0492506010810190505b6305f5e10083106123c2576305f5e10083816123b8576123b76140d0565b5b0492506008810190505b61271083106123e75761271083816123dd576123dc6140d0565b5b0492506004810190505b6064831061240a5760648381612400576123ff6140d0565b5b0492506002810190505b600a8310612419576001810190505b80915050919050565b60405180610100016040528060008152602001600073ffffffffffffffffffffffffffffffffffffffff168152602001606081526020016060815260200160608152602001606081526020016000151581526020016000151581525090565b6040518060c0016040528060608152602001600073ffffffffffffffffffffffffffffffffffffffff168152602001606081526020016000815260200160008152602001600081525090565b5080546124d990612eca565b6000825580601f106124eb575061250a565b601f016020900490600052602060002090810190612509919061250d565b5b50565b5b8082111561252657600081600090555060010161250e565b5090565b6000819050919050565b61253d8161252a565b82525050565b60006020820190506125586000830184612534565b92915050565b600080fd5b600080fd5b600073ffffffffffffffffffffffffffffffffffffffff82169050919050565b600061259382612568565b9050919050565b6125a381612588565b81146125ae57600080fd5b50565b6000813590506125c08161259a565b92915050565b6000602082840312156125dc576125db61255e565b5b60006125ea848285016125b1565b91505092915050565b6125fc8161252a565b811461260757600080fd5b50565b600081359050612619816125f3565b92915050565b6000602082840312156126355761263461255e565b5b60006126438482850161260a565b91505092915050565b6126558161252a565b82525050565b61266481612588565b82525050565b600081519050919050565b600082825260208201905092915050565b60005b838110156126a4578082015181840152602081019050612689565b60008484015250505050565b6000601f19601f8301169050919050565b60006126cc8261266a565b6126d68185612675565b93506126e6818560208601612686565b6126ef816126b0565b840191505092915050565b60008115159050919050565b61270f816126fa565b82525050565b60006101008301600083015161272e600086018261264c565b506020830151612741602086018261265b565b506040830151848203604086015261275982826126c1565b9150506060830151848203606086015261277382826126c1565b9150506080830151848203608086015261278d82826126c1565b91505060a083015184820360a08601526127a782826126c1565b91505060c08301516127bc60c0860182612706565b5060e08301516127cf60e0860182612706565b508091505092915050565b600060208201905081810360008301526127f48184612715565b905092915050565b600080fd5b600080fd5b600080fd5b60008083601f840112612821576128206127fc565b5b8235905067ffffffffffffffff81111561283e5761283d612801565b5b60208301915083600182028301111561285a57612859612806565b5b9250929050565b6000806000806060858703121561287b5761287a61255e565b5b6000612889878288016125b1565b945050602061289a8782880161260a565b935050604085013567ffffffffffffffff8111156128bb576128ba612563565b5b6128c78782880161280b565b925092505092959194509250565b600080604083850312156128ec576128eb61255e565b5b60006128fa8582860161260a565b925050602061290b8582860161260a565b9150509250929050565b600081519050919050565b600082825260208201905092915050565b6000819050602082019050919050565b600061294d838361264c565b60208301905092915050565b6000602082019050919050565b600061297182612915565b61297b8185612920565b935061298683612931565b8060005b838110156129b757815161299e8882612941565b97506129a983612959565b92505060018101905061298a565b5085935050505092915050565b600060208201905081810360008301526129de8184612966565b905092915050565b6129ef81612588565b82525050565b6000602082019050612a0a60008301846129e6565b92915050565b60008060208385031215612a2757612a2661255e565b5b600083013567ffffffffffffffff811115612a4557612a44612563565b5b612a518582860161280b565b92509250509250929050565b600060c0830160008301518482036000860152612a7a82826126c1565b9150506020830151612a8f602086018261265b565b5060408301518482036040860152612aa782826126c1565b9150506060830151612abc606086018261264c565b506080830151612acf608086018261264c565b5060a0830151612ae260a086018261264c565b508091505092915050565b60006020820190508181036000830152612b078184612a5d565b905092915050565b6000612b1a82612568565b9050919050565b612b2a81612b0f565b8114612b3557600080fd5b50565b600081359050612b4781612b21565b92915050565b600060208284031215612b6357612b6261255e565b5b6000612b7184828501612b38565b91505092915050565b600080600080600060608688031215612b9657612b9561255e565b5b600086013567ffffffffffffffff811115612bb457612bb3612563565b5b612bc08882890161280b565b95509550506020612bd3888289016125b1565b935050604086013567ffffffffffffffff811115612bf457612bf3612563565b5b612c008882890161280b565b92509250509295509295909350565b60048110612c1c57600080fd5b50565b600081359050612c2e81612c0f565b92915050565b600080600080600060808688031215612c5057612c4f61255e565b5b6000612c5e888289016125b1565b9550506020612c6f8882890161260a565b9450506040612c8088828901612c1f565b935050606086013567ffffffffffffffff811115612ca157612ca0612563565b5b612cad8882890161280b565b92509250509295509295909350565b60008060008060408587031215612cd657612cd561255e565b5b600085013567ffffffffffffffff811115612cf457612cf3612563565b5b612d008782880161280b565b9450945050602085013567ffffffffffffffff811115612d2357612d22612563565b5b612d2f8782880161280b565b925092505092959194509250565b6000819050919050565b6000612d62612d5d612d5884612568565b612d3d565b612568565b9050919050565b6000612d7482612d47565b9050919050565b6000612d8682612d69565b9050919050565b612d9681612d7b565b82525050565b6000602082019050612db16000830184612d8d565b92915050565b600081519050919050565b600082825260208201905092915050565b6000819050602082019050919050565b6000612def83836126c1565b905092915050565b6000602082019050919050565b6000612e0f82612db7565b612e198185612dc2565b935083602082028501612e2b85612dd3565b8060005b85811015612e675784840389528151612e488582612de3565b9450612e5383612df7565b925060208a01995050600181019050612e2f565b50829750879550505050505092915050565b60006020820190508181036000830152612e938184612e04565b905092915050565b7f4e487b7100000000000000000000000000000000000000000000000000000000600052602260045260246000fd5b60006002820490506001821680612ee257607f821691505b602082108103612ef557612ef4612e9b565b5b50919050565b600082825260208201905092915050565b7f696d61676520646f6573206e6f74206578697374000000000000000000000000600082015250565b6000612f42601483612efb565b9150612f4d82612f0c565b602082019050919050565b60006020820190508181036000830152612f7181612f35565b9050919050565b7f696d61676520616c726561647920636f6d706c65746500000000000000000000600082015250565b6000612fae601683612efb565b9150612fb982612f78565b602082019050919050565b60006020820190508181036000830152612fdd81612fa1565b9050919050565b7f696d616765207761732063616e63616c6c656400000000000000000000000000600082015250565b600061301a601383612efb565b915061302582612fe4565b602082019050919050565b600060208201905081810360008301526130498161300d565b9050919050565b600082905092915050565b7f4e487b7100000000000000000000000000000000000000000000000000000000600052604160045260246000fd5b60008190508160005260206000209050919050565b60006020601f8301049050919050565b600082821b905092915050565b6000600883026130ec7fffffffffffffffffffffffffffffffffffffffffffffffffffffffffffffffff826130af565b6130f686836130af565b95508019841693508086168417925050509392505050565b600061312961312461311f8461252a565b612d3d565b61252a565b9050919050565b6000819050919050565b6131438361310e565b61315761314f82613130565b8484546130bc565b825550505050565b600090565b61316c61315f565b61317781848461313a565b505050565b5b8181101561319b57613190600082613164565b60018101905061317d565b5050565b601f8211156131e0576131b18161308a565b6131ba8461309f565b810160208510156131c9578190505b6131dd6131d58561309f565b83018261317c565b50505b505050565b600082821c905092915050565b6000613203600019846008026131e5565b1980831691505092915050565b600061321c83836131f2565b9150826002028217905092915050565b6132368383613050565b67ffffffffffffffff81111561324f5761324e61305b565b5b6132598254612eca565b61326482828561319f565b6000601f8311600181146132935760008415613281578287013590505b61328b8582613210565b8655506132f3565b601f1984166132a18661308a565b60005b828110156132c9578489013582556001820191506020850194506020810190506132a4565b868310156132e657848901356132e2601f8916826131f2565b8355505b6001600288020188555050505b50505050505050565b60008160001c9050919050565b6000819050919050565b6000613326613321836132fc565b613309565b9050919050565b600073ffffffffffffffffffffffffffffffffffffffff82169050919050565b600061336061335b836132fc565b61332d565b9050919050565b6000815461337481612eca565b61337e8186612675565b9450600182166000811461339957600181146133af576133e2565b60ff1983168652811515602002860193506133e2565b6133b88561308a565b60005b838110156133da578154818901526001820191506020810190506133bb565b808801955050505b50505092915050565b600060ff82169050919050565b600061340b613406836132fc565b6133eb565b9050919050565b60008160081c9050919050565b600061343261342d83613412565b6133eb565b9050919050565b60006101008301600080840154905061345181613313565b61345e600087018261264c565b506001840154905061346f8161334d565b61347c602087018261265b565b506002840185830360408701526134938382613367565b9250506003840185830360608701526134ac8382613367565b9250506004840185830360808701526134c58382613367565b9250506005840185830360a08701526134de8382613367565b925050600684015490506134f1816133f8565b6134fe60c0870182612706565b506135088161341f565b61351560e0870182612706565b50819250505092915050565b6000602082019050818103600083015261353b8184613439565b905092915050565b600081905092915050565b82818337600083830152505050565b60006135698385613543565b935061357683858461354e565b82840190509392505050565b600061358f82848661355d565b91508190509392505050565b7f706c656173652070726f7669646520616e206964000000000000000000000000600082015250565b60006135d1601483612efb565b91506135dc8261359b565b602082019050919050565b60006020820190508181036000830152613600816135c4565b9050919050565b6136108261266a565b67ffffffffffffffff8111156136295761362861305b565b5b6136338254612eca565b61363e82828561319f565b600060209050601f831160018114613671576000841561365f578287015190505b6136698582613210565b8655506136d1565b601f19841661367f8661308a565b60005b828110156136a757848901518255600182019150602085019450602081019050613682565b868310156136c457848901516136c0601f8916826131f2565b8355505b6001600288020188555050505b505050505050565b7f61727469737420646f6573206e6f742065786973740000000000000000000000600082015250565b600061370f601583612efb565b915061371a826136d9565b602082019050919050565b6000602082019050818103600083015261373e81613702565b9050919050565b7f706c65617365206861766520746865206172746973742077697468647261772060008201527f657363726f772066697273740000000000000000000000000000000000000000602082015250565b60006137a1602c83612efb565b91506137ac82613745565b604082019050919050565b600060208201905081810360008301526137d081613794565b9050919050565b7f4e487b7100000000000000000000000000000000000000000000000000000000600052603260045260246000fd5b6000815461381381612eca565b61381d8186613543565b94506001821660008114613838576001811461384d57613880565b60ff1983168652811515820286019350613880565b6138568561308a565b60005b8381101561387857815481890152600182019150602081019050613859565b838801955050505b50505092915050565b60006138958284613806565b915081905092915050565b7f4e487b7100000000000000000000000000000000000000000000000000000000600052601160045260246000fd5b60006138da8261252a565b91506138e58361252a565b92508282039050818111156138fd576138fc6138a0565b5b92915050565b60008154905061391281612eca565b9050919050565b60008190508160005260206000209050919050565b81810361393c575050613a14565b61394582613903565b67ffffffffffffffff81111561395e5761395d61305b565b5b6139688254612eca565b61397382828561319f565b6000601f8311600181146139a25760008415613990578287015490505b61399a8582613210565b865550613a0d565b601f1984166139b087613919565b96506139bb8661308a565b60005b828110156139e3578489015482556001820191506001850194506020810190506139be565b86831015613a0057848901546139fc601f8916826131f2565b8355505b6001600288020188555050505b5050505050505b565b7f4e487b7100000000000000000000000000000000000000000000000000000000600052603160045260246000fd5b6000613a508261252a565b91507fffffffffffffffffffffffffffffffffffffffffffffffffffffffffffffffff8203613a8257613a816138a0565b5b600182019050919050565b7f4e487b7100000000000000000000000000000000000000000000000000000000600052602160045260246000fd5b6000613ac78261252a565b9150613ad28361252a565b9250828201905080821115613aea57613ae96138a0565b5b92915050565b6000613afb8261266a565b613b058185613543565b9350613b15818560208601612686565b80840191505092915050565b6000613b2d8284613af0565b915081905092915050565b7f61727469737420646f6573206e6f74206861766520616e79206d6f6e6579207460008201527f6f20776974686472617700000000000000000000000000000000000000000000602082015250565b6000613b94602a83612efb565b9150613b9f82613b38565b604082019050919050565b60006020820190508181036000830152613bc381613b87565b9050919050565b7f6e6f7420656e6f7567682046494c2073656e7420746f2070617920666f72206960008201527f6d61676500000000000000000000000000000000000000000000000000000000602082015250565b6000613c26602483612efb565b9150613c3182613bca565b604082019050919050565b60006020820190508181036000830152613c5581613c19565b9050919050565b600081519050613c6b816125f3565b92915050565b600060208284031215613c8757613c8661255e565b5b6000613c9584828501613c5c565b91505092915050565b7f7b225f6c696c797061645f74656d706c617465223a202277617465726c696c7960008201527f222c202270726f6d7074223a2022000000000000000000000000000000000000602082015250565b6000613cfa602e83613543565b9150613d0582613c9e565b602e82019050919050565b7f222c20226172746973746964223a202200000000000000000000000000000000815250565b7f222c2022696d6167656964223a20220000000000000000000000000000000000815250565b7f227d000000000000000000000000000000000000000000000000000000000000815250565b6000613d8d82613ced565b9150613d9a82878961355d565b9150613da582613d10565b601082019150613db682858761355d565b9150613dc182613d36565b600f82019150613dd18284613af0565b9150613ddc82613d5c565b6002820191508190509695505050505050565b6000613dfa8261266a565b613e048185612efb565b9350613e14818560208601612686565b613e1d816126b0565b840191505092915050565b60048110613e3957613e38613a8d565b5b50565b6000819050613e4a82613e28565b919050565b6000613e5a82613e3c565b9050919050565b613e6a81613e4f565b82525050565b6000606082019050613e8560008301866129e6565b8181036020830152613e978185613def565b9050613ea66040830184613e61565b949350505050565b7f776520656e646564207570207769746820646966666572656e7420696d61676560008201527f2069647300000000000000000000000000000000000000000000000000000000602082015250565b6000613f0a602483612efb565b9150613f1582613eae565b604082019050919050565b60006020820190508181036000830152613f3981613efd565b9050919050565b7f4f776e61626c653a206e6577206f776e657220697320746865207a65726f206160008201527f6464726573730000000000000000000000000000000000000000000000000000602082015250565b6000613f9c602683612efb565b9150613fa782613f40565b604082019050919050565b60006020820190508181036000830152613fcb81613f8f565b9050919050565b7f4f776e61626c653a2063616c6c6572206973206e6f7420746865206f776e6572600082015250565b6000614008602083612efb565b915061401382613fd2565b602082019050919050565b6000602082019050818103600083015261403781613ffb565b9050919050565b7f61727469737420636f6d6d697373696f6e206d757374206265206c657373207460008201527f68616e206f7220657175616c20746f20696d61676520636f7374000000000000602082015250565b600061409a603a83612efb565b91506140a58261403e565b604082019050919050565b600060208201905081810360008301526140c98161408d565b9050919050565b7f4e487b7100000000000000000000000000000000000000000000000000000000600052601260045260246000fdfea264697066735822122006b9e8d2f5b41b04d1f9c5ed8146527e34e3955770e5f7e5953e8594a59f23e664736f6c63430008110033",
  "linkReferences": {},
  "deployedLinkReferences": {}
}