{
  "_format": "hh-sol-artifact-1",
  "contractName": "ArtistAttribution",
  "sourceName": "contracts/ArtistAttribution.sol",
  "abi": [
    {
      "inputs": [
        {
          "internalType": "uint256",
          "name": "_imageCost",
          "type": "uint256"
        },
        {
          "internalType": "uint256",
          "name": "_artistCommission",
          "type": "uint256"
        }
      ],
      "stateMutability": "nonpayable",
      "type": "constructor"
    },
    {
      "anonymous": false,
      "inputs": [
        {
          "components": [
            {
              "internalType": "string",
              "name": "id",
              "type": "string"
            },
            {
              "internalType": "address",
              "name": "wallet",
              "type": "address"
            },
            {
              "internalType": "string",
              "name": "metadata",
              "type": "string"
            },
            {
              "internalType": "uint256",
              "name": "escrow",
              "type": "uint256"
            },
            {
              "internalType": "uint256",
              "name": "revenue",
              "type": "uint256"
            },
            {
              "internalType": "uint256",
              "name": "numJobsRun",
              "type": "uint256"
            },
            {
              "internalType": "bool",
              "name": "isTrained",
              "type": "bool"
            }
          ],
          "indexed": false,
          "internalType": "struct ArtistAttribution.Artist",
          "name": "artist",
          "type": "tuple"
        }
      ],
      "name": "ArtistCreated",
      "type": "event"
    },
    {
      "anonymous": false,
      "inputs": [
        {
          "components": [
            {
              "internalType": "uint256",
              "name": "id",
              "type": "uint256"
            },
            {
              "internalType": "address",
              "name": "customer",
              "type": "address"
            },
            {
              "internalType": "string",
              "name": "artist",
              "type": "string"
            },
            {
              "internalType": "string",
              "name": "prompt",
              "type": "string"
            },
            {
              "internalType": "string",
              "name": "ipfsResult",
              "type": "string"
            },
            {
              "internalType": "string",
              "name": "errorMessage",
              "type": "string"
            },
            {
              "internalType": "bool",
              "name": "isComplete",
              "type": "bool"
            },
            {
              "internalType": "bool",
              "name": "isCancelled",
              "type": "bool"
            }
          ],
          "indexed": false,
          "internalType": "struct ArtistAttribution.StableDiffusionImage",
          "name": "image",
          "type": "tuple"
        }
      ],
      "name": "ImageCancelled",
      "type": "event"
    },
    {
      "anonymous": false,
      "inputs": [
        {
          "components": [
            {
              "internalType": "uint256",
              "name": "id",
              "type": "uint256"
            },
            {
              "internalType": "address",
              "name": "customer",
              "type": "address"
            },
            {
              "internalType": "string",
              "name": "artist",
              "type": "string"
            },
            {
              "internalType": "string",
              "name": "prompt",
              "type": "string"
            },
            {
              "internalType": "string",
              "name": "ipfsResult",
              "type": "string"
            },
            {
              "internalType": "string",
              "name": "errorMessage",
              "type": "string"
            },
            {
              "internalType": "bool",
              "name": "isComplete",
              "type": "bool"
            },
            {
              "internalType": "bool",
              "name": "isCancelled",
              "type": "bool"
            }
          ],
          "indexed": false,
          "internalType": "struct ArtistAttribution.StableDiffusionImage",
          "name": "image",
          "type": "tuple"
        }
      ],
      "name": "ImageCreated",
      "type": "event"
    },
    {
      "anonymous": false,
      "inputs": [
        {
          "components": [
            {
              "internalType": "uint256",
              "name": "id",
              "type": "uint256"
            },
            {
              "internalType": "address",
              "name": "customer",
              "type": "address"
            },
            {
              "internalType": "string",
              "name": "artist",
              "type": "string"
            },
            {
              "internalType": "string",
              "name": "prompt",
              "type": "string"
            },
            {
              "internalType": "string",
              "name": "ipfsResult",
              "type": "string"
            },
            {
              "internalType": "string",
              "name": "errorMessage",
              "type": "string"
            },
            {
              "internalType": "bool",
              "name": "isComplete",
              "type": "bool"
            },
            {
              "internalType": "bool",
              "name": "isCancelled",
              "type": "bool"
            }
          ],
          "indexed": false,
          "internalType": "struct ArtistAttribution.StableDiffusionImage",
          "name": "image",
          "type": "tuple"
        }
      ],
      "name": "ImageGenerated",
      "type": "event"
    },
    {
      "anonymous": false,
      "inputs": [
        {
          "indexed": true,
          "internalType": "address",
          "name": "previousOwner",
          "type": "address"
        },
        {
          "indexed": true,
          "internalType": "address",
          "name": "newOwner",
          "type": "address"
        }
      ],
      "name": "OwnershipTransferred",
      "type": "event"
    },
    {
      "inputs": [
        {
          "internalType": "string",
          "name": "_artistID",
          "type": "string"
        },
        {
          "internalType": "string",
          "name": "_prompt",
          "type": "string"
        }
      ],
      "name": "CreateImage",
      "outputs": [],
      "stateMutability": "payable",
      "type": "function"
    },
    {
      "inputs": [
        {
          "internalType": "address payable",
          "name": "to",
          "type": "address"
        }
      ],
      "name": "adminWithdraw",
      "outputs": [],
      "stateMutability": "payable",
      "type": "function"
    },
    {
      "inputs": [],
      "name": "artistCommission",
      "outputs": [
        {
          "internalType": "uint256",
          "name": "",
          "type": "uint256"
        }
      ],
      "stateMutability": "view",
      "type": "function"
    },
    {
      "inputs": [],
      "name": "artistWithdraw",
      "outputs": [],
      "stateMutability": "payable",
      "type": "function"
    },
    {
      "inputs": [],
      "name": "computeProviderEscrow",
      "outputs": [
        {
          "internalType": "uint256",
          "name": "",
          "type": "uint256"
        }
      ],
      "stateMutability": "view",
      "type": "function"
    },
    {
      "inputs": [],
      "name": "computeProviderRevenue",
      "outputs": [
        {
          "internalType": "uint256",
          "name": "",
          "type": "uint256"
        }
      ],
      "stateMutability": "view",
      "type": "function"
    },
    {
      "inputs": [
        {
          "internalType": "string",
          "name": "id",
          "type": "string"
        }
      ],
      "name": "deleteArtist",
      "outputs": [],
      "stateMutability": "nonpayable",
      "type": "function"
    },
    {
      "inputs": [
        {
          "internalType": "string",
          "name": "id",
          "type": "string"
        }
      ],
      "name": "getArtist",
      "outputs": [
        {
          "components": [
            {
              "internalType": "string",
              "name": "id",
              "type": "string"
            },
            {
              "internalType": "address",
              "name": "wallet",
              "type": "address"
            },
            {
              "internalType": "string",
              "name": "metadata",
              "type": "string"
            },
            {
              "internalType": "uint256",
              "name": "escrow",
              "type": "uint256"
            },
            {
              "internalType": "uint256",
              "name": "revenue",
              "type": "uint256"
            },
            {
              "internalType": "uint256",
              "name": "numJobsRun",
              "type": "uint256"
            },
            {
              "internalType": "bool",
              "name": "isTrained",
              "type": "bool"
            }
          ],
          "internalType": "struct ArtistAttribution.Artist",
          "name": "",
          "type": "tuple"
        }
      ],
      "stateMutability": "view",
      "type": "function"
    },
    {
      "inputs": [],
      "name": "getArtistCommission",
      "outputs": [
        {
          "internalType": "uint256",
          "name": "",
          "type": "uint256"
        }
      ],
      "stateMutability": "view",
      "type": "function"
    },
    {
      "inputs": [],
      "name": "getArtistIDs",
      "outputs": [
        {
          "internalType": "string[]",
          "name": "",
          "type": "string[]"
        }
      ],
      "stateMutability": "view",
      "type": "function"
    },
    {
      "inputs": [
        {
          "internalType": "address",
          "name": "customerAddress",
          "type": "address"
        }
      ],
      "name": "getCustomerImages",
      "outputs": [
        {
          "internalType": "uint256[]",
          "name": "",
          "type": "uint256[]"
        }
      ],
      "stateMutability": "view",
      "type": "function"
    },
    {
      "inputs": [
        {
          "internalType": "uint256",
          "name": "id",
          "type": "uint256"
        }
      ],
      "name": "getImage",
      "outputs": [
        {
          "components": [
            {
              "internalType": "uint256",
              "name": "id",
              "type": "uint256"
            },
            {
              "internalType": "address",
              "name": "customer",
              "type": "address"
            },
            {
              "internalType": "string",
              "name": "artist",
              "type": "string"
            },
            {
              "internalType": "string",
              "name": "prompt",
              "type": "string"
            },
            {
              "internalType": "string",
              "name": "ipfsResult",
              "type": "string"
            },
            {
              "internalType": "string",
              "name": "errorMessage",
              "type": "string"
            },
            {
              "internalType": "bool",
              "name": "isComplete",
              "type": "bool"
            },
            {
              "internalType": "bool",
              "name": "isCancelled",
              "type": "bool"
            }
          ],
          "internalType": "struct ArtistAttribution.StableDiffusionImage",
          "name": "",
          "type": "tuple"
        }
      ],
      "stateMutability": "view",
      "type": "function"
    },
    {
      "inputs": [],
      "name": "getImageCost",
      "outputs": [
        {
          "internalType": "uint256",
          "name": "",
          "type": "uint256"
        }
      ],
      "stateMutability": "view",
      "type": "function"
    },
    {
      "inputs": [],
      "name": "getImageIDs",
      "outputs": [
        {
          "internalType": "uint256[]",
          "name": "",
          "type": "uint256[]"
        }
      ],
      "stateMutability": "view",
      "type": "function"
    },
    {
      "inputs": [
        {
          "internalType": "uint256",
          "name": "_id",
          "type": "uint256"
        },
        {
          "internalType": "string",
          "name": "_errorMsg",
          "type": "string"
        }
      ],
      "name": "imageCancelled",
      "outputs": [],
      "stateMutability": "nonpayable",
      "type": "function"
    },
    {
      "inputs": [
        {
          "internalType": "uint256",
          "name": "_id",
          "type": "uint256"
        },
        {
          "internalType": "string",
          "name": "_result",
          "type": "string"
        }
      ],
      "name": "imageComplete",
      "outputs": [],
      "stateMutability": "nonpayable",
      "type": "function"
    },
    {
      "inputs": [],
      "name": "imageCost",
      "outputs": [
        {
          "internalType": "uint256",
          "name": "",
          "type": "uint256"
        }
      ],
      "stateMutability": "view",
      "type": "function"
    },
    {
      "inputs": [],
      "name": "owner",
      "outputs": [
        {
          "internalType": "address",
          "name": "",
          "type": "address"
        }
      ],
      "stateMutability": "view",
      "type": "function"
    },
    {
      "inputs": [],
      "name": "renounceOwnership",
      "outputs": [],
      "stateMutability": "nonpayable",
      "type": "function"
    },
    {
      "inputs": [
        {
          "internalType": "address",
          "name": "newOwner",
          "type": "address"
        }
      ],
      "name": "transferOwnership",
      "outputs": [],
      "stateMutability": "nonpayable",
      "type": "function"
    },
    {
      "inputs": [
        {
          "internalType": "string",
          "name": "id",
          "type": "string"
        },
        {
          "internalType": "address",
          "name": "wallet",
          "type": "address"
        },
        {
          "internalType": "string",
          "name": "metadata",
          "type": "string"
        }
      ],
      "name": "updateArtist",
      "outputs": [],
      "stateMutability": "nonpayable",
      "type": "function"
    },
    {
      "inputs": [
        {
          "internalType": "uint256",
          "name": "_imageCost",
          "type": "uint256"
        },
        {
          "internalType": "uint256",
          "name": "_artistCommission",
          "type": "uint256"
        }
      ],
      "name": "updateCost",
      "outputs": [],
      "stateMutability": "nonpayable",
      "type": "function"
    }
  ],
  "bytecode": "0x60806040523480156200001157600080fd5b5060405162003c2938038062003c298339818101604052810190620000379190620001ff565b620000576200004b6200007160201b60201c565b6200007960201b60201c565b6200006982826200013d60201b60201c565b5050620002ef565b600033905090565b60008060009054906101000a900473ffffffffffffffffffffffffffffffffffffffff169050816000806101000a81548173ffffffffffffffffffffffffffffffffffffffff021916908373ffffffffffffffffffffffffffffffffffffffff1602179055508173ffffffffffffffffffffffffffffffffffffffff168173ffffffffffffffffffffffffffffffffffffffff167f8be0079c531659141344cd1fd0a4f28419497f9722a3daafe3b4186f6b6457e060405160405180910390a35050565b8181111562000183576040517f08c379a00000000000000000000000000000000000000000000000000000000081526004016200017a90620002cd565b60405180910390fd5b60008203620001985767024150e39800400091505b60008103620001ad5767024150e39800400090505b81600481905550806005819055505050565b600080fd5b6000819050919050565b620001d981620001c4565b8114620001e557600080fd5b50565b600081519050620001f981620001ce565b92915050565b60008060408385031215620002195762000218620001bf565b5b60006200022985828601620001e8565b92505060206200023c85828601620001e8565b9150509250929050565b600082825260208201905092915050565b7f61727469737420636f6d6d697373696f6e206d757374206265206c657373207460008201527f68616e206f7220657175616c20746f20696d61676520636f7374000000000000602082015250565b6000620002b5603a8362000246565b9150620002c28262000257565b604082019050919050565b60006020820190508181036000830152620002e881620002a6565b9050919050565b61392a80620002ff6000396000f3fe6080604052600436106101355760003560e01c8063a2498ab3116100ab578063d415380e1161006f578063d415380e146103e6578063d8c766061461040f578063e6b73d6914610419578063ec32d94214610444578063f2fde38b1461046f578063feadcdeb1461049857610135565b8063a2498ab31461030e578063a28835b61461034b578063a5f8e13114610367578063a6e9947114610392578063c3791332146103bd57610135565b806353f4fa83116100fd57806353f4fa831461021d57806355f2107214610248578063715018a6146102855780637b2326601461029c5780638da5cb5b146102b8578063983586b1146102e357610135565b8063072792b11461013a5780632607aafa1461016557806331167a63146101a257806335314461146101cb57806336b02c1e146101f4575b600080fd5b34801561014657600080fd5b5061014f6104c3565b60405161015c919061208e565b60405180910390f35b34801561017157600080fd5b5061018c600480360381019061018791906120df565b6104cd565b60405161019991906122cc565b60405180910390f35b3480156101ae57600080fd5b506101c960048036038101906101c49190612353565b6107d9565b005b3480156101d757600080fd5b506101f260048036038101906101ed91906123b3565b6109d0565b005b34801561020057600080fd5b5061021b60048036038101906102169190612353565b6109e6565b005b34801561022957600080fd5b50610232610c89565b60405161023f91906124a2565b60405180910390f35b34801561025457600080fd5b5061026f600480360381019061026a91906124f0565b610ce1565b60405161027c91906124a2565b60405180910390f35b34801561029157600080fd5b5061029a610d78565b005b6102b660048036038101906102b1919061251d565b610d8c565b005b3480156102c457600080fd5b506102cd61119f565b6040516102da91906125ad565b60405180910390f35b3480156102ef57600080fd5b506102f86111c8565b604051610305919061208e565b60405180910390f35b34801561031a57600080fd5b50610335600480360381019061033091906125c8565b6111ce565b60405161034291906126b8565b60405180910390f35b61036560048036038101906103609190612718565b6113bc565b005b34801561037357600080fd5b5061037c61141e565b604051610389919061208e565b60405180910390f35b34801561039e57600080fd5b506103a7611428565b6040516103b4919061208e565b60405180910390f35b3480156103c957600080fd5b506103e460048036038101906103df9190612745565b61142e565b005b3480156103f257600080fd5b5061040d600480360381019061040891906125c8565b6116f3565b005b610417611a07565b005b34801561042557600080fd5b5061042e611c11565b60405161043b919061208e565b60405180910390f35b34801561045057600080fd5b50610459611c17565b604051610466919061289c565b60405180910390f35b34801561047b57600080fd5b50610496600480360381019061049191906124f0565b611cf0565b005b3480156104a457600080fd5b506104ad611d73565b6040516104ba919061208e565b60405180910390f35b6000600554905090565b6104d5611f64565b6006600083815260200190815260200160002060405180610100016040529081600082015481526020016001820160009054906101000a900473ffffffffffffffffffffffffffffffffffffffff1673ffffffffffffffffffffffffffffffffffffffff1673ffffffffffffffffffffffffffffffffffffffff168152602001600282018054610564906128ed565b80601f0160208091040260200160405190810160405280929190818152602001828054610590906128ed565b80156105dd5780601f106105b2576101008083540402835291602001916105dd565b820191906000526020600020905b8154815290600101906020018083116105c057829003601f168201915b505050505081526020016003820180546105f6906128ed565b80601f0160208091040260200160405190810160405280929190818152602001828054610622906128ed565b801561066f5780601f106106445761010080835404028352916020019161066f565b820191906000526020600020905b81548152906001019060200180831161065257829003601f168201915b50505050508152602001600482018054610688906128ed565b80601f01602080910402602001604051908101604052809291908181526020018280546106b4906128ed565b80156107015780601f106106d657610100808354040283529160200191610701565b820191906000526020600020905b8154815290600101906020018083116106e457829003601f168201915b5050505050815260200160058201805461071a906128ed565b80601f0160208091040260200160405190810160405280929190818152602001828054610746906128ed565b80156107935780601f1061076857610100808354040283529160200191610793565b820191906000526020600020905b81548152906001019060200180831161077657829003601f168201915b505050505081526020016006820160009054906101000a900460ff161515151581526020016006820160019054906101000a900460ff1615151515815250509050919050565b6107e1611d79565b6000600660008581526020019081526020016000209050600081600001541161083f576040517f08c379a00000000000000000000000000000000000000000000000000000000081526004016108369061297b565b60405180910390fd5b600015158160060160009054906101000a900460ff16151514610897576040517f08c379a000000000000000000000000000000000000000000000000000000000815260040161088e906129e7565b60405180910390fd5b600015158160060160019054906101000a900460ff161515146108ef576040517f08c379a00000000000000000000000000000000000000000000000000000000081526004016108e690612a53565b60405180910390fd5b60018160060160016101000a81548160ff021916908315150217905550828282600501918261091f929190612c59565b5060008160010160009054906101000a900473ffffffffffffffffffffffffffffffffffffffff1690508073ffffffffffffffffffffffffffffffffffffffff166108fc6004549081150290604051600060405180830381858888f19350505050158015610991573d6000803e3d6000fd5b507fc33d7af141f1c5d8de8bb9961e0dcd4f378c1f0e4eee5856b51514fad5828528826040516109c19190612f4e565b60405180910390a15050505050565b6109d8611d79565b6109e28282611df7565b5050565b6109ee611d79565b60006006600085815260200190815260200160002090506000816000015411610a4c576040517f08c379a0000000000000000000000000000000000000000000000000000000008152600401610a439061297b565b60405180910390fd5b600015158160060160009054906101000a900460ff16151514610aa4576040517f08c379a0000000000000000000000000000000000000000000000000000000008152600401610a9b906129e7565b60405180910390fd5b600015158160060160019054906101000a900460ff16151514610afc576040517f08c379a0000000000000000000000000000000000000000000000000000000008152600401610af390612a53565b60405180910390fd5b6000600882600201604051610b119190612ffe565b908152602001604051809103902090506000816000018054610b32906128ed565b905011610b74576040517f08c379a0000000000000000000000000000000000000000000000000000000008152600401610b6b90613061565b60405180910390fd5b8383836004019182610b87929190612c59565b5060018260060160006101000a81548160ff021916908315150217905550600554816003016000828254610bbb91906130b0565b92505081905550600554816004016000828254610bd891906130b0565b925050819055506001816005016000828254610bf491906130b0565b92505081905550600554600454610c0b91906130e4565b60026000828254610c1c91906130b0565b92505081905550600554600454610c3391906130e4565b60036000828254610c4491906130b0565b925050819055507f84a70d8000b8b36bd87f29f22b5399429e5f81a3ef3b1ee0414035bc9e2235c782604051610c7a9190612f4e565b60405180910390a15050505050565b60606007805480602002602001604051908101604052809291908181526020018280548015610cd757602002820191906000526020600020905b815481526020019060010190808311610cc3575b5050505050905090565b6060600b60008373ffffffffffffffffffffffffffffffffffffffff1673ffffffffffffffffffffffffffffffffffffffff168152602001908152602001600020805480602002602001604051908101604052809291908181526020018280548015610d6c57602002820191906000526020600020905b815481526020019060010190808311610d58575b50505050509050919050565b610d80611d79565b610d8a6000611e74565b565b600060088585604051610da092919061314c565b90815260200160405180910390206000018054610dbc906128ed565b905011610dfe576040517f08c379a0000000000000000000000000000000000000000000000000000000008152600401610df590613061565b60405180910390fd5b600454341015610e43576040517f08c379a0000000000000000000000000000000000000000000000000000000008152600401610e3a906131d7565b60405180910390fd5b610e4d6001611f38565b6000610e596001611f4e565b90506040518061010001604052808281526020013373ffffffffffffffffffffffffffffffffffffffff16815260200186868080601f016020809104026020016040519081016040528093929190818152602001838380828437600081840152601f19601f82011690508083019250505050505050815260200184848080601f016020809104026020016040519081016040528093929190818152602001838380828437600081840152601f19601f82011690508083019250505050505050815260200160405180602001604052806000815250815260200160405180602001604052806000815250815260200160001515815260200160001515815250600660008381526020019081526020016000206000820151816000015560208201518160010160006101000a81548173ffffffffffffffffffffffffffffffffffffffff021916908373ffffffffffffffffffffffffffffffffffffffff1602179055506040820151816002019081610fd091906131f7565b506060820151816003019081610fe691906131f7565b506080820151816004019081610ffc91906131f7565b5060a082015181600501908161101291906131f7565b5060c08201518160060160006101000a81548160ff02191690831515021790555060e08201518160060160016101000a81548160ff0219169083151502179055509050506007819080600181540180825580915050600190039060005260206000200160009091909190915055600b60003373ffffffffffffffffffffffffffffffffffffffff1673ffffffffffffffffffffffffffffffffffffffff1681526020019081526020016000208190806001815401808255809150506001900390600052602060002001600090919091909150557fce924b75f140e3ebaf737643559607d1e6032c1e2a276d56026937178cca1a276006600083815260200190815260200160002060405161112691906133b1565b60405180910390a160006004543461113e91906130e4565b905060008111156111975760003390508073ffffffffffffffffffffffffffffffffffffffff166108fc839081150290604051600060405180830381858888f19350505050158015611194573d6000803e3d6000fd5b50505b505050505050565b60008060009054906101000a900473ffffffffffffffffffffffffffffffffffffffff16905090565b60055481565b6111d6611fc3565b600883836040516111e892919061314c565b90815260200160405180910390206040518060e0016040529081600082018054611211906128ed565b80601f016020809104026020016040519081016040528092919081815260200182805461123d906128ed565b801561128a5780601f1061125f5761010080835404028352916020019161128a565b820191906000526020600020905b81548152906001019060200180831161126d57829003601f168201915b505050505081526020016001820160009054906101000a900473ffffffffffffffffffffffffffffffffffffffff1673ffffffffffffffffffffffffffffffffffffffff1673ffffffffffffffffffffffffffffffffffffffff1681526020016002820180546112f9906128ed565b80601f0160208091040260200160405190810160405280929190818152602001828054611325906128ed565b80156113725780601f1061134757610100808354040283529160200191611372565b820191906000526020600020905b81548152906001019060200180831161135557829003601f168201915b505050505081526020016003820154815260200160048201548152602001600582015481526020016006820160009054906101000a900460ff161515151581525050905092915050565b6113c4611d79565b6000600254905060006002819055508173ffffffffffffffffffffffffffffffffffffffff166108fc829081150290604051600060405180830381858888f19350505050158015611419573d6000803e3d6000fd5b505050565b6000600454905090565b60045481565b611436611d79565b6000858590501161147c576040517f08c379a00000000000000000000000000000000000000000000000000000000081526004016114739061341f565b60405180910390fd5b60006008868660405161149092919061314c565b908152602001604051809103902060000180546114ac906128ed565b9050036114f257600a8585909180600181540180825580915050600190039060005260206000200160009091929091929091929091925091826114f0929190612c59565b505b6040518060e0016040528086868080601f016020809104026020016040519081016040528093929190818152602001838380828437600081840152601f19601f8201169050808301925050505050505081526020018473ffffffffffffffffffffffffffffffffffffffff16815260200183838080601f016020809104026020016040519081016040528093929190818152602001838380828437600081840152601f19601f82011690508083019250505050505050815260200160008152602001600081526020016000815260200160001515815250600886866040516115db92919061314c565b908152602001604051809103902060008201518160000190816115fe91906131f7565b5060208201518160010160006101000a81548173ffffffffffffffffffffffffffffffffffffffff021916908373ffffffffffffffffffffffffffffffffffffffff160217905550604082015181600201908161165b91906131f7565b50606082015181600301556080820151816004015560a0820151816005015560c08201518160060160006101000a81548160ff0219169083151502179055509050508484600960008673ffffffffffffffffffffffffffffffffffffffff1673ffffffffffffffffffffffffffffffffffffffff16815260200190815260200160002091826116eb929190612c59565b505050505050565b6116fb611d79565b60006008838360405161170f92919061314c565b9081526020016040518091039020600001805461172b906128ed565b90501161176d576040517f08c379a000000000000000000000000000000000000000000000000000000000815260040161176490613061565b60405180910390fd5b60006008838360405161178192919061314c565b9081526020016040518091039020905060008160030154146117d8576040517f08c379a00000000000000000000000000000000000000000000000000000000081526004016117cf906134b1565b60405180910390fd5b600960008260010160009054906101000a900473ffffffffffffffffffffffffffffffffffffffff1673ffffffffffffffffffffffffffffffffffffffff1673ffffffffffffffffffffffffffffffffffffffff16815260200190815260200160002060006118479190612018565b6008838360405161185992919061314c565b9081526020016040518091039020600080820160006118789190612018565b6001820160006101000a81549073ffffffffffffffffffffffffffffffffffffffff02191690556002820160006118af9190612018565b6003820160009055600482016000905560058201600090556006820160006101000a81549060ff0219169055505060005b600a80549050811015611a0157838360405160200161190092919061314c565b60405160208183030381529060405280519060200120600a828154811061192a576119296134d1565b5b906000526020600020016040516020016119449190612ffe565b60405160208183030381529060405280519060200120036119ee57600a6001600a8054905061197391906130e4565b81548110611984576119836134d1565b5b90600052602060002001600a82815481106119a2576119a16134d1565b5b9060005260206000200190816119b8919061352b565b50600a8054806119cb576119ca613613565b5b6001900381819060005260206000200160006119e79190612018565b9055611a01565b80806119f990613642565b9150506118e0565b50505050565b6000600960003373ffffffffffffffffffffffffffffffffffffffff1673ffffffffffffffffffffffffffffffffffffffff1681526020019081526020016000208054611a53906128ed565b80601f0160208091040260200160405190810160405280929190818152602001828054611a7f906128ed565b8015611acc5780601f10611aa157610100808354040283529160200191611acc565b820191906000526020600020905b815481529060010190602001808311611aaf57829003601f168201915b505050505090506000600882604051611ae591906136bb565b90815260200160405180910390206000018054611b01906128ed565b905011611b43576040517f08c379a0000000000000000000000000000000000000000000000000000000008152600401611b3a90613061565b60405180910390fd5b6000600882604051611b5591906136bb565b908152602001604051809103902090506000816003015411611bac576040517f08c379a0000000000000000000000000000000000000000000000000000000008152600401611ba390613744565b60405180910390fd5b6000816003015490506000826003018190555060003390508073ffffffffffffffffffffffffffffffffffffffff166108fc839081150290604051600060405180830381858888f19350505050158015611c0a573d6000803e3d6000fd5b5050505050565b60035481565b6060600a805480602002602001604051908101604052809291908181526020016000905b82821015611ce7578382906000526020600020018054611c5a906128ed565b80601f0160208091040260200160405190810160405280929190818152602001828054611c86906128ed565b8015611cd35780601f10611ca857610100808354040283529160200191611cd3565b820191906000526020600020905b815481529060010190602001808311611cb657829003601f168201915b505050505081526020019060010190611c3b565b50505050905090565b611cf8611d79565b600073ffffffffffffffffffffffffffffffffffffffff168173ffffffffffffffffffffffffffffffffffffffff1603611d67576040517f08c379a0000000000000000000000000000000000000000000000000000000008152600401611d5e906137d6565b60405180910390fd5b611d7081611e74565b50565b60025481565b611d81611f5c565b73ffffffffffffffffffffffffffffffffffffffff16611d9f61119f565b73ffffffffffffffffffffffffffffffffffffffff1614611df5576040517f08c379a0000000000000000000000000000000000000000000000000000000008152600401611dec90613842565b60405180910390fd5b565b81811115611e3a576040517f08c379a0000000000000000000000000000000000000000000000000000000008152600401611e31906138d4565b60405180910390fd5b60008203611e4e5767024150e39800400091505b60008103611e625767024150e39800400090505b81600481905550806005819055505050565b60008060009054906101000a900473ffffffffffffffffffffffffffffffffffffffff169050816000806101000a81548173ffffffffffffffffffffffffffffffffffffffff021916908373ffffffffffffffffffffffffffffffffffffffff1602179055508173ffffffffffffffffffffffffffffffffffffffff168173ffffffffffffffffffffffffffffffffffffffff167f8be0079c531659141344cd1fd0a4f28419497f9722a3daafe3b4186f6b6457e060405160405180910390a35050565b6001816000016000828254019250508190555050565b600081600001549050919050565b600033905090565b60405180610100016040528060008152602001600073ffffffffffffffffffffffffffffffffffffffff168152602001606081526020016060815260200160608152602001606081526020016000151581526020016000151581525090565b6040518060e0016040528060608152602001600073ffffffffffffffffffffffffffffffffffffffff168152602001606081526020016000815260200160008152602001600081526020016000151581525090565b508054612024906128ed565b6000825580601f106120365750612055565b601f0160209004906000526020600020908101906120549190612058565b5b50565b5b80821115612071576000816000905550600101612059565b5090565b6000819050919050565b61208881612075565b82525050565b60006020820190506120a3600083018461207f565b92915050565b600080fd5b600080fd5b6120bc81612075565b81146120c757600080fd5b50565b6000813590506120d9816120b3565b92915050565b6000602082840312156120f5576120f46120a9565b5b6000612103848285016120ca565b91505092915050565b61211581612075565b82525050565b600073ffffffffffffffffffffffffffffffffffffffff82169050919050565b60006121468261211b565b9050919050565b6121568161213b565b82525050565b600081519050919050565b600082825260208201905092915050565b60005b8381101561219657808201518184015260208101905061217b565b60008484015250505050565b6000601f19601f8301169050919050565b60006121be8261215c565b6121c88185612167565b93506121d8818560208601612178565b6121e1816121a2565b840191505092915050565b60008115159050919050565b612201816121ec565b82525050565b600061010083016000830151612220600086018261210c565b506020830151612233602086018261214d565b506040830151848203604086015261224b82826121b3565b9150506060830151848203606086015261226582826121b3565b9150506080830151848203608086015261227f82826121b3565b91505060a083015184820360a086015261229982826121b3565b91505060c08301516122ae60c08601826121f8565b5060e08301516122c160e08601826121f8565b508091505092915050565b600060208201905081810360008301526122e68184612207565b905092915050565b600080fd5b600080fd5b600080fd5b60008083601f840112612313576123126122ee565b5b8235905067ffffffffffffffff8111156123305761232f6122f3565b5b60208301915083600182028301111561234c5761234b6122f8565b5b9250929050565b60008060006040848603121561236c5761236b6120a9565b5b600061237a868287016120ca565b935050602084013567ffffffffffffffff81111561239b5761239a6120ae565b5b6123a7868287016122fd565b92509250509250925092565b600080604083850312156123ca576123c96120a9565b5b60006123d8858286016120ca565b92505060206123e9858286016120ca565b9150509250929050565b600081519050919050565b600082825260208201905092915050565b6000819050602082019050919050565b600061242b838361210c565b60208301905092915050565b6000602082019050919050565b600061244f826123f3565b61245981856123fe565b93506124648361240f565b8060005b8381101561249557815161247c888261241f565b975061248783612437565b925050600181019050612468565b5085935050505092915050565b600060208201905081810360008301526124bc8184612444565b905092915050565b6124cd8161213b565b81146124d857600080fd5b50565b6000813590506124ea816124c4565b92915050565b600060208284031215612506576125056120a9565b5b6000612514848285016124db565b91505092915050565b60008060008060408587031215612537576125366120a9565b5b600085013567ffffffffffffffff811115612555576125546120ae565b5b612561878288016122fd565b9450945050602085013567ffffffffffffffff811115612584576125836120ae565b5b612590878288016122fd565b925092505092959194509250565b6125a78161213b565b82525050565b60006020820190506125c2600083018461259e565b92915050565b600080602083850312156125df576125de6120a9565b5b600083013567ffffffffffffffff8111156125fd576125fc6120ae565b5b612609858286016122fd565b92509250509250929050565b600060e083016000830151848203600086015261263282826121b3565b9150506020830151612647602086018261214d565b506040830151848203604086015261265f82826121b3565b9150506060830151612674606086018261210c565b506080830151612687608086018261210c565b5060a083015161269a60a086018261210c565b5060c08301516126ad60c08601826121f8565b508091505092915050565b600060208201905081810360008301526126d28184612615565b905092915050565b60006126e58261211b565b9050919050565b6126f5816126da565b811461270057600080fd5b50565b600081359050612712816126ec565b92915050565b60006020828403121561272e5761272d6120a9565b5b600061273c84828501612703565b91505092915050565b600080600080600060608688031215612761576127606120a9565b5b600086013567ffffffffffffffff81111561277f5761277e6120ae565b5b61278b888289016122fd565b9550955050602061279e888289016124db565b935050604086013567ffffffffffffffff8111156127bf576127be6120ae565b5b6127cb888289016122fd565b92509250509295509295909350565b600081519050919050565b600082825260208201905092915050565b6000819050602082019050919050565b600061281283836121b3565b905092915050565b6000602082019050919050565b6000612832826127da565b61283c81856127e5565b93508360208202850161284e856127f6565b8060005b8581101561288a578484038952815161286b8582612806565b94506128768361281a565b925060208a01995050600181019050612852565b50829750879550505050505092915050565b600060208201905081810360008301526128b68184612827565b905092915050565b7f4e487b7100000000000000000000000000000000000000000000000000000000600052602260045260246000fd5b6000600282049050600182168061290557607f821691505b602082108103612918576129176128be565b5b50919050565b600082825260208201905092915050565b7f696d61676520646f6573206e6f74206578697374000000000000000000000000600082015250565b600061296560148361291e565b91506129708261292f565b602082019050919050565b6000602082019050818103600083015261299481612958565b9050919050565b7f696d61676520616c726561647920636f6d706c65746500000000000000000000600082015250565b60006129d160168361291e565b91506129dc8261299b565b602082019050919050565b60006020820190508181036000830152612a00816129c4565b9050919050565b7f696d616765207761732063616e63616c6c656400000000000000000000000000600082015250565b6000612a3d60138361291e565b9150612a4882612a07565b602082019050919050565b60006020820190508181036000830152612a6c81612a30565b9050919050565b600082905092915050565b7f4e487b7100000000000000000000000000000000000000000000000000000000600052604160045260246000fd5b60008190508160005260206000209050919050565b60006020601f8301049050919050565b600082821b905092915050565b600060088302612b0f7fffffffffffffffffffffffffffffffffffffffffffffffffffffffffffffffff82612ad2565b612b198683612ad2565b95508019841693508086168417925050509392505050565b6000819050919050565b6000612b56612b51612b4c84612075565b612b31565b612075565b9050919050565b6000819050919050565b612b7083612b3b565b612b84612b7c82612b5d565b848454612adf565b825550505050565b600090565b612b99612b8c565b612ba4818484612b67565b505050565b5b81811015612bc857612bbd600082612b91565b600181019050612baa565b5050565b601f821115612c0d57612bde81612aad565b612be784612ac2565b81016020851015612bf6578190505b612c0a612c0285612ac2565b830182612ba9565b50505b505050565b600082821c905092915050565b6000612c3060001984600802612c12565b1980831691505092915050565b6000612c498383612c1f565b9150826002028217905092915050565b612c638383612a73565b67ffffffffffffffff811115612c7c57612c7b612a7e565b5b612c8682546128ed565b612c91828285612bcc565b6000601f831160018114612cc05760008415612cae578287013590505b612cb88582612c3d565b865550612d20565b601f198416612cce86612aad565b60005b82811015612cf657848901358255600182019150602085019450602081019050612cd1565b86831015612d135784890135612d0f601f891682612c1f565b8355505b6001600288020188555050505b50505050505050565b60008160001c9050919050565b6000819050919050565b6000612d53612d4e83612d29565b612d36565b9050919050565b600073ffffffffffffffffffffffffffffffffffffffff82169050919050565b6000612d8d612d8883612d29565b612d5a565b9050919050565b60008154612da1816128ed565b612dab8186612167565b94506001821660008114612dc65760018114612ddc57612e0f565b60ff198316865281151560200286019350612e0f565b612de585612aad565b60005b83811015612e0757815481890152600182019150602081019050612de8565b808801955050505b50505092915050565b600060ff82169050919050565b6000612e38612e3383612d29565b612e18565b9050919050565b60008160081c9050919050565b6000612e5f612e5a83612e3f565b612e18565b9050919050565b600061010083016000808401549050612e7e81612d40565b612e8b600087018261210c565b5060018401549050612e9c81612d7a565b612ea9602087018261214d565b50600284018583036040870152612ec08382612d94565b925050600384018583036060870152612ed98382612d94565b925050600484018583036080870152612ef28382612d94565b9250506005840185830360a0870152612f0b8382612d94565b92505060068401549050612f1e81612e25565b612f2b60c08701826121f8565b50612f3581612e4c565b612f4260e08701826121f8565b50819250505092915050565b60006020820190508181036000830152612f688184612e66565b905092915050565b600081905092915050565b60008154612f88816128ed565b612f928186612f70565b94506001821660008114612fad5760018114612fc257612ff5565b60ff1983168652811515820286019350612ff5565b612fcb85612aad565b60005b83811015612fed57815481890152600182019150602081019050612fce565b838801955050505b50505092915050565b600061300a8284612f7b565b915081905092915050565b7f61727469737420646f6573206e6f742065786973740000000000000000000000600082015250565b600061304b60158361291e565b915061305682613015565b602082019050919050565b6000602082019050818103600083015261307a8161303e565b9050919050565b7f4e487b7100000000000000000000000000000000000000000000000000000000600052601160045260246000fd5b60006130bb82612075565b91506130c683612075565b92508282019050808211156130de576130dd613081565b5b92915050565b60006130ef82612075565b91506130fa83612075565b925082820390508181111561311257613111613081565b5b92915050565b82818337600083830152505050565b60006131338385612f70565b9350613140838584613118565b82840190509392505050565b6000613159828486613127565b91508190509392505050565b7f6e6f7420656e6f7567682046494c2073656e7420746f2070617920666f72206960008201527f6d61676500000000000000000000000000000000000000000000000000000000602082015250565b60006131c160248361291e565b91506131cc82613165565b604082019050919050565b600060208201905081810360008301526131f0816131b4565b9050919050565b6132008261215c565b67ffffffffffffffff81111561321957613218612a7e565b5b61322382546128ed565b61322e828285612bcc565b600060209050601f831160018114613261576000841561324f578287015190505b6132598582612c3d565b8655506132c1565b601f19841661326f86612aad565b60005b8281101561329757848901518255600182019150602085019450602081019050613272565b868310156132b457848901516132b0601f891682612c1f565b8355505b6001600288020188555050505b505050505050565b6000610100830160008084015490506132e181612d40565b6132ee600087018261210c565b50600184015490506132ff81612d7a565b61330c602087018261214d565b506002840185830360408701526133238382612d94565b92505060038401858303606087015261333c8382612d94565b9250506004840185830360808701526133558382612d94565b9250506005840185830360a087015261336e8382612d94565b9250506006840154905061338181612e25565b61338e60c08701826121f8565b5061339881612e4c565b6133a560e08701826121f8565b50819250505092915050565b600060208201905081810360008301526133cb81846132c9565b905092915050565b7f706c656173652070726f7669646520616e206964000000000000000000000000600082015250565b600061340960148361291e565b9150613414826133d3565b602082019050919050565b60006020820190508181036000830152613438816133fc565b9050919050565b7f706c65617365206861766520746865206172746973742077697468647261772060008201527f657363726f772066697273740000000000000000000000000000000000000000602082015250565b600061349b602c8361291e565b91506134a68261343f565b604082019050919050565b600060208201905081810360008301526134ca8161348e565b9050919050565b7f4e487b7100000000000000000000000000000000000000000000000000000000600052603260045260246000fd5b60008154905061350f816128ed565b9050919050565b60008190508160005260206000209050919050565b818103613539575050613611565b61354282613500565b67ffffffffffffffff81111561355b5761355a612a7e565b5b61356582546128ed565b613570828285612bcc565b6000601f83116001811461359f576000841561358d578287015490505b6135978582612c3d565b86555061360a565b601f1984166135ad87613516565b96506135b886612aad565b60005b828110156135e0578489015482556001820191506001850194506020810190506135bb565b868310156135fd57848901546135f9601f891682612c1f565b8355505b6001600288020188555050505b5050505050505b565b7f4e487b7100000000000000000000000000000000000000000000000000000000600052603160045260246000fd5b600061364d82612075565b91507fffffffffffffffffffffffffffffffffffffffffffffffffffffffffffffffff820361367f5761367e613081565b5b600182019050919050565b60006136958261215c565b61369f8185612f70565b93506136af818560208601612178565b80840191505092915050565b60006136c7828461368a565b915081905092915050565b7f61727469737420646f6573206e6f74206861766520616e79206d6f6e6579207460008201527f6f20776974686472617700000000000000000000000000000000000000000000602082015250565b600061372e602a8361291e565b9150613739826136d2565b604082019050919050565b6000602082019050818103600083015261375d81613721565b9050919050565b7f4f776e61626c653a206e6577206f776e657220697320746865207a65726f206160008201527f6464726573730000000000000000000000000000000000000000000000000000602082015250565b60006137c060268361291e565b91506137cb82613764565b604082019050919050565b600060208201905081810360008301526137ef816137b3565b9050919050565b7f4f776e61626c653a2063616c6c6572206973206e6f7420746865206f776e6572600082015250565b600061382c60208361291e565b9150613837826137f6565b602082019050919050565b6000602082019050818103600083015261385b8161381f565b9050919050565b7f61727469737420636f6d6d697373696f6e206d757374206265206c657373207460008201527f68616e206f7220657175616c20746f20696d61676520636f7374000000000000602082015250565b60006138be603a8361291e565b91506138c982613862565b604082019050919050565b600060208201905081810360008301526138ed816138b1565b905091905056fea2646970667358221220800ce0be8087b41994154efe9688e70916b904e21dbced7b93a5d362ebf1ed1064736f6c63430008110033",
  "linkReferences": {},
  "deployedLinkReferences": {}
}